:020000040800F2
:10000000F039002035020008933500085F320008FF
:10001000913500080D0800084D3A00080000000066
:1000200000000000000000000000000097350008FC
:1000300015090008000000009535000899350008F2
:100040004F0200084F0200084F0200084F0200084C
:100050004F0200084F0200084F0200084F0200083C
:100060004F0200084F0200084F0200084F0200082C
:100070004F0200084F0200084F0200084F0200081C
:100080004F0200084F0200084F0200084F0200080C
:10009000110800081D0800084F0200084F02000860
:1000A0004F0200084F0200084F0200084F020008EC
:1000B0004F0200084F0200084F0200084F020008DC
:1000C0004F0200084F0200084F0200084F020008CC
:1000D0004F020008293A00084F020008353A00088C
:1000E0004F0200084F0200084F0200084F020008AC
:1000F0004F0200084F0200084F0200084F0200089C
:100100004F0200084F020008AD3500084F020008FA
:100110004F0200084F020008B9350008C535000835
:100120004F020008410800084D0800084F0200086F
:100130004F0200084F0200084F0200084F0200085B
:1001400029080008350800084F0200084F0200087F
:100150004F0200085908000865080008413A0008E5
:100160004F0200084F0200084F0200084F0200082B
:100170004F0200084F0200084F0200080000000074
:100180004F0200084F02000800F002F800F043F8A8
:100190000AA090E8000C82448344AAF10107DA45E2
:1001A00001D100F038F8AFF2090EBAE80F0013F0F1
:1001B000010F18BFFB1A43F001031847A48D00007C
:1001C000C48D0000103A24BF78C878C1FAD852070D
:1001D00024BF30C830C144BF04680C6070470000C1
:1001E0000023002400250026103A28BF78C1FBD840
:1001F000520728BF30C148BF0B607047642900F028
:10020000F980002070471FB508F0B3F900F010FA2C
:100210001FBD10B510BD00F0A7FA1146FFF7F3FFA0
:1002200007F052FA00F0C5FA03B4FFF7F2FF03BC7F
:1002300000F0C8FA0948804709480047FEE7FEE792
:10024000FEE7FEE7FEE7FEE7FEE7FEE7FEE7FEE786
:1002500004480549054A064B704700009D350008D3
:1002600089010008F0330020F0390020F03500202B
:10027000F035002053EA020C00F069802DE9F04BC4
:100280004FF00006002B1FBFB3FA83F503FA05F405
:1002900024FA05F65E4012BF1643B2FA82F502FA5E
:1002A00005F4C5F120051EBF22FA05FC44EA0C0442
:1002B000203556EA044C4FEA144418BF641C4FF032
:1002C00000084FF00009904271EB030C39D300296C
:1002D00019BFB1FA81F701FA07F6B0FA80F700FA10
:1002E00007F6C7F120071EBF20FA07FC46EA0C06F6
:1002F0002037B6FBF4FCA7EB0507103F07F01F0BF8
:10030000CBF120060CFA0BFB2CFA06F644BFB346E1
:100310000026202FA4BF5E464FF0000B5BEA060CC0
:1003200008BF4FF0010B19EB0B09ABFB027C48EB4C
:100330000608C01B06FB02CC0BFB03CC71EB0C01C7
:10034000C1E70B46024641464846BDE8F08B13B56F
:100350004FF000004FF00001AFF30080BDE81C40FB
:10036000704700000FB41CB5074B06AA7B446946D2
:100370000090059800F0D7F90020694600F0E6F9F2
:100380001CBC5DF814FB0000DD0300002DE9F0410A
:100390000E460446002020622046E168884730B3BC
:1003A000252805D0D4E901219047206A401CF2E7B6
:1003B000E168204600278847050018D0A5F14100D4
:1003C000192802D820354FF40067324629462046C6
:1003D0002760FFF713FF40B1012804D0F61D26F077
:1003E00007060836D8E7361DD6E72846DAE7206A3A
:1003F000BDE8F0812DE9F04106460024106875291A
:10040000314616A510D0AFF30080002802DA404232
:1004100013A507E031688A0701D512A502E0490754
:1004200004D511A5012401E0AFF3008000210A22C8
:1004300006F1240709E0B0FBF2FCB0FBF2F302FB8B
:100440001C00303078541846491C0028F3D123464C
:100450002A463046BDE8F04100F007B90000000030
:100460002D0000002B0000002000000010B5431CF0
:1004700002E010F8011B71B18107FAD14FF001328F
:1004800002C88C1A8C4314EAC211F9D0C01A0A06A9
:1004900003D0C01E10BDC01A10BD0A0401D0801EBA
:1004A00010BD0902FCD0401E10BD032A40F230806E
:1004B00010F0030C00F0158011F8013BBCF1020FA5
:1004C000624498BF11F801CB00F8013B38BF11F826
:1004D000013BA2F1040298BF00F801CB38BF00F83D
:1004E000013B11F0030300F02580083AC0F00880BA
:1004F00051F8043B083A51F804CBA0E80810F5E79E
:10050000121D5CBF51F8043B40F8043BAFF3008080
:10051000D20724BF11F8013B11F801CB48BF11F8F5
:10052000012B24BF00F8013B00F801CB48BF00F8C5
:10053000012B704710B5203AC0F00B80B1E818507D
:10054000203AA0E81850B1E81850A0E81850BFF4BD
:10055000F5AF5FEA027C24BFB1E81850A0E818505C
:1005600044BF18C918C0BDE810405FEA827C24BFB0
:1005700051F8043B40F8043B08BF7047D20728BF3E
:1005800031F8023B48BF11F8012B28BF20F8023B8D
:1005900048BF00F8012B70474FF000020429C0F05B
:1005A000128010F0030C00F01B80CCF1040CBCF1A5
:1005B000020F18BF00F8012BA8BF20F8022BA1EBF7
:1005C0000C0100F00DB85FEAC17C24BF00F8012BDC
:1005D00000F8012B48BF00F8012B70474FF00002D4
:1005E00000B5134694469646203922BFA0E80C5029
:1005F000A0E80C50B1F12001BFF4F7AF090728BF04
:10060000A0E80C5048BF0CC05DF804EB890028BF7F
:1006100040F8042B08BF704748BF20F8022B11F0A8
:10062000804F18BF00F8012B704770477047704724
:1006300070B5064C7C44064D7D4403E020682044A0
:100640008047241DAC42F9D170BD000048890000EC
:100650004889000010B500F07FF8006810BD10B5A3
:10066000044600F079F8046010BD2DE9F0470D460E
:1006700099469246044600F124080168880604D58C
:10068000E06921F01001216000E00120A84201DDB5
:10069000471B00E00027A1697A1902EB0900081A3C
:1006A000A0612078C00602D42046AFF30080002667
:1006B00008E0D4E901211AF806009047206A401C9E
:1006C000761C20624E45F4DB2078C0060AD5204611
:1006D000AFF3008006E0D4E9012130209047206A82
:1006E000401C2062381EA7F10107F4DC07E0D4E9C2
:1006F000012118F805009047206A401C2062281E3E
:10070000A5F10105F3DC2046AFF300802078000658
:1007100002D50220BDE8F0870120FBE701694A1CF1
:1007200002610878704700B58FB0CDE90131002132
:10073000059105497944CDE9031011466846FFF754
:1007400025FE0FB000BD0000E5FFFFFF0A6802F8BC
:10075000010B0A6070470000004870478C3300208E
:10076000004870478C3300207546FFF7F9FFAE460E
:1007700005006946534620F00700854618B020B5AD
:10078000FFF766FDBDE820404FF000064FF0000780
:100790004FF000084FF0000B21F00701AC46ACE829
:1007A000C009ACE8C009ACE8C009ACE8C0098D4696
:1007B000704710B50446AFF300802046BDE81040F6
:1007C000FFF732BD01491820ABBEFEE7260002004C
:1007D0007047000010B504464FF42A720349FFF732
:1007E000A9FE2046BDE8104005F028BB8086000821
:1007F00010B504464FF42A720349FFF79BFE2046CA
:10080000BDE8104005F01ABB28890008FEE700008B
:10081000014800F014BA00003C2E0020014800F00E
:100820000EBA00003C2E0020014800F008BA00007B
:10083000642E0020014800F002BA0000642E00205F
:10084000014800F0EBBC00005C310020014800F0E2
:10085000E5BC00009C300020014800F0DFBC000037
:10086000FC300020014800F0D9BC00003C300020E2
:1008700001681823CAB2103AB2FBF3F2054B6FF3CA
:100880000901032A9B5CC36500D9091D81650846DF
:1008900070470000D08B000810B5014600208B691E
:1008A0008A6A4FF0C07453B1B3F5005F15D072B1CE
:1008B000012A0CD0022A0AD0032A09D104E01AB175
:1008C000012A06D0022A03D1C96AC90100D5012034
:1008D00010BDC96AA142FAD010BD002AF7D0012A82
:1008E000F2D0022AF3D0032AF3D010BD30B5046849
:1008F000256825F480252560046863608368402BA3
:10090000036803D099600068C26030BD9A600068D7
:10091000C16030BD704772B6FEE790F82020012A12
:1009200007D0022A05D0416A41F4802141620120AA
:100930007047006842690A43426100207047F0B581
:1009400090F820500468A468012D05D0022D03D032
:10095000416A41F4802157E014F0406F01D1E50075
:100960004FD5C4F301640125A5401D608B684FF489
:10097000C0759BB1CE6833434E6843EAC603066830
:1009800005EB0417F3514FF4C273076803EB04132C
:100990000E69FE50097D012905D009E00E88CB685B
:1009A00043EA4653EBE70168CE5846F48076CE50D2
:1009B0001179D379567941EA036193791B0443EAAB
:1009C000062319434FF4C676036806EB04169951C3
:1009D0001178D37841EA0361937852781B0443EA93
:1009E000022211434FF4C473026803EB0413D15085
:1009F000006805EB0411425842F001024250002009
:100A0000F0BD416A41F4001141620120F0BD0000D7
:100A100010B590F82020012A07D0022A05D0416A9B
:100A200041F480214162012010BD3B48D0F80022F2
:100A300042F00102C0F80022D0F8002222F47C52D9
:100A4000C0F80022D0F800224B6A42EA0322C0F824
:100A500000220A7D02F01F0301229A40D0F81C32C6
:100A60009343C0F81C32CB69B3B9D0F80C3293432E
:100A7000C0F80C328C894B6864F31F434C6900EB5F
:100A8000C404C4F840320C890B6864F31F434C69FA
:100A900000EBC404C4F84432CB69012B16D1D0F862
:100AA0000C321343C0F80C320C884B6864F31F43BC
:100AB0004C6900EBC404C4F840320C89CB6864F381
:100AC0001F434C6900EBC404C4F844328B69002B0B
:100AD000D0F804320ED01343C0F804320B69002B57
:100AE000D0F8143208D01343C0F81432096A01292F
:100AF00004D008E09343EFE79343F5E7D0F81C12E6
:100B00001143C0F81C12D0F8001221F00101C0F806
:100B10000012002010BD000000640040704770B556
:100B200090F82040012C05D0022C03D0416A41F4FA
:100B3000802128E0046809B32469A40720D04FF479
:100B4000D874056804EB01142D5915F0040595605F
:100B500005682D591AD0ED08556005682C5904F028
:100B60000204D4604FF4DA74056804EB01142E59C2
:100B700006F00F06082E0CD308250DE0E468DCE72C
:100B8000416A41F400114162012070BD6D0D156094
:100B9000E3E72D5905F00F05156105682D59C5F3DB
:100BA0000725956105682C59240C54614FF4DC72BB
:100BB000046802EB0112A4581C700468A458240AAB
:100BC0005C700468A458240C9C700468A258120E2F
:100BD000DA704FF4DE72046802EB0112A4581C7143
:100BE0000468A458240A5C710468A458240C9C71FD
:100BF0000468A258120EDA71006829B1016941F047
:100C000020010161002070BDC16841F02001C16078
:100C1000F8E70246002092F82010012901D00229AD
:100C20000CD111688A68520100D501208A6812012E
:100C300000D5401C8968C90000D5401C70472DE9CB
:100C4000F05F0546006800244669D0F80490876884
:100C5000D0F80CB0D0F810A0D0F81880F10748D028
:100C6000F90714D001218160B80703D5284600F0A8
:100C700074FA0CE0780702D54FF4006407E03807F7
:100C800002D54FF4805402E0284600F065FAF805DA
:100C900016D529684FF480708860B80503D52846BA
:100CA00000F05DFA0CE0780502D544F4005407E04A
:100CB000380502D544F4804402E0284600F04EFA9C
:100CC000F80316D529684FF480308860B80303D53F
:100CD000284600F046FA0CE0780302D544F40044BC
:100CE00007E0380302D544F4803402E0284600F0DF
:100CF00037FA300707D55FEACB6004D529681020A2
:100D000044F40074C86070074FF0080707D55FEA25
:100D10000B7004D52868C760284600F0A7F9B00713
:100D200006D52868C068800702D0284600F0A0F9E0
:100D3000700607D55FEACA6004D52968102044F41C
:100D400080640861B00607D55FEA0A7004D5286898
:100D50000761284600F0D2F9F00606D52868006938
:100D6000800702D0284600F0CAF9B00308D55FEA30
:100D7000C96005D5296810204860284600F0C0F9F0
:100D8000F00307D55FEA097004D528684760284654
:100D900000F0E8F9300446D55FEA497040D5F00527
:100DA00004D55FEAC87001D044F00104B00504D551
:100DB0005FEA887001D544F00204700504D55FEA4B
:100DC000487001D544F00404300529D518F0700F9F
:100DD00026D008F07000402815D006DC102809D075
:100DE00020280AD0302816D10AE050280ED06028DA
:100DF00011D10EE044F008040DE044F010040AE0C4
:100E000044F0200407E044F0400404E044F080048F
:100E100001E044F480742868816921F070018161E7
:100E2000296804204860002C05D0686A2043686265
:100E30002846FFF773FEBDE8F09F70B5040003D0AD
:100E400094F8200010B104E0012070BD204600F0AD
:100E500081F82068016841F00101016000F050FC58
:100E60000546052604E000F04BFC401B0A2811D87B
:100E700020684068C007F6D02068016821F00201B0
:100E8000016000F03DFC05460BE000F039FC401B22
:100E90000A2806D9606A40F40030606284F8206055
:100EA000D2E7206840688007EFD4207E01282068C0
:100EB00001683DD021F080010160607E012820683A
:100EC000016838D021F040010160A07E012820682F
:100ED000016833D021F020010160E07E0128206804
:100EE00001682ED041F010010160207F01282068A8
:100EF000016829D021F008010160607F0128206885
:100F0000016824D021F004010160D4E90201084302
:100F1000D4E90412114308436168491E084321685B
:100F2000C86100206062012084F82000002070BDAC
:100F300041F08001C0E741F04001C5E741F02001E8
:100F4000CAE721F01001CFE741F00801D4E741F0F2
:100F50000401D9E7F0B587B0044614216846FFF7CD
:100F60003DFB3D493D4ADFF8ECE00868D4F800C09D
:100F70003A4B03240225092610320027401CF44571
:100F800029D10860012807D1106840F00070106076
:100F9000106800F000700590186840F008001860B4
:100FA00018688DE8B00000F00800CDE904606946DB
:100FB00003942B4800F0B6FA00221146142000F0EA
:100FC0000DFC142000F0FCFB00221146152000F05F
:100FD00005FC152039E0DFF88CE0F44537D1D2F874
:100FE00000C04CF0806CC2F800C0D2F800C00128EC
:100FF0000CF0806CCDF814C0086007D1106840F088
:1010000000701060106800F000700590186840F0E3
:10101000020018601868694600F002000590602020
:101020008DE8A100CDE903460F4800F07BFA0022CD
:101030001146402000F0D2FB402000F0C1FB00220E
:101040001146412000F0CAFB412000F0B9FB07B077
:10105000F0BD000000640040BC00002030380240B9
:10106000000C02400068004000040240704700008D
:1010700070B586B005461C4B1C4A0021FFF74FFD9A
:101080001A4C1B48184E183C85421BD104F1240011
:1010900004960FC88DE80F00A4F56260183494E838
:1010A0000E00183C05F06CF92434049694E80F0007
:1010B0008DE80F00A4F634600C3C94E80E00183C58
:1010C00005F05EF90B4885420BD104F1240004962B
:1010D0000FC88DE80F001834074894E80E0004F09C
:1010E00063FF06B070BD000094000020A827002018
:1010F0003C2E0020642E002090190020704770477D
:10110000704770B5044690F82000012804D0606A4A
:1011100040F40020606217E0022084F8200020687C
:10112000016821F00101016000F0EAFA05460DE0D6
:1011300000F0E6FA401B0A2808D9606A40F4003043
:101140006062052084F82000012070BD206840689E
:10115000C007EDD1606270BD70477047704770473F
:101160007047704770472DE9F0410446876D00F0E5
:10117000C7FA054694F835000026022806D08020DC
:10118000606584F834600120BDE8F0812068016862
:1011900021F0160101602068416921F08001416160
:1011A000206C08B9A06C20B12068016821F008010A
:1011B00001602068016821F0010101600CE000F08D
:1011C0009FFA401B052807D920206065032084F87A
:1011D000350084F83460D7E720680068C007EED196
:1011E00094F85C103F208840B860012084F83500F6
:1011F00084F834600020C7E790F83510022903D046
:101200008021416501207047052180F83510006874
:10121000016821F001010160002070472DE9F843C9
:1012200004464FF00009CDF8009063484FF4165182
:10123000A56D0068B0FBF1F72E6894F85C200821DA
:1012400001FA02F030420FD02068026852070BD535
:10125000026822F00402026094F85C008140A960F8
:10126000606D40F00100606594F85C104FF001087B
:1012700008FA01F0304208D021684969090604D50E
:10128000A860606D40F00200606594F85C10042076
:101290008840304208D021680968890704D5A860D1
:1012A000606D40F00400606594F85C101020884088
:1012B000304218D021680968090714D5A860206851
:1012C0000168490304D50068000308D5A16C07E054
:1012D0000168C90503D4016821F008010160216C8F
:1012E00009B12046884794F85C102020884030429D
:1012F00031D021680968C9062DD5A86094F8350059
:1013000005282068016806D0490347D50068000316
:101310001DD4616C1CE021F0160101602068416958
:1013200021F080014161206C08B9A06C20B12068D7
:10133000016821F00801016094F85C103F208840AA
:10134000A86084F8358084F83490216D1FE0E16B4B
:1013500009B120468847606D00282BD0606DC0071A
:1013600014D0052084F835002068016821F00101BF
:1013700001600098401C0090B84203D820680068C3
:10138000C007F6D184F8358084F83490E16C0029E8
:1013900010D001B02046BDE8F04308470168C905F8
:1013A000D5D4016821F01001016084F8358084F8FB
:1013B0003490CCE7BDE8F883CC0000202DE9F04163
:1013C000044600F09DF905465CB1022084F8350022
:1013D000002684F834602068016821F00101016072
:1013E0000DE00120BDE8F08100F08AF9401B0528DE
:1013F00005D920206065032084F83500F2E72068D5
:101400000068C007F0D121680A6820480240D4E98A
:1014100001031843D4E903352B4318436369184388
:10142000A3691843E3691843236A18431043626AA7
:10143000042A03D1D4E90B231A431043086020681F
:101440004069656A20F0070128460D4301270428FA
:101450000CD1A06A0543E06A40B12046FFF71CFAB0
:1014600020B14020606584F83570BAE72068456196
:101470002046FFF7FDF994F85C203F219140816000
:10148000666584F835700020ACE700003F8010F0FE
:101490002DE9F0410446866D90F8340000250128BE
:1014A0000DD0012084F8340094F835700020012F0D
:1014B00007D084F8340002252846BDE8F0810220D8
:1014C000FBE7022784F8357060652046FFF70EFAC7
:1014D00094F85C103F208840B0602068016841F0BB
:1014E00016010160206C20B12068016841F00801FC
:1014F00001602068016841F001010160DCE7000043
:1015000070B5044600F0FCF80546601C02D00448A3
:101510000078044400F0F4F8401BA042FAD370BDF8
:10152000C00000202DE9F84FDFF89C910022A9F1BE
:10153000040B03274FF00F0C09F1040AABF1040E62
:1015400001250B6895402B40AB426ED10C7904F01D
:101550000304012C01D0022C15D18668540007FA2F
:1015600004F826EA0806D1F80C8008FA04F848EADC
:101570000608C0F808804468AC430D79C5F300152F
:101580009540254345600C79E443A40708D0C5681D
:10159000540007FA04F6B5438E68A6402E43C66091
:1015A0000C7904F00304022C11D1D40800EB84065A
:1015B000356A5407E40E0CFA04F825EA0805D1F858
:1015C000108008FA04F848EA0508C6F82080056883
:1015D000540007FA04F6B5430E7906F00306A64058
:1015E0002E4306604C6814F4403F66D0374C2568A3
:1015F00045F480452560246822F0030504F4804406
:101600000094334C05EB0408D8F808589407260FCB
:101610000CFA06F4A5432F4CA04201D1002424E08B
:101620002D4CA04202D101241FE046E02B4CA042E9
:1016300001D1022419E02A4CA04201D1032414E074
:10164000284CA04201D104240FE0274CA04201D134
:1016500005240AE0254CA04201D1062405E0244CD3
:10166000A04201D1072400E00824B4402C43C8F86C
:101670000848D9F800404D464E689C43F60200D514
:101680001C432C60DAF8004055464E689C43B60275
:1016900000D51C432C60DBF800405D464E689C433F
:1016A000B60300D51C432C60DEF8004075464E683A
:1016B0009C43F60300D51C432C60521C102AFFF4F7
:1016C0003FAFBDE8F88F0000083C014044380240BD
:1016D00000300140000002400004024000080240C7
:1016E000000C0240001002400014024000180240AA
:1016F000001C02400AB1816170470904FBE7000049
:101700000148806870470000C000002002488168DE
:101710000278114481607047C00000200B4810B56A
:10172000016841F400710160016841F48061016069
:10173000016841F480710160032000F06FF80F2010
:1017400000F006F800F024F8002010BD003C024034
:1017500070B50D4D04464FF47A712878B1FBF0F066
:101760000A490968B1FBF0F000F002FB48B9102CFF
:1017700007D200222146501E00F030F800206C6095
:1017800070BD012070BD0000C0000020CC00002012
:101790000A4808B5016841F480410160006800F41E
:1017A000804000900548001F016841F080510160B1
:1017B000006800F08050009008BD000044380240EE
:1017C000002809DB00F01F02012191404009800040
:1017D00000F1E020C0F8001170470000F0B40E4B9B
:1017E0001B68C3F30223C3F10704042C00D90424AB
:1017F0001D1D072D01D2002300E0DB1E012606FA85
:1018000004F56D1E0D409D409E40761E164045EA33
:101810000601F0BC04F0A4BE0CED00E0064A00F0A6
:10182000070110684FF6FF03184040EA0120034902
:1018300008431060704700000CED00E00000FA055E
:101840002DE9F0470D46040065D0DFF81491D9F872
:101850000000EFB200F00700A84207D289F800703C
:10186000D9F8000000F00700A84254D120683D4E8E
:10187000810712D5400703D5306840F4E05030604E
:101880002078000703D5306840F46040306030684D
:10189000A16820F0F000084330602078C0072DD008
:1018A000304960680839012812D0022813D0032873
:1018B00011D00968890700292DDA316821F0030168
:1018C00001433160FFF71CFF804641F2883A0EE089
:1018D00009688903EFE709688901ECE7FFF710FF62
:1018E000A0EB0801514502D90320BDE8F08730681C
:1018F000616800F00C00B0EB810FEFD1D9F8001057
:10190000484601F00701A94207D90770006800F0B6
:101910000700A84201D00120E7E72078400705D55D
:101920003068E16820F4E050084330602078000718
:1019300006D53068216920F4604040EAC10030607B
:1019400000F038F83168084AC1F30311515CC8400F
:101950000649086006480068FFF7FAFE0020C4E761
:10196000003C024008380240D88B0008CC00002020
:10197000C40000200448054900680968044AC1F30E
:101980008221515CC8407047CC00002008380240DA
:10199000E88B00080448054900680968044AC1F357
:1019A0004231515CC8407047CC00002008380240EA
:1019B000E88B0008154810B5006810F00C011448B9
:1019C00013D0144B04290FD008290ED10F4C241F1B
:1019D000216801F03F022168490207D52068C0F361
:1019E0008810A0FB030106E0184610BD2168C1F372
:1019F0008811A1FB00010023FEF73CFC2168C1F324
:101A00000141491C4900B0FBF1F010BD083802400B
:101A10000024F400001BB7002DE9F84F040075D036
:101A20002078DFF838A3C007AAF1040548D00AF1EE
:101A300004000168C1F38101012908D00068C0F3E6
:101A4000810002280AD1DAF80000400206D5286891
:101A5000800335D560680028E1D031E06068B0F5DA
:101A6000803F10D0B0F5A02F286810D020F480302F
:101A70002860286820F4802028606068A0B1FFF703
:101A80003FFE06460CE0286840F48030F4E740F45E
:101A900080202860F7E7FFF733FE801B642871D8A9
:101AA00028688003F7D50BE0FFF72AFE064604E01E
:101AB000FFF726FE801B6428F1D828688003F7D43E
:101AC0002078DFF89C9280074FF0000B3DD5A348AB
:101AD000001D016811F00C0F08D00068C0F38100F0
:101AE00002280AD1DAF80000400206D428688007EC
:101AF00015D5E068012809D111E0E068B8B10120EE
:101B0000C9F80000FFF7FCFD064605E022E1FFF7FB
:101B1000F7FD801B0228C2D828688007F7D52868FF
:101B2000216920F0F80040EAC10028600DE0C9F802
:101B300000B0FFF7E5FD064604E0FFF7E1FD801B7E
:101B400002281FD828688007F7D42078000722D5FC
:101B5000824F84486169703771B101210160FFF7DC
:101B6000CFFD064604E0FFF7CBFD801B022809D815
:101B700038688007F7D50EE0C0F800B0FFF7C0FD69
:101B8000064605E082E0FFF7BBFD801B02287DD8FA
:101B900038688007F7D42078400765D56F484FF044
:101BA00000083C300068C0000BD46C483C30016831
:101BB00041F08051016000684FF0010800F0805052
:101BC0000090694F3868C0050FD4386840F48070C1
:101BD0003860FFF795FD064604E0FFF791FD801B96
:101BE000022853D83868C005F7D55C4FA0686C3719
:101BF00001280FD00528386810D020F00100386087
:101C0000386820F004003860A068B0B1FFF778FDB4
:101C100006460EE0386840F00100F4E740F00400AA
:101C20003860F7E7FFF76CFD811B41F28830814295
:101C300063D838688007F5D50DE0FFF761FD0646EB
:101C400006E0FFF75DFD811B41F28830814254D8E8
:101C500038688007F5D4B8F1000F05D03F483C3014
:101C6000016821F080510160A069B8B33B49091DAA
:101C70000968C1F38101022946D00228584606D0DE
:101C8000C9F86000FFF73CFD044639E035E04F46F7
:101C9000C9F86000FFF734FD064604E0FFF730FDA9
:101CA000801B022829D828688001F7D4D4E90701CD
:101CB0000843A16A2D4A490802EB0141626A41EAE0
:101CC0008211084394F82C1040EA0161CAF8001010
:101CD00001203866FFF714FD044605E03CE0FFF7FD
:101CE0000FFD001B022808D828688001F7D533E0D3
:101CF000FFF706FD001B022802D90320BDE8F88F7C
:101D000028688001F4D427E00128F7D0DAF8000031
:101D1000E26900F4800191421CD1226A00F03F0187
:101D2000914217D147F6C071626A0140B1EB821F40
:101D300010D1A26A4FF0FF3300F4403103EB52029E
:101D4000B1EB024F06D194F82C1000F07060B0EBAC
:101D5000016F01D00120D1E70020CFE70438024015
:101D600000004742800E4742007000400000FFFF25
:101D700010B5401EB0F1807F01D3012010BD4FF09F
:101D8000E02460610F21601704F0EAFB0020A061ED
:101D900007202061002010BD7047704770B590F893
:101DA0003C20012A32D0012580F83C50022280F8E4
:101DB0003D2002685368946823F070060B68334333
:101DC0005360134B02689A4214D0B2F1804F11D085
:101DD000104B9A420ED0104B9A420BD00F4B9A42A6
:101DE00008D00F4B9A4205D00E4B9A4202D00E4BB0
:101DF0009A4204D1496824F080031943916080F825
:101E00003D50002180F83C10084670BD022070BD96
:101E1000000001400004004000080040000C0040A9
:101E200000040140004001400018004010B50400CB
:101E300003D094F83D0010B107E0012010BD002050
:101E400084F83C00204600F01FF8022084F83D0092
:101E5000211D206801F0BCFB012084F8460084F8B5
:101E60003E0084F83F0084F8400084F8410084F884
:101E7000420084F8430084F8440084F8450084F864
:101E80003D00002010BD000008B500681D4A1E4935
:101E900090420ED1086840F00800086008680022EF
:101EA00000F00800009001213220FFF797FC32205B
:101EB00022E0164A90420ED1086840F010000860F7
:101EC0000868002200F01000009001213620FFF782
:101ED00085FC362010E00E4A904211D1086840F08F
:101EE000200008600868002200F0200000901146E1
:101EF0003720FFF773FC3720BDE80840FFF760BCD0
:101F000008BD0000000C00404038024000100040B6
:101F10000014004090F83D10012901D001207047C5
:101F2000022180F83D100168CA6842F00102CA60CF
:101F300000681149884214D0B0F1804F11D00F4988
:101F400088420ED00E4988420BD00E49884208D0F4
:101F50000D49884205D00D49884202D00C4988427B
:101F600004D1816801F00701062903D0016841F01E
:101F700001010160002070470000014000040040A2
:101F800000080040000C00400004014000400140F7
:101F90000018004070B5044690F83C000025012868
:101FA00017D0012684F83C60022084F83D002068A8
:101FB000826822F0770222F47F428260086850280B
:101FC00038D00DDC20284FD005DC90B3102811D17B
:101FD0004AE0022070BD302846D040280AD13BE0BC
:101FE00060282FD070280DD0B0F5805F03D0B0F5F9
:101FF000005F12D0012584F83D60002084F83C0089
:10200000284670BDCB68D1E90121206801F04CFB66
:102010002068816841F0770109E0CB68D1E90121AE
:10202000206801F041FB2068816841F480418160B3
:10203000E1E719E0CA684968206801F047FB5021D0
:10204000206806E0CA684968206801F050FB6021FA
:10205000206801F033FBCEE7CA684968206801F0C8
:1020600035FB40212068F4E7226801461046F0E77E
:1020700070472DE9F04104460068C66805694FF0D5
:102080000007A90713D5B10711D5F91E0161012079
:102090002077206880698007204602D0FFF7E8FF9C
:1020A00004E000F07EF8204600F07CF8277768070F
:1020B00016D5700714D521686FF00400086102205E
:1020C00020772068806910F4407F204602D0FFF717
:1020D000CFFF04E000F065F8204600F063F82777B2
:1020E000280715D5300713D521686FF0080008615F
:1020F000042020772068C0698007204602D0FFF7BF
:10210000B7FF04E000F04DF8204600F04BF82777C9
:10211000E80616D5F00614D521686FF010000861A6
:10212000082020772068C06910F4407F204602D044
:10213000FFF79EFF04E000F034F8204600F032F88C
:102140002777E80708D0F00706D021686FF0010074
:102150000861204600F028F8280608D5300606D584
:1021600021686FF0800008612046FFF715FE6806C1
:1021700008D5700606D521686FF04000086120463A
:1021800000F05AFDA8060AD5B00608D521686FF000
:10219000200008612046BDE8F041FFF7FEBDBDE824
:1021A000F0817047704700002DE9F05FFE498146DD
:1021B0002DED0A8B9FEDFD8AFD4EFE4C88427DD1B0
:1021C00060799FEDFDBADFEDFD8ADFEDFDBA9FED91
:1021D000FDCADFEDFDCA06F1100800286FD184EDBD
:1021E000088A84ED0B8A06F65C4584ED0A8AB5F907
:1021F0000800404205F003FE9FEDF41B53EC112B49
:1022000005F050FE05F052FB606306F041F99FEDCA
:10221000F11B53EC112B05F07BFB9FEDF01B53ECF6
:10222000112B05F03FFE05F041FB00EE100A84ED96
:102230000E0A04F0BFFC84ED060A94ED0E0A04F0C9
:10224000C3FD84ED070AE87DA5F553679FEDE59B87
:102250009FEDE6ABA5F1600BA5F1400A012809D07E
:10226000287E012814D0687E01282CD0A87E012861
:1022700040D087E0B5F90600D4ED090A00EE100A57
:102280000021B8EEC00A20EE600A84ED080A0DE0D5
:102290003888A0F5806000B200EB8000400000EEBE
:1022A000100A0121B8EEC00A84ED080AD14802F0F4
:1022B000B3FC687E012806D0A87E01E0FEE352E16F
:1022C000012817D02EE094F9060005F098FD53EC94
:1022D000192B05F0E7FD53EC1A2B05F019FB9FEDC8
:1022E000C61B53EC112B05F0E9FF41EC100B9FEDE1
:1022F000C41B07E0B5F90A0005F081FD41EC100BA5
:102300009FEDC11B51EC100B53EC112B05F0CAFDD6
:1023100005F0CCFA00EE100A012184ED080AB54858
:1023200002F07AFCE87D012894F906003CD005F023
:1023300066FD53EC192B05F0B5FD53EC1A2B41EC5F
:10234000100B51EC100B05F0E3FA05F0AFFA206426
:102350009BED010AD4ED060AD4ED071A9AED011A95
:1023600060EE202A20EE210A94ED102A41EE612A27
:1023700001EE200A62EE822A20EE020AC4ED0A2A49
:1023800084ED0B0AB5F90A009FEDA10A0F301E2853
:1023900004D8B5F90C000F301E2816D9687E012824
:1023A00018D0B0EE080A15E005F029FD53EC192B02
:1023B00005F078FD53EC1A2B05F0AAFA41EC100B4E
:1023C0009FED941B53EC112BBBE7687E012801D0D5
:1023D000B7EE080A84ED0C0AB8880121A0F58060E8
:1023E00000B200EE100A8348B8EEC00A203002F0B6
:1023F00013FCF8880121A0F5806000B200EE100AFD
:102400007C48B8EEC00A403002F006FC3888012152
:10241000A0F5806000B200EE100A7648B8EEC00A5F
:1024200002F0FAFB7348D4ED0C0ADBED011A90EDD3
:10243000010A20EE201ADAED010AB6EE000A60EE7B
:10244000800A21EE800A9FED759AA0F6AC30F0EE7E
:10245000491A02F02DFE564D4746303540F205210F
:1024600095ED000AA5F19C0088ED000A95ED010AA2
:1024700088ED010A95ED020A88ED020A95ED030A3E
:1024800088ED030A03F0EAFE00EE100AA5F1200130
:10249000F0EE681AF8EEC00A95ED040AB0EE491A9B
:1024A000A1F17C0030EE0B0A03F0F8FD51EC100BAB
:1024B00005F0FCF9306040F20621A5F19C0003F024
:1024C000CDFE00EE100AF0EE681AB0EE491AF8EEF2
:1024D000C00A95ED050A391DA5F19C0030EE2B0AC6
:1024E00003F0DCFD51EC100B05F0E0F9706040F2F8
:1024F0000721A5F19C0003F0B1FE00EE100AA5F142
:102500001801F0EE681AF8EEC00A95ED060AB0EE72
:10251000491AA1F1840030EE0C0A03F0BFFD51EC22
:10252000100B05F0C3F9B0604FF40271A5F19C00E7
:1025300003F094FE00EE100AA5F11401F0EE681A03
:10254000F8EEC00A95ED070AB0EE491AA1F188002D
:1025500030EE2C0A03F0A2FD51EC100B05F0A6F9A9
:10256000F060607948B188ED038A88ED028A88EDD1
:10257000018A88ED008A86EC04BAA07890B1606C7C
:1025800005F086FF9FED261B53EC112B05F0C0F9DB
:1025900005F08CF905466064E06B05F079FF41ECCD
:1025A000190B41E05EE00000D42E00200000000086
:1025B000EC190020000000200080DD4500000046EE
:1025C0000068C94500C0CA4400289F45AA825149F5
:1025D0009D80A63F0000000000805640514CDE0068
:1025E00033DF913FB81E85EB51B8BE3F00000000BD
:1025F0000000F03FC82500209A9999999999C93F00
:10260000000000000088B340000000000000F83F18
:102610006666A63F9A9999999999D93F0000804694
:10262000FCA9F1D24D62503F284605F031FF9FEDE5
:10263000FE1B53EC112B05F035FC53EC192B05F068
:1026400031FC05F033F900EE100A04F0BDFB9FEDFC
:10265000F81ADFEDF80A40EE010AC4ED120AB0EEF6
:10266000600A03E096ED000A84ED120AD4ED150A23
:10267000F14930EE600AD4ED170A20EE200A10EE80
:10268000100A84ED160A884203DB9FEDEC0A84ED04
:10269000160A10EE100AEA49884203D39FEDE90AB0
:1026A00084ED160A40F2052A5146E74803F0D6FDAC
:1026B00000EE100AB0EE681AE348F8EEC00A94ED96
:1026C000120A03F0E7FDE04D40F2062B8C35594627
:1026D00085ED000ADC4803F0C1FD00EE100AB0EE03
:1026E000681AD948F8EEC00A96ED010A03F0D2FD47
:1026F00085ED010A40F20721D34803F0AFFD00EE5B
:10270000100AB0EE681AD048F8EEC00A96ED020A38
:1027100003F0C0FD85ED020A4FF40271CA4803F0D0
:102720009DFD00EE100AB0EE681AC748F8EEC00A28
:1027300096ED030A03F0AEFD85ED030A5146C2484B
:1027400003F08CFD05F05BFB41EC190B286805F0EC
:102750009FFE41EC130B9FEDBDAB05F5417707F1F3
:102760002801B0EE4A5A91EC060BF0EE6A5AB0EE30
:10277000494AF0EE694A05F55F7003F071FA59466F
:10278000B14803F06BFD05F03AFB41EC190B6868AA
:1027900005F07EFE41EC130B07F12801B0EE4A5A1A
:1027A00091EC060BF0EE6A5AB0EE494AF0EE694A37
:1027B00005F21C4003F054FA40F20721A24803F04E
:1027C0004DFD05F01CFB41EC190BA86805F060FEFF
:1027D00041EC130B07F12801B0EE4A5A91EC060BBD
:1027E000F0EE6A5AB0EE494AF0EE694A05F2BC4092
:1027F00003F036FA4FF40271934803F02FFD05F011
:10280000FEFA41EC190BE86805F042FE41EC130BAF
:1028100007F12801B0EE4A5A91EC060BF0EE6A5A25
:10282000B0EE494AF0EE694A05F25C5003F018FA3E
:102830005146854803F020FD05F0E1FA96ED000AC7
:1028400041EC190B0021BDEEC00A10EE100AB2EEE9
:10285000040A01F089F905F55F7551EC100B95ED4F
:10286000021B53EC112B05F053F841EC130B07F14D
:102870004001B0EE4A5A91EC060BF0EE6A5AB0EE07
:10288000494AF0EE694A05F5207003F0E9F9594626
:102890006D4803F0F1FC05F0B2FA96ED010A41EC47
:1028A000190B0121BDEEC00A10EE100AB2EE040AA7
:1028B00001F05AF995ED2A1B51EC100B53EC112B3A
:1028C00005F026F841EC130B07F14001B0EE4A5A2F
:1028D00091EC060BF0EE6A5AB0EE494AF0EE694A06
:1028E00005F5487003F0BCF940F20721564803F0A3
:1028F000C3FC05F084FA96ED020A41EC190B0221A3
:10290000BDEEC00A10EE100AB2EE040A01F02CF976
:1029100095ED521B51EC100B53EC112B04F0F8FF0A
:1029200041EC130B07F14001B0EE4A5A91EC060B53
:10293000F0EE6A5AB0EE494AF0EE694A05F5707059
:1029400003F08EF94FF402713F4803F095FC05F057
:1029500056FA96ED030A41EC190B0321BDEEC00AAD
:1029600010EE100AB2EE040A01F0FEF895ED7A1BA3
:1029700051EC100B53EC112B04F0CAFF403741EC23
:10298000130B97EC060BB0EE4A5AF0EE6A5AB0EE13
:10299000494AF0EE694A05F58C6003F061F940F2AE
:1029A0000121A5F5836003F067FC05F028FA98ED96
:1029B000000A41EC190B4746B1EE400A10EE100A2E
:1029C00005F066FD41EC130B05F5F1659FED21ABBC
:1029D00005F12001B0EE494A91EC060BB0EE4A5ADF
:1029E000F0EE6A5AF0EE694AA5F5187003F038F96E
:1029F00040F20221A5F53A6003F03EFC05F0FFF934
:102A000097ED010A41EC190BB1EE400A10EE100AE5
:102A100005F03EFD41EC130BB0EE4A5AF0EE6A5A57
:102A2000B0EE494A1AE000004AD8124DFB21194085
:102A300000803B4500007A450000BE430000BE43D5
:102A40000000BEC30000BEC38019002000000000CB
:102A5000004CDD40000000000000D04005F12001E6
:102A6000F0EE694A91EC060BA5F5E07003F0F8F87A
:102A700040F20321A5F53A6003F0FEFB05F0BFF933
:102A800041EC190BB86805F003FD41EC130B05F19F
:102A90002001B0EE4A5A91EC060BF0EE6A5AB0EE05
:102AA000494AF0EE694AA5F5907003F0D9F84FF461
:102AB0000171A5F53A6003F0DFFB00E077E005F077
:102AC0009EF941EC190BF86805F0E2FC41EC130BA0
:102AD000A5F180002035B0EE4A5A95EC060BF0EED9
:102AE0006A5AB0EE494AF0EE694A03F0B9F8A5F522
:102AF000207595ED020B51EC100B05F051F901B268
:102B00000122494801F0AEFE95ED2A0B51EC100B65
:102B100005F046F901B20222434801F0A3FE95ED0B
:102B2000520B51EC100B05F03BF901B203223E4869
:102B300001F098FE95ED7A0B51EC100B05F030F991
:102B400001B20422384801F08DFEA5F52A7595EDF5
:102B5000020B51EC100B05F023F901B232480122AF
:102B6000083801F07FFE95ED2A0B51EC100B05F0B3
:102B700017F901B22C480222083801F073FE95EDD6
:102B8000520B51EC100B05F00BF901B22648032251
:102B9000083801F067FE95ED7A0B51EC100B05F04B
:102BA000FFF801B220480422083801F05BFE1F49FB
:102BB000894534D1206E10B1022803D004E000F022
:102BC000C7FF01E000F0BAFF206E0321401CB0FBFC
:102BD000F1F201FB1200206694ED120A144C40F24F
:102BE0000521A4F6445084ED000A03F037FB00EE03
:102BF000100A4FF0FF402146B8EEC00A202284EDB3
:102C0000010A96ED000A84ED020A84ED038AE06170
:102C10000848BDEC0A8BBDE8F05F00F0C7BABDEC18
:102C20000A8BBDE8F09F0000AC0000208C2E002035
:102C3000C4260020642F0020704718B5034690F882
:102C40004200202801D0022018BD51B14AB1012014
:102C5000186300205863184600F0CAFE010002D035
:102C600005E0012018BD186B012802D0012108469B
:102C700018BD186802684068009018680C3050E869
:102C8000002F42F0100240E80024002CF5D1EEE7BE
:102C900001F054BF70470000F8B5016804460868A9
:102CA000CA684B6910F00F0F4FF0000559D003F0C0
:102CB000010602F49077374365D0C10705D0D105EE
:102CC00003D5616C41F001016164410705D5D90765
:102CD00003D0616C41F002016164810705D5D90719
:102CE00003D0616C41F004016164010707D502F073
:102CF0002001314303D0616C41F008016164616CD3
:102D000000293AD0800604D5900602D5204600F06E
:102D100088FD20684069616CC0F38010090700D409
:102D200060B3204600F048FD20684069400621D588
:102D30002068143050E8001F21F0400140E80012E4
:102D4000002AF5D1E06BA8B16E490165E06BFEF792
:102D500053FA002811D0E06B016D01B0BDE8F040DE
:102D6000084783060FD593060DD52046BDE8F840E9
:102D700000F057BD2046FFF78DFFF8BD2046FFF756
:102D800089FF6564F8BD266B2023012E7DD1C60620
:102D90007BD5D60679D508684868009048694FF019
:102DA0000206400641D5E16B086840680004000C4B
:102DB000E8D0A28D8242E5D9E085C869B0F5807F70
:102DC0002DD020680C3050E8001F21F4807140E8BD
:102DD0000012002AF5D12068143050E8001F21F0BD
:102DE000010140E80012002AF5D12068143050E8B3
:102DF000001F21F0400140E80012002AF5D184F8BC
:102E00004230256320680C3050E8001F21F010018B
:102E100040E80012002AF5D1E06BFEF7A4F96663E2
:102E2000A08DE18D401A81B22AE0A08DE18D401A7B
:102E300081B2E08D0028A5D00029A3D020680C30F5
:102E400050E8002F22F4907240E80027002FF5D1BF
:102E50002068143050E8002F22F0010240E80027DB
:102E6000002FF5D184F84230256320680C3050E8FB
:102E7000002F22F0100240E80023002BF5D16663FA
:102E80002046FFF705FFF8BDFFE705062BD5150621
:102E900029D594F841002128F5D1A068B0F5805FCC
:102EA00001D12069B0B1206A411C216221680078FB
:102EB0004860E08C401E0004000CE084E3D12068F0
:102EC000C16821F08001C1602068C16841F0400103
:102ED000C160D8E7206A0088C0F308004860206A13
:102EE000801C2062E5E74006CDD55006CBD5CA68E8
:102EF000204622F04002CA6084F8413000F0ADF96B
:102F0000C1E700001337000870B5040004D094F83E
:102F10004100002510B106E0012070BD84F840504A
:102F2000204600F023F8242084F841002068C1687E
:102F300021F40051C160204600F0D4FC20680169F2
:102F400021F4904101612068416921F02A01416129
:102F50002068C16841F40051C1606564202084F894
:102F6000410084F842006563002070BD2DE9F04700
:102F700086B0044614216846FDF730FB7848DFF838
:102F8000DCC12368764A143802260327072100256E
:102F90004FF040094FF4806A63455FD1136843F0F6
:102FA00010031360126802F010020592026842F0EA
:102FB00002020260026802F002020592026842F018
:102FC000010202600068884600F001000590802040
:102FD000CDE9000602AB694683E8A0016148FEF72F
:102FE000A1FA3002CDE9000602AB694683E8A001F0
:102FF0005D48FEF797FA5E4E5C484FF00068C6E900
:10300000035A7561B561F5613562756286E8010341
:1030100057463046FEF7D2F908B1FDF77CFCA663AF
:10302000B463534E5148603678383060C6E9018544
:10303000C6E903577561B561F56135623046756261
:10304000FEF7BCF908B1FDF766FCE6630022114605
:103050002520B463FEF7C2FB252026E0DFF814C16B
:10306000634527D13E4A121F136843F4802313603F
:10307000126802F480220592026842F004020260A3
:103080000068029500F004000590CDE903714FF44B
:103090004060CDE9000669463748FEF743FA002252
:1030A00011462720FEF79AFB2720FEF789FB06B082
:1030B000BDE8F08731498B42F9D1116841F0200118
:1030C0001160116801F020010591016841F0400193
:1030D00001600068029500F0400005904FF48440C4
:1030E000CDE900060820CDE9037069462448FEF7C3
:1030F00019FA1F4E1D48C0361838C6E9035A7561C3
:10310000B561F56135624FF02068756286E80103AC
:1031100057463046FEF752F908B1FDF7FCFBA663AF
:10312000B4631248174E90383060C6E90185C6E98D
:1031300003577561B561F561356230467562FEF71A
:103140003DF908B1FDF7E7FBE66300221146472091
:10315000B463FEF743FB4720A7E7000000100140DF
:10316000443802400004024000000240B8640240BB
:103170003C3000200048004000080240001401409C
:10318000001802405C31002090F84230202B01D022
:103190000220704721B11AB10023036300F028BC5C
:1031A00001207047122101F0C9BC000037B5044668
:1031B00090F84100202801D002203EBD019951B372
:1031C0004AB32162A284E28400206064212384F84F
:1031D0004130A56B114BEB63A56B114B2B64A56BB9
:1031E000104BEB64A36B186520681346A56B021D9A
:1031F0002846FEF74DF921686FF04000086020680E
:10320000143050E8001F41F0800140E80012002A0D
:10321000F5D100203EBD01203EBD00006D37000805
:10322000AF3700082337000890F84130202B01D039
:103230000220704779B172B101628284C284002198
:103240004164212180F841100068C16841F080018B
:10325000C160002070470120704770477047FEE74B
:103260000F4810B50D4901600621416000214FF45F
:1032700040328160C0E903124FF48012426101764E
:1032800041768176C17601774177FDF7D6FD00283A
:1032900003D0BDE81040FDF73EBB10BD0064004008
:1032A0003C2E00200F4810B50D49016006214160F9
:1032B00000214FF440328160C0E903124FF48012C4
:1032C0004261017641768176C17601774177FDF7DB
:1032D000B4FD002803D0BDE81040FDF71CBB10BDB5
:1032E00000680040642E0020154808B5016841F4CC
:1032F000800101600068002200F480000090114607
:103300003920FEF76BFA3920FEF75AFA00221146EF
:103310003A20FEF763FA3A20FEF752FA00221146ED
:103320004520FEF75BFA4520FEF74AFA00221146D7
:103330004620FEF753FABDE808404620FEF740BAA3
:103340003038024070B586B014216846FDF746F962
:1033500022480025016841F002010160016801F086
:1033600002010591016841F040010160016801F02E
:1033700040010591016841F001010160016801F01F
:1033800001010591016841F008010160016801F047
:1033900008010591016841F004010160016801F034
:1033A00004010591016841F08001016000680C4E44
:1033B00000F080004FF480640590002221463046E2
:1033C000FEF798F901200094CDE9010569463046E1
:1033D0000395FEF7A7F806B070BD00003038024034
:1033E000001C024010B586B00024174800940194D8
:1033F0000294039404941349059401605321C0E995
:10340000011440F2E731C0E9031480218161FEF725
:103410000DFD08B1FDF77FFA4FF48050009069462A
:103420000948FEF7B7FD08B1FDF775FA049404A941
:1034300005480594FEF7B2FC002801D0FDF76BFAB1
:1034400006B010BD000C00408C2E00201CB50024DE
:103450000F4800940D49019401605321C0E9011403
:1034600040F2E731C16080218161FEF7DFFC08B1E5
:10347000FDF751FA0094694605480194FEF78EFC69
:10348000002801D0FDF747FA1CBD000000100040E5
:10349000D42E00201CB500240F4800940D4901943F
:1034A00001605321C0E9011440F2E731C16080217D
:1034B0008161FEF7BBFC08B1FDF72DFA0094694667
:1034C00005480194FEF76AFC002801D0FDF723FAB5
:1034D0001CBD0000001400401C2F00200C4810B53B
:1034E0000A4901604FF4E1314160002181600C2202
:1034F000C160C0E904128161C161FFF705FD0028C8
:1035000003D0BDE81040FDF706BA10BD0010014021
:10351000642F00200E4810B50C4901600D49416030
:103520004FF48051816000214FF48062C0E90312A2
:103530000C22C0E90521C161FFF7E6FC002803D099
:10354000BDE81040FDF7E7B910BD0000004800409D
:10355000AC2F0020A08601000C4810B50A4901607C
:103560004FF4E1314160002181600C22C160C0E96B
:1035700004128161C161FFF7C7FC002803D0BDE8D8
:103580001040FDF7C8B910BD00140140F42F002011
:10359000FEE7FEE770477047FEF7B8B802480168DB
:1035A00041F470010160704788ED00E00148FEF7CA
:1035B00060BD00008C2E00200148FEF75ABD0000BF
:1035C000D42E00200148FEF754BD00001C2F00201F
:1035D000F0B50268294D2A4E2A4FDFF8ACC02B4BBC
:1035E0004FF0804EA84209D0704507D0B04205D0B8
:1035F000B84203D0604501D0984203D122F0700454
:103600004A682243A8421BD0704519D0B04217D057
:10361000B84215D0604513D0984211D01C4CA0423E
:103620000ED01C4CA0420BD01B4CA04208D01B4C0F
:10363000A04205D01A4CA04202D01A4CA04203D19D
:1036400022F44074CA6822434C6922F0800222436B
:1036500002608A68C2620A688262A84201D0984207
:1036600001D109690163012141610169C90703D0E1
:10367000016921F001010161F0BD0000000001407D
:103680000004004000080040000C0040000401401D
:103690000040014000440140004801400018004043
:1036A000001C00400020004010B5846842EA03225C
:1036B00024F47F440A432243826010BD826822F0D2
:1036C00070020A4342F007018160704710B5046A36
:1036D000036A23F001030362836923F0F00343EAE2
:1036E000021324F00A020A438361026210BD10B57E
:1036F000036A046A24F010040462846923F0A003BE
:1037000024F4704444EA023243EA01118261016206
:1037100010BD10B5806B0021C185C184FFF7BAFAD6
:1037200010BD70B5846B2068406994F84110C0F3F7
:10373000C0100025212904D118B1E584204600F0ED
:1037400062F82068406994F84210C0F38010222982
:1037500004D118B1E585204600F02EF8606C40F0E9
:10376000100060642046FFF795FA70BD10B5014661
:10377000806B09680968C90516D40021C1840168F5
:10378000143151E8002F22F0800241E80023002B81
:10379000F5D101680C3151E8002F42F0400241E8B8
:1037A0000023002BF5D110BDFFF757FD10BD10B55C
:1037B000806BFFF753FD10BD01680C3151E8002FFD
:1037C00022F4907241E80023002BF5D101681431F6
:1037D00051E8002F22F0010241E80023002BF5D12F
:1037E000016B012909D101680C3151E8002F22F049
:1037F000100241E80023002BF5D1202180F842106F
:1038000000210163704701680C3151E8002F22F05C
:10381000C00241E80023002BF5D1202180F841109F
:10382000704708B590F84210222901D0022008BD47
:1038300081684FF48053994201D1026922B1826AB2
:1038400099421BD049B10AE00268816A5268C2F30A
:1038500008020A80816A891C08E0016971B1016867
:10386000496801F07F011170816A491C8162C18D34
:10387000491E0904090CC18503D01BE00168496891
:10388000F1E70168CA6822F02002CA600168CA68CC
:1038900022F48072CA6001684A6922F001024A611A
:1038A000202180F8421000214163026B012A03D0DD
:1038B000FFF778FC002008BD016301680C3151E876
:1038C000002F22F0100241E80023002BF5D10168FF
:1038D0000A68D20602D50A6849680091818DFFF70F
:1038E000D7F9E7E770B5044600680169E26821F49A
:1038F000405111430161A1682069E2690143606997
:10390000104301432068C26849F20C639A430A439A
:10391000C26020684169A26921F44071114341618C
:1039200031492068884202D03049884202D1FEF7EE
:1039300031F801E0FEF71EF8E26900231921642541
:103940003226B2F5004F626828D0A0FB0101930F28
:103950009200FCF78FFC0146B0FBF5F06FF0180207
:10396000504301EB800006EB0010B0FBF5F000F0D7
:10397000F002B1FBF5F002EB0012B1FBF5F06FF0D5
:103980001803584301EB800006EB0010B0FBF5F084
:1039900000F00F0021681044886070BDA0FB010199
:1039A00092185B41FCF766FC0146B0FBF5F00201A2
:1039B000B1FBF5F06FF01803584301EB800006EB04
:1039C000C000B0FBF5F000F0F80002EB4002B1FBE4
:1039D000F5F0584301EB800006EBC000B0FBF5F0BA
:1039E00000F00700D6E7000000100140001401407D
:1039F00081628285C28500214164222180F84210C3
:103A0000016921B10168CA6842F48072CA60016824
:103A10004A6942F001024A610068C16841F0200130
:103A2000C1600020704700000148FFF735B9000071
:103A3000642F00200148FFF72FB90000AC2F0020B1
:103A40000148FFF729B90000F42F0020FEE700002D
:103A500010B596B00C4602F01BF8022001F0B0FE43
:103A60001E2002F00FF8032001F0B0FE4FF4397170
:103A700014200CB10CA300E00DA3CDE9000101223C
:103A80000DA109A801F02CFD21220CA96846FCF724
:103A900051FD09AC094894E80E0002F06FF816B029
:103AA000BDE8104001F07ABD4D434C3A4F4E000046
:103AB0004D434C3A4F4646006D636C00C4270020CE
:103AC00010B500F069FA0848FDF71BFB0221064813
:103AD000FCF723FF0548FDF714FBBDE81040022169
:103AE0000248FCF71ABF00003C2E0020642E002084
:103AF0003FB587B00023054608200193029300914B
:103B0000CDE9033014468DF814300648FDF781F8EE
:103B1000002805D00AAB224669462846FCF70FFF6D
:103B20000BB030BD3C2E00200123024A2021024868
:103B3000FFF7DEBF5C1A0020642E00200223024A39
:103B400019020248FFF7D4BFAC0000203C2E002031
:103B50000223034A40F2FF110248FFF7C9BF0000E9
:103B6000A40000203C2E002010B50C462DED088B43
:103B7000B0EE408A9FED1DBB9FED1EAB04F03FF9F8
:103B800041EC190B18EE100A04F082FC41EC180B02
:103B90001A4800EBC40451EC190B94ED000B53ECE4
:103BA000102B04F08BFB53EC182B04F07BF941EC49
:103BB000180B84ED009B53EC1B2B04F071FA03D817
:103BC000B0EE4B8AF0EE6B8A53EC1A2B51EC180BCB
:103BD00004F02CF903D8B0EE4A8AF0EE6A8AB0EE0F
:103BE000480AF0EE680ABDEC088B10BD000000002A
:103BF00000C077400000000000C077C040190020DE
:103C00002DE9F041B04C94B0002694F8750698B1B7
:103C10006421AE4801F008FA78B194F875060128DD
:103C20000AD1022001F034FF0021022001F0A4FBA0
:103C300001F0B4FC84F875660120A44DB43D297AE6
:103C400008427CD0A04C94F87506012877D094F8EF
:103C5000740648B364219D4801F0E6F900286ED04F
:103C600094F9740600B3C0EB001000EB400001199A
:103C700001F2C32701F2D3211D226846FCF715FC8F
:103C800039462D2208A8FCF710FC08AF97E80F0072
:103C900001F08EFC94F87406401E40B284F874065D
:103CA000002801DA84F87466874801F00DFF0028C7
:103CB00045D0874C94F9160004F0A1F89FED851BC0
:103CC00053EC112B03F024FE03F0F0FD686704F0C1
:103CD000DFFB9FED821B53EC112B03F0CDFE9FED1C
:103CE000811B53EC112B04F0DDF841EC100B02F0BA
:103CF0005BFC9FED7E1B51EC100B53EC112B04F081
:103D0000D1F89FED7C1B53EC112B04F0CBF803F0A2
:103D1000CDFDA867B4F9060004F071F89FED771B9C
:103D200053EC112B04F0BEF89FED761B53EC112BD6
:103D300004F0B8F803F0BAFD00EE100A00E0C0E0AD
:103D400085ED0E0A02F036FF95ED0E0A03F03CF801
:103D5000022001F09DFE052001F032FD192001F046
:103D600035FD4FF4BE744FF40778CDE902844FF46B
:103D700070770197049495ED130AF0EE000A012282
:103D800070EE200ABCEEC00A60A105A8FCEEE00AB5
:103D900010EE103ACDED000A01F0B4FCBDF82000A1
:103DA000ADF800009DF822008DF8020005AE4648EF
:103DB00096E80E0001F072FE052001F001FD1920C9
:103DC00001F004FD502040F2EE21CDE902104FF445
:103DD000C8660196049095ED140AF3EE0E0A0222CD
:103DE00030EE601A30EE200A4BA105A8BCEEC11AD5
:103DF000BCEEC00A8DED001A10EE103A01F082FC04
:103E0000BDF82000ADF800009DF822008DF80200FA
:103E10000DF1140C2C489CE80E0001F03FFE4149C6
:103E2000A86C884201DA002000E0022001F0C8FC02
:103E30000F2001F0CBFCCDE902840197049495EDAD
:103E4000120A40F20F130322BCEEC00A36A105A8E5
:103E50008DED000A01F056FCBDF82000ADF8000021
:103E60009DF822008DF802000DF1140C16489CE814
:103E70000E0001F013FE232001F0A8FC95ED120ABC
:103E8000DFED2B0A40F2B220CDE9000630EE200A29
:103E90003346002227A1BCEEC00A03A88DED020A1A
:103EA00001F0E0FBBDF81800ADF800009DF81A0025
:103EB0008DF802000DF10C0C03489CE80E0001F097
:103EC000EDFD14B0BDE8F081C4270020B40000204F
:103ED000482600209EEFA7C64B773F400000000019
:103EE000008066404AD8124DFB21094000000000C6
:103EF000008045400000000000000840AA825149AF
:103F00009D80A63F514CDE0033DF913F70697463A2
:103F1000685F496E697400006779726F5F496E6906
:103F2000740000000000914363645F496E6974008F
:103F30000000EB436470310070B5FFF7C1FD00F085
:103F400099FD01F00FFA00F0A1F812489FED100A58
:103F5000002480ED030A80F83840AC30611E6FF019
:103F60000072C0E90812FFF7DFFD0A20FDF7C8FA6A
:103F7000FDF7C6FB06462546FDF7C2FB821B64EB38
:103F800005004FF4FA7300219A1A8141F4D270BDF2
:103F900000005C429019002010B58AB00020012179
:103FA00004900E24CDE90814019002900590CDE90B
:103FB00006010090039069460548FCF729FD1C2086
:103FC0000990694605940348FCF722FD0AB010BD2C
:103FD0003C2E0020642E002030B593B0302168467E
:103FE000FCF7FCFA14210CA8FCF7F8FA1D48002590
:103FF000016841F080510160006800F0805011902C
:104000001948016841F4804101600068022400F40D
:104010008040119001200090000401908001CDE9C2
:10402000064006200890A820CDE9090404200B9042
:104030006846FDF7F1FC08B172B6FEE70CA90F2047
:1040400081E831004FF4A0500F904FF48050109051
:1040500005210CA8FDF7F4FB002801D072B6FEE79D
:1040600013B030BD40380240007000400246B0F945
:104070000000081A4FF0FF3105D4052803DA104478
:10408000407AFF2800D10846704700002DE9F04F24
:10409000FF4F89B000243C72FE4880F8EE420120B8
:1040A00001F0F6FC062001F08BFB012001F08EFBF5
:1040B0004FF4077540F24650CDE900504FF40E73AF
:1040C0000022F5A103A8029501F0CCFABDF8180072
:1040D000ADF800009DF81A008DF8020003AEED481F
:1040E00096E80E0001F0DAFC4FF470766800009458
:1040F000CDE9016033460022E8A103A801F0B2FA3D
:10410000BDF81800ADF800009DF81A008DF8020007
:1041100003ACE04894E80E0001F0C0FC40F2D1107E
:1041200040F2C441CDE9000102904FF42F73002208
:10413000DBA103A801F096FABDF81800ADF8000065
:104140009DF81A008DF8020094E80E00D14801F0A5
:10415000A5FC4FF4C3704FF48C61CDE900010290CF
:104160004FF448730022D0A103A801F07BFABDF8F8
:104170001800ADF800009DF81A008DF8020094E8D0
:104180000E00C44801F08AFC40F23B1040F224418A
:10419000CDE9000102904FF457730022C3A103A898
:1041A00001F060FABDF81800ADF800009DF81A00A3
:1041B0008DF8020094E80E00B64801F06FFC06206E
:1041C00001F0FEFA192001F001FB4FF4BE748220C9
:1041D000CDE90006CDE9025432230122B4A10494B2
:1041E00005A801F08FFABDF82000ADF800009DF899
:1041F00022008DF802000DF11408A64898E80E0080
:1042000001F04CFC0F2001F0E1FA4FF49B7BCDE96B
:104210000254CDE900B640F20F130322A7A105A86E
:10422000049401F06FFABDF82000ADF800009DF88D
:1042300022008DF8020098E80E00964801F02EFC4E
:10424000192001F0C3FA502040F2EE2ACDE902A075
:1042500004904FF4C8684FF4B470CDE9000800230F
:10426000022298A105A801F04DFABDF82000ADF892
:1042700000009DF822008DF802000DF11409854818
:1042800099E80E0001F00AFC232001F09FFA40F2A9
:10429000B22940F22B32CDF80090CDE9018243469D
:1042A00000228BA103A801F0DDF9BDF81800ADF8DC
:1042B00000009DF81A008DF802000DF10C0C7548F5
:1042C0009CE80E0001F0EAFB082001F079FA1920C1
:1042D00001F07CFA3320CDE90006CDE90254322307
:1042E00000227CA1049405A801F00CFABDF820007E
:1042F000ADF800009DF822008DF802000DF1140CBD
:1043000064489CE80E0001F0C9FB0F2001F05EFA42
:104310003D20CDE90006CDE902543C23012270A1E5
:10432000049405A801F0EEF9BDF82000ADF80000F6
:104330009DF822008DF802000DF1140C55489CE800
:104340000E0001F0ABFB192001F040FA4720CDE947
:104350000006CDE902544623022264A1049405A874
:1043600001F0D0F9BDF82000ADF800009DF8220062
:104370008DF802000DF1140C46489CE80E0001F087
:104380008DFB0F2001F022FA5120CDE90006CDE986
:1043900002545023032258A1049405A801F0B2F955
:1043A000BDF82000ADF800009DF822008DF8020055
:1043B0000DF1140C37489CE80E0001F06FFB19203A
:1043C00001F004FA5B20CDE90006CDE902545A233E
:1043D00004224CA1049405A801F094F9BDF8200032
:1043E000ADF800009DF822008DF802000DF1140CCC
:1043F00028489CE80E0001F051FB0F2001F0E6F97F
:104400006520CDE90006CDE902546423052240A1D0
:10441000049405A801F076F9BDF82000ADF800007D
:104420009DF822008DF802000DF1140C19489CE84B
:104430000E0001F033FB192001F0C8F96F20CDE91F
:104440000006CDE902546E23062234A1049405A887
:1044500001F058F9BDF82000ADF800009DF82200E9
:104460008DF802000DF1140C0A489CE80E0001F0D2
:1044700015FB0F2001F0AAF97920CDE90006CDE95E
:1044800002547823072228A1049405A852E00000D2
:1044900000000020C4270020570000004800000052
:1044A00068696768000000006D6964006C6F7700E0
:1044B00070697463685F496E6974000063645F4982
:1044C0006E6974006779726F5F496E6974000000ED
:1044D00064703100616E676C655F313330000000DD
:1044E000616E676C655F313230000000616E676C31
:1044F000655F313130000000616E676C655F31309F
:1045000030000000616E676C655F393000000000AC
:10451000616E676C655F383000000000616E676C2B
:10452000655F363000000000616E676C655F353096
:104530000000000001F0E6F8BDF82000ADF8000032
:104540009DF822008DF802000DF1140CAC489CE897
:104550000E0001F0A3FA192001F038F9CDE9025458
:10456000832082230822AFF24001CDE900060494A3
:1045700005A801F0C7F8BDF82000ADF800009DF8CF
:1045800022008DF8020005AC9D4894E80E0001F071
:1045900085FA082001F014F90A2001F073FA0220CC
:1045A00001F014F940F2023040F2BA44CDE9004083
:1045B0008223002293A102A800F02EFFBDF8140070
:1045C000ADF800009DF816008DF8020002AE8C4890
:1045D00096E80E0001F062FA4FF4257140F2F640C1
:1045E000CDE900016E23012289A102A800F014FF89
:1045F000BDF81400ADF800009DF816008DF802001B
:1046000096E80E007E4801F049FA40F21450CDE9D8
:1046100000055A23022281A102A800F0FDFEBDF888
:104620001400ADF800009DF816008DF8020096E821
:104630000E00734801F032FA4FF4D2714FF4A060CB
:10464000CDE900014623032277A102A800F0E4FE91
:10465000BDF81400ADF800009DF816008DF80200BA
:1046600096E80E00664801F019FACDE9004B3223B6
:1046700004226DA102A800F0CFFEBDF81400ADF831
:1046800000009DF816008DF8020096E80E005C48C8
:1046900001F004FA082001F093F8052001F096F8E3
:1046A00040F25320CDE9005040F23A23022261A1AA
:1046B00003A8029500F0D6FFBDF81800ADF8000081
:1046C0009DF81A008DF8020003AC4D4894E80E00E6
:1046D00001F0E4F9082001F073F8052001F076F804
:1046E0004FF44871009140F21132CDE9019240F24D
:1046F000A123022250A103A800F0B4FFBDF81800C6
:10470000ADF800009DF81A008DF8020094E80E0044
:104710003B4801F0C3F9082001F052F8012001F0F4
:1047200055F84321CDE900A14346022243A102A846
:1047300001F0D2F8BDF81400ADF800009DF81600A5
:104740008DF8020002AC2E4894E80E0001F0A6F9A4
:10475000082001F035F8012001F038F84FF44B72D1
:1047600040F2546140F2B1208DE8070040F22C6322
:10477000022234A103A801F035F9BDF81800ADF804
:1047800000009DF81A008DF8020003AC1C4894E864
:104790000E0001F083F997F9060003F030FB9FED5E
:1047A0002A1B53EC112B03F07DFB9FED291B53ECCF
:1047B000112B03F0ADF89FED281B53EC112B03F0E8
:1047C0007DFD03F073F800EE100A012000F052F8AE
:1047D00097ED100A012000F095F8214C0120617F2F
:1047E000FFF736F9A17F012000F00CF994F82010B2
:1047F000012000F0CFF80120387209B0BDE8F08F39
:10480000C427002077726974655F3133300000007F
:1048100077726974655F31313000000077726974B6
:10482000655F39300000000077726974655F37306A
:1048300000000000636431006364320078746C5FD0
:10484000696E000064703900B81E85EB51B8BE3F38
:10485000000000000000F03F9A9999999999C93F8A
:104860004826002000EB42000B0A00F8023D417090
:104870007047000000B52DED028B99B0B0EE408A74
:1048800001F006F9022000F09BFF1E2001F0FAF86B
:10489000032000F09BFF9FED160A0020159028EEE4
:1048A000000A1690179013A1BDEEC00A15A810EECD
:1048B000102AFBF757FD4FF452711420CDE9000187
:1048C00015AB01220DA109A800F00AFE21220CA9B6
:1048D0006846FBF72FFE0DF1240C09489CE80E00FA
:1048E00001F04CF900F05AFE19B0BDEC028B00BD8E
:1048F00000409C4558544C3A256400006779760086
:10490000C427002000B52DED028B99B0B0EE408A8F
:1049100001F0BEF8022000F053FF1E2001F0B2F8B3
:10492000032000F053FF9FED160A0020159028EE9B
:10493000000A1690179013A1BDEEC00A15A810EE3C
:10494000102AFBF70FFD40F216311420CDE90001CB
:1049500015AB01220DA109A800F0C2FD21220CA96E
:104960006846FBF7E7FD0DF1240C09489CE80E00B2
:1049700001F004F900F012FE19B0BDEC028B00BD8D
:1049800000007A4559443A256400000072706D00B9
:10499000C427002010B596B00C4601F079F802202B
:1049A00000F00EFF1E2001F06DF8032000F00EFF56
:1049B0004FF4207114200CB10CA300E00DA3CDE93D
:1049C000000101220DA109A800F08AFD21220CA9F5
:1049D0006846FBF7AFFD09AC094894E80E0001F00A
:1049E000CDF816B0BDE8104000F0D8BD42503A4FA7
:1049F0004E00000042503A4F4646000062700000F0
:104A0000C427002010B596B00C4601F041F80220F2
:104A100000F0D6FE1E2001F035F8032000F0D6FE8F
:104A200040F2B22114200CB10CA300E00DA3CDE99B
:104A3000000101220DA109A800F052FD21220CA9BC
:104A40006846FBF777FD09AC094894E80E0001F0D1
:104A500095F816B0BDE8104000F0A0BD434D3A4FA8
:104A60004E000000434D3A4F46460000636D000083
:104A7000C4270020122202490248FEF7DEB80000D7
:104A80002E190020AC2F0020F8B5294D40F2946378
:104A90002888984201D8012100E000214FF4B67621
:104AA000B04201D3012000E000206A8881439A428D
:104AB00001D8012000E00020B24201D3012200E031
:104AC00000229043AA8808439A4201D8012100E0BD
:104AD0000021B24201D3012200E0002291430143B0
:104AE000E888984201D8012400E00024B04201D3B4
:104AF000012000E0002084430C4332210D4800F0E7
:104B000086FA2043287511D00B48094902681631EE
:104B10001368DB431B0707D4136852680092122204
:104B2000FEF78BF8287D08B10120F8BD0020F8BD04
:104B3000181900209C000020AC2F002000B50D4A61
:104B400087B090420DD112290BD1684600F018F8B9
:104B5000162269460848FBF7A8FCFCF7D1FD074977
:104B60000860054907B01222163102485DF804EBCF
:104B7000FEF70ABBAC2F0020181900209C00002073
:104B800010B586B0044618216846FBF727FD214979
:104B90000888C0F30A00ADF800004878C208887899
:104BA00042EA4012C2F30A02ADF80220CA78800934
:104BB00040EA8202087942EA8022C2F30A02ADF892
:104BC00004204A79400840EAC210C0F30A00ADF858
:104BD000060090098DF80800C2F301108DF8090055
:104BE000C888ADF80A000889ADF80C004889ADF80E
:104BF0000E00087B8DF81000487B8DF81100C889E5
:104C0000ADF81200162269462046FBF74EFC06B0AE
:104C100010BD00002E19002010B504462DED088BA4
:104C2000B0EE408A80ED008A31B1207F68B1012862
:104C300053D0032850D18CE084ED018A9FED5F0AA8
:104C400080ED020ABDEC088B10BDD4ED018A94ED15
:104C500002BA94ED050A10EE100A4BEE008AC4ED7C
:104C6000018A03F015FCD4ED04BA78EEC80A41ECD1
:104C7000190B2BEEAB0A20EE200A10EE100A03F0FF
:104C800007FC41EC180B1BEE100A03F001FC41EC91
:104C90001A0B1BEE900A03F0FBFB9FED491B53EC34
:104CA000112B03F0FFF853EC1A2B03F0FBF853EC35
:104CB000182B03F003FB53EC192B03F0F3F841EC32
:104CC000180B1BEE100A03F0E3FB53EC182B02F059
:104CD0001FFE02F0EBFDA06055E0206903F0D8FB59
:104CE0009FED391B53EC112B03F0DCF841EC100B5A
:104CF00053EC102B9FED360B51EC100B02F0BCFE69
:104D000002F0D4FD00EE900AC4ED060A94ED020A0A
:104D1000B0EEC01A21EE001A94ED010A30EE480AF6
:104D200001EE200A00F062F900EE100AD4ED040A48
:104D3000D4ED011AB8EEC00A20EEC01AD4ED020A72
:104D400094ED050A40EE801A41EE000AC4ED011A06
:104D500017E094ED010AD4ED051A94ED041A30EE33
:104D6000480AD4ED020A00F05DF8D4ED011AD4ED42
:104D7000020A94ED051A40EE811A40EE010AC4EDD4
:104D8000011AC4ED020A94ED030AB5EEC00AF1EE71
:104D900010FA3FF457AFD4ED020AF4EEC00AF1EE78
:104DA00010FA07DCB1EE400AF4EEC00AF1EE10FA98
:104DB000BFF448AF84ED020A44E7000000000000A1
:104DC00000000000000000C00000000000000040E3
:104DD000000000000000F03FC0ED030A80ED040A6F
:104DE00080ED051A01777047B0EE401A10B531EE2C
:104DF000200A00F0FBF8014631EE600A00F0F6F8F8
:104E0000081A02F0FCFF9FED051B53EC112B03F079
:104E100049F802F04BFD00EE100A10BD0000000042
:104E20000000E03F70B561EEA00A2DED068BB0EEFC
:104E3000419A29EE211A664D30EE200A05F18004D0
:104E400061EE219AC5ED1F9AC4ED000A84ED010AB6
:104E5000B0EEC00A10EE100A03F01AFB9FED5D1BC6
:104E600053EC112B03F01EF841EC180B19EE900ACD
:104E700003F00EFB53EC182B02F04AFD41EC180B2B
:104E800019EE900A03F004FB53EC182B03F00AF818
:104E900002F00CFD00EE100A02F05EF884ED020A4A
:104EA00094ED010A00F0A2F800EE100AD4ED020A17
:104EB000D5ED1F9AB8EEC00A70EEE90A20EE200A7E
:104EC00010EE100A03F0E4FA9FED440B53EC102BA4
:104ED00002F0E8FF41EC180B206803F0D9FA53EC1C
:104EE000182B02F015FD02F0E1FCE060F0EE690A1B
:104EF00094ED010AFFF778FF10EE100A03F0C8FAEC
:104F00009FED38AB53EC1A2B03F000F941EC180B72
:104F1000E06803F0BDFA53EC182B02F0C3FF41EC3C
:104F2000180BD5ED1F0A94ED010AFFF75DFFD4ECD5
:104F3000020A70EE810A20EE200A10EE100A03F039
:104F4000A7FA53EC182B02F0E3FC02F0AFFC00EEE2
:104F5000100A84ED040AD5ED1F0AFFF745FF10EE95
:104F6000100A03F095FA53EC1A2B03F0CFF841EC3A
:104F7000180B94ED040A00F039F800EE100AB8EEB0
:104F8000C00A20EE090A10EE100A03F081FA53EC71
:104F9000182B02F087FF94ED040AD5ED1F0A41ECAF
:104FA000180B80EE201A29EE419AFFF71DFF29EE1B
:104FB000000A10EE100A03F06BFA53EC182B03F002
:104FC0007DF902F073FCBDEC068B00EE100A70BD9B
:104FD0000000002000000000000020400000000051
:104FE0000000E03F000000000000F03FB5EEC00A06
:104FF000F1EE10FA01DD01207047B5EEC00AF1EEC6
:1050000010FA02D24FF0FF3070470020704770B5A1
:105010000D460446FCF774FB2268801AA84201D3AF
:10502000012070BD002070BD70B50C460546FCF730
:1050300067FBB0FBF4F104FB110008B1012100E0B3
:105040000021281D00F0FAFDA879002800D00120D9
:1050500070BD0FB420222DED060B10B504462DEDCA
:10506000068BB0EE62AAB0EE428AF0EE61AAB0EE14
:10507000419AF0EE609AF0EE408A0FA9FBF75AFAD7
:10508000C4ED11AA84ED128A84ED19AA04F1340149
:105090000020C1EC038A84F84D0084F84C0084EDB4
:1050A000058A2046BDEC068B10BC5DF82CFB000089
:1050B00010B504462DED088B88B0F0EE618A9FEDA7
:1050C000949A002000900190029003900490059023
:1050D000069001460790684604AA00EB810383ED21
:1050E000000A02EB8103491CC9B2C3ED000A04297E
:1050F000F3D3B1EE418AB0EE490A01F0FCF9DDEDDF
:10510000040A48EE400AB0EE490ACDED040A01F067
:10511000F2F9DDED050A48EE400AB0EE490ACDEDA0
:10512000050A01F0E8F9DDED060A48EE000AB0EEE6
:10513000490ACDED060A01F0DEF9F0EE400A9DEDD8
:10514000070A08EE200A8DED070AB0EE490A01F0C1
:10515000D4F9DDED000A48EE400AB0EE490ACDED83
:10516000000A01F0CAF9DDED010A48EE000AB0EECE
:10517000490ACDED010A01F0C0F9DDED020A48EE61
:10518000000AB0EE490ACDED020A01F0B6F9DDEDF4
:10519000030A48EE400ACDED030A9DED040ADDED59
:1051A000000A20EE000A00EEA00A01F0AAF99FED25
:1051B000598AC0EE080A20EEA80A84ED000A9DED87
:1051C000050ADDED010A20EE000A00EEA00A01F05A
:1051D00098F9C0EE080A20EEA80A84ED010A9DEDB8
:1051E000060ADDED020A20EE000A00EEA00A01F038
:1051F00088F9C0EE080A20EEA80A84ED020A9DEDA7
:10520000070ADDED030A20EE000A00EEA00A01F015
:1052100078F9C0EE080A20EEA80A84ED030ADDED55
:10522000040A9DED000A01F06EF99FED3BBA20EEF5
:105230000B0A10EE100A03F02BF99FED388B53EC9C
:10524000182B02F019FC9FED379B53EC192B02F041
:1052500029FE9FED36AB53EC1A2B02F00DFC02F049
:1052600025FB2061DDED050A9DED010A01F04BF9FA
:1052700020EE0B0A10EE100A03F00AF953EC182B7B
:1052800002F0FAFB53EC192B02F00CFE53EC1A2B34
:1052900002F0F2FB02F00AFB6061DDED060A9DED13
:1052A000020A01F030F920EE0B0A10EE100A03F0AA
:1052B000EFF853EC182B02F0DFFB53EC192B02F044
:1052C000F1FD53EC1A2B02F0D7FB02F0EFFAA061CC
:1052D000DDED070A9DED030A01F015F920EE0B0A3A
:1052E00010EE100A03F0D4F853EC182B02F0C4FBB4
:1052F00053EC192B02F0D6FD53EC1A2B02F0BCFB39
:1053000002F0D4FAE06108B0BDEC088B10BD0000DB
:10531000C3F5483F00002544000034431F85EB518E
:10532000B81E09400000000000FFBF400000000060
:105330000080764010B54FF47A74FCF7E1F9084923
:105340000968401AA04201D3012000E00020044C6B
:105350000C3C207008B900F005F8207810BD000062
:10536000E0000020012202490248FDF70DBF0000C5
:10537000D5000020F42F002030B5A1B00D46044622
:1053800078216846FBF72AF900221E924FF48070BC
:10539000ADF878001E481F920078ADF87A0000F052
:1053A000E3FAADF87C00A5208DF800000820ADF8E8
:1053B000010040F20130ADF80500154880220021BF
:1053C0002C30FBF772F81E98CDF80700BDF87C0072
:1053D000ADF80B000E488DF80D408DF80E50782278
:1053E00069462C30FBF761F8094805212C3000F0A4
:1053F00003FCBDF80110064809312C3000F00AFC0E
:10540000034980222C310348FDF70EFF21B030BD47
:10541000AC320020F42F00202DE9FF410024DDE90B
:105420000A5600940194029403940C88ADF800404D
:1054300089788DF8021029499DF803400F7B67F3A6
:10544000020424F0380430348DF80340BDF80340E2
:1054500062F38914ADF803400A799DF8044062F3C1
:1054600085048DF804400A88BDF8074062F30904FA
:10547000ADF807400989BDF8042061F38E12BDF82C
:105480000810ADF8042065F38C01ADF80810BDF8E4
:10549000091066F34F11ADF80910BDF80B1041EA81
:1054A000030262F30901ADF80B10BDF80C108A0875
:1054B00042EA932262F38C01ADF80C10BDF80D1096
:1054C0004A0942EA535262F34F11ADF80D100F2210
:1054D0006946FAF7EAFFBDE8FF810000E800002016
:1054E0002DE9F0438DB00C46DDE91456804699460F
:1054F000174630216846FBF771F82088ADF80000A8
:10550000A0788DF8020024489DF80310027B62F316
:10551000020141F038018DF80310BDF8031067F364
:105520008911ADF8031001799DF8042061F385021B
:105530008DF804200188BDF8072061F30902ADF859
:1055400007200089BDF8041060F38E11ADF8041037
:105550004846FAF78BFFBDF8051060F3CF11ADF8A0
:105560000510BDF80800CA0965F38C00ADF8080005
:10557000BDF80900494666F34F10ADF809000DF17A
:105580000F00FAF792FF2D2269464046FAF78DFF89
:105590000DB0BDE8F0830000E800002003490120C1
:1055A000C86088600860486070470000E80000201C
:1055B0000FB4782100B5A1B06846FBF70FF80020C2
:1055C0001E901F904FF48870ADF878002348007843
:1055D000ADF87A0000F0C8F9ADF87C00A5208DF890
:1055E00000003320ADF8010040F20130ADF80500B5
:1055F0001A48802200212C30FAF757FF1E98CDF868
:105600000700BDF87C00ADF80B000F2222A90DF1B8
:105610000D00FAF74AFFBDF88D000DF19701C209A0
:1056200007A8FAF742FF0D48782269462C30FAF7AE
:105630003CFF0A4805212C3000F0DEFABDF80110CD
:10564000064809312C3000F0E5FA044980222C315B
:105650000348FDF7E9FD21B05DF814FBAC320020F2
:10566000F42F00202DE9FF410AAC94E8E00000246B
:1056700000940194029403940C88ADF8004089785A
:105680008DF802101E499DF8034091F80CC06CF390
:10569000020424F038048DF80340BDF8034062F39F
:1056A0008914ADF803400A799DF8044062F385043B
:1056B0008DF804400988BDF8072061F30902ADF8B0
:1056C0000720BDF808100F2263F38C01ADF8081015
:1056D000BDF8091065F34F11ADF80910BDF80C10B5
:1056E00066F38C01ADF80C10BDF80D1067F34F1187
:1056F000ADF80D106946FAF7D8FEBDE8FF8100004D
:10570000E80000202DE9FF4781460CA890E8F01042
:10571000002000900190029003900888ADF80000EE
:1057200088788DF8020025489DF8031090F80C80C9
:1057300068F3020121F0380120318DF80310BDF823
:10574000031062F38911ADF8031001799DF804206C
:1057500061F385028DF804200088BDF807100F2240
:1057600060F30901ADF80710BDF80400694663F362
:105770008E10ADF80400BDF8050064F3CF10ADF84D
:105780000500BDF8080065F38C00ADF80800BDF811
:10579000090066F34F10ADF80900BDF80C0067F37F
:1057A0008C00ADF80C00BDF80D006CF34F10ADF897
:1057B0000D004846FAF779FEBDE8FF87E8000020B3
:1057C0000149486070470000E80000200149086076
:1057D00070470000E80000202DE9F041A0B00E461F
:1057E000074678216846FAF7F9FE00201E901F90C0
:1057F000012E06D0022E07D0052E1DD0072E07D170
:105800001DE040F2011001E04FF48170ADF8780026
:105810002F480078ADF87A0000F0A6F8ADF87C00CB
:10582000A5208DF80000012E0CD0022E0CD0052EE4
:1058300022D0072E0BD121E040F20310E6E74FF40F
:105840008270E3E7152000E02420ADF8010040F26B
:105850000130ADF805001E48802200212C30FAF7F7
:1058600024FE1E98CDF80700BDF87C000625ADF893
:105870000B000024E8460EE05120E6E76F20E4E745
:10588000C4EB0410C11908EB05000F22C01DFAF784
:105890000CFE641C0F35B442F2DB0D4878226946D9
:1058A0002C30FAF702FE0A4805212C3000F0A4F94A
:1058B000BDF80110064809312C3000F0ABF904495D
:1058C00080222C310348FDF771FC20B0BDE8F08147
:1058D000AC320020F42F00202DE9FF410024DDE947
:1058E0000A5600940194029403940C88ADF8004089
:1058F00089788DF802101B499DF803400F7B67F3F0
:10590000020424F0380410348DF80340BDF803403D
:1059100062F38914ADF803400A799DF8044062F3FC
:1059200085048DF804400988BDF8072061F3090259
:10593000ADF80720BDF808100F2263F38C01ADF815
:105940000810BDF8091065F34F11ADF80910BDF846
:105950000B1066F30901ADF80B106946FAF7A5FDC7
:10596000BDE8FF81E80000201D4900200978642976
:1059700019D2072917D2DFE801F01604070A0D1023
:10598000130040F2011070474FF48170704740F2ED
:10599000031070474FF48270704740F20510704753
:1059A0004FF4837070476429FCD965390629F9D210
:1059B000DFE801F00306090C0F1240F26510704792
:1059C0004FF4B370704740F2671070474FF4B470F3
:1059D000704740F2691070474FF4B570704700008F
:1059E000AC3200202DE9FF410AAC94E8E00000242D
:1059F00000940194029403940C88ADF800408978D7
:105A00008DF802101E499DF8034091F80CC06CF30C
:105A1000020424F0380408348DF80340BDF8034034
:105A200062F38914ADF803400A799DF8044062F3EB
:105A300085048DF804400988BDF8072061F3090248
:105A4000ADF80720BDF808100F2263F38C01ADF804
:105A50000810BDF8091065F34F11ADF80910BDF835
:105A60000C1066F38C01ADF80C10BDF80D1067F347
:105A70004F11ADF80D106946FAF717FDBDE8FF812B
:105A8000E80000200149886070470000E80000201D
:105A90000149C86070470000E80000200FB410B54D
:105AA000044690F9EE0231280BDAC0EB00102044D6
:105AB0000F2203A9FAF7F9FC94F8EE02401C84F8CF
:105AC000EE0210BC5DF814FB70B5044690F8750644
:105AD000012802D094F8740608B1002070BD94F833
