:020000040800F2
:10000000F034002035020008873700085334000818
:10001000853700080D080008793D00080000000041
:100020000000000000000000000000008B37000806
:100030001509000800000000893700088D37000806
:100040004F0200084F0200084F0200084F0200084C
:100050004F0200084F0200084F0200084F0200083C
:100060004F0200084F0200084F0200084F0200082C
:100070004F0200084F0200084F0200084F0200081C
:100080004F0200084F0200084F0200084F0200080C
:10009000110800081D0800084F0200084F02000860
:1000A0004F0200084F0200084F0200084F020008EC
:1000B0004F0200084F0200084F0200084F020008DC
:1000C0004F0200084F0200084F0200084F020008CC
:1000D0004F020008553D00084F020008613D00082E
:1000E0004F0200084F0200084F0200084F020008AC
:1000F0004F0200084F0200084F0200084F0200089C
:100100004F0200084F020008A13700084F02000804
:100110004F0200084F020008AD370008B937000849
:100120004F020008410800084D0800084F0200086F
:100130004F0200084F0200084F0200084F0200085B
:1001400029080008350800084F0200084F0200087F
:100150004F02000859080008650800086D3D0008B6
:100160004F0200084F0200084F0200084F0200082B
:100170004F0200084F0200084F0200080000000074
:100180004F0200084F02000800F002F800F043F8A8
:100190000AA090E8000C82448344AAF10107DA45E2
:1001A00001D100F038F8AFF2090EBAE80F0013F0F1
:1001B000010F18BFFB1A43F0010318479C9400007D
:1001C000BC940000103A24BF78C878C1FAD852070E
:1001D00024BF30C830C144BF04680C6070470000C1
:1001E0000023002400250026103A28BF78C1FBD840
:1001F000520728BF30C148BF0B607047642900F028
:10020000F980002070471FB508F031FD00F010FAAA
:100210001FBD10B510BD00F0A7FA1146FFF7F3FFA0
:1002200007F0D0FD00F0C5FA03B4FFF7F2FF03BCFE
:1002300000F0C8FA0948804709480047FEE7FEE792
:10024000FEE7FEE7FEE7FEE7FEE7FEE7FEE7FEE786
:1002500004480549054A064B7047000091370008DD
:1002600089010008F02E0020F0340020F03000203A
:10027000F030002053EA020C00F069802DE9F04BC9
:100280004FF00006002B1FBFB3FA83F503FA05F405
:1002900024FA05F65E4012BF1643B2FA82F502FA5E
:1002A00005F4C5F120051EBF22FA05FC44EA0C0442
:1002B000203556EA044C4FEA144418BF641C4FF032
:1002C00000084FF00009904271EB030C39D300296C
:1002D00019BFB1FA81F701FA07F6B0FA80F700FA10
:1002E00007F6C7F120071EBF20FA07FC46EA0C06F6
:1002F0002037B6FBF4FCA7EB0507103F07F01F0BF8
:10030000CBF120060CFA0BFB2CFA06F644BFB346E1
:100310000026202FA4BF5E464FF0000B5BEA060CC0
:1003200008BF4FF0010B19EB0B09ABFB027C48EB4C
:100330000608C01B06FB02CC0BFB03CC71EB0C01C7
:10034000C1E70B46024641464846BDE8F08B13B56F
:100350004FF000004FF00001AFF30080BDE81C40FB
:10036000704700000FB41CB5074B06AA7B446946D2
:100370000090059800F0D7F90020694600F0E6F9F2
:100380001CBC5DF814FB0000DD0300002DE9F0410A
:100390000E460446002020622046E168884730B3BC
:1003A000252805D0D4E901219047206A401CF2E7B6
:1003B000E168204600278847050018D0A5F14100D4
:1003C000192802D820354FF40067324629462046C6
:1003D0002760FFF713FF40B1012804D0F61D26F077
:1003E00007060836D8E7361DD6E72846DAE7206A3A
:1003F000BDE8F0812DE9F04106460024106875291A
:10040000314616A510D0AFF30080002802DA404232
:1004100013A507E031688A0701D512A502E0490754
:1004200004D511A5012401E0AFF3008000210A22C8
:1004300006F1240709E0B0FBF2FCB0FBF2F302FB8B
:100440001C00303078541846491C0028F3D123464C
:100450002A463046BDE8F04100F007B90000000030
:100460002D0000002B0000002000000010B5431CF0
:1004700002E010F8011B71B18107FAD14FF001328F
:1004800002C88C1A8C4314EAC211F9D0C01A0A06A9
:1004900003D0C01E10BDC01A10BD0A0401D0801EBA
:1004A00010BD0902FCD0401E10BD032A40F230806E
:1004B00010F0030C00F0158011F8013BBCF1020FA5
:1004C000624498BF11F801CB00F8013B38BF11F826
:1004D000013BA2F1040298BF00F801CB38BF00F83D
:1004E000013B11F0030300F02580083AC0F00880BA
:1004F00051F8043B083A51F804CBA0E80810F5E79E
:10050000121D5CBF51F8043B40F8043BAFF3008080
:10051000D20724BF11F8013B11F801CB48BF11F8F5
:10052000012B24BF00F8013B00F801CB48BF00F8C5
:10053000012B704710B5203AC0F00B80B1E818507D
:10054000203AA0E81850B1E81850A0E81850BFF4BD
:10055000F5AF5FEA027C24BFB1E81850A0E818505C
:1005600044BF18C918C0BDE810405FEA827C24BFB0
:1005700051F8043B40F8043B08BF7047D20728BF3E
:1005800031F8023B48BF11F8012B28BF20F8023B8D
:1005900048BF00F8012B70474FF000020429C0F05B
:1005A000128010F0030C00F01B80CCF1040CBCF1A5
:1005B000020F18BF00F8012BA8BF20F8022BA1EBF7
:1005C0000C0100F00DB85FEAC17C24BF00F8012BDC
:1005D00000F8012B48BF00F8012B70474FF00002D4
:1005E00000B5134694469646203922BFA0E80C5029
:1005F000A0E80C50B1F12001BFF4F7AF090728BF04
:10060000A0E80C5048BF0CC05DF804EB890028BF7F
:1006100040F8042B08BF704748BF20F8022B11F0A8
:10062000804F18BF00F8012B704770477047704724
:1006300070B5064C7C44064D7D4403E020682044A0
:100640008047241DAC42F9D170BD000040900000ED
:100650004090000010B500F07FF8006810BD10B5A4
:10066000044600F079F8046010BD2DE9F0470D460E
:1006700099469246044600F124080168880604D58C
:10068000E06921F01001216000E00120A84201DDB5
:10069000471B00E00027A1697A1902EB0900081A3C
:1006A000A0612078C00602D42046AFF30080002667
:1006B00008E0D4E901211AF806009047206A401C9E
:1006C000761C20624E45F4DB2078C0060AD5204611
:1006D000AFF3008006E0D4E9012130209047206A82
:1006E000401C2062381EA7F10107F4DC07E0D4E9C2
:1006F000012118F805009047206A401C2062281E3E
:10070000A5F10105F3DC2046AFF300802078000658
:1007100002D50220BDE8F0870120FBE701694A1CF1
:1007200002610878704700B58FB0CDE90131002132
:10073000059105497944CDE9031011466846FFF754
:1007400025FE0FB000BD0000E5FFFFFF0A6802F8BC
:10075000010B0A6070470000004870478C2E002093
:10076000004870478C2E00207546FFF7F9FFAE4613
:1007700005006946534620F00700854618B020B5AD
:10078000FFF766FDBDE820404FF000064FF0000780
:100790004FF000084FF0000B21F00701AC46ACE829
:1007A000C009ACE8C009ACE8C009ACE8C0098D4696
:1007B000704710B50446AFF300802046BDE81040F6
:1007C000FFF732BD01491820ABBEFEE7260002004C
:1007D0007047000010B504464FF42A720349FFF732
:1007E000A9FE2046BDE8104005F0F0BE788D000857
:1007F00010B504464FF42A720349FFF79BFE2046CA
:10080000BDE8104005F0E2BE20900008FEE70000C1
:10081000014800F0FEB900003C290020014800F02A
:10082000F8B900003C290020014800F0F2B90000AE
:1008300064290020014800F0ECB900006429002080
:10084000014800F0D5BC00005C2C0020014800F0FD
:10085000CFBC00009C2B0020014800F0C9BC000068
:10086000FC2B0020014800F0C3BC00003C2B002002
:1008700001681823CAB2103AB2FBF3F2054B6FF3CA
:100880000901032A9B5CC36500D9091D81650846DF
:1008900070470000C892000810B5014600208B691F
:1008A0008A6A4FF0C07453B1B3F5005F15D072B1CE
:1008B000012A0CD0022A0AD0032A09D104E01AB175
:1008C000012A06D0022A03D1C96AC90100D5012034
:1008D00010BDC96AA142FAD010BD002AF7D0012A82
:1008E000F2D0022AF3D0032AF3D010BD30B5046849
:1008F000256825F480252560046863608368402BA3
:10090000036803D099600068C26030BD9A600068D7
:10091000C16030BD704772B6FEE790F82020012A12
:1009200007D0022A05D0416A41F4802141620120AA
:100930007047006842690A43426100207047F0B581
:1009400090F820500468A468012D05D0022D03D032
:10095000416A41F4802157E014F0406F01D1E50075
:100960004FD5C4F301640125A5401D608B684FF489
:10097000C0759BB1CE6833434E6843EAC603066830
:1009800005EB0417F3514FF4C273076803EB04132C
:100990000E69FE50097D012905D009E00E88CB685B
:1009A00043EA4653EBE70168CE5846F48076CE50D2
:1009B0001179D379567941EA036193791B0443EAAB
:1009C000062319434FF4C676036806EB04169951C3
:1009D0001178D37841EA0361937852781B0443EA93
:1009E000022211434FF4C473026803EB0413D15085
:1009F000006805EB0411425842F001024250002009
:100A0000F0BD416A41F4001141620120F0BD0000D7
:100A100010B590F82020012A07D0022A05D0416A9B
:100A200041F480214162012010BD3B48D0F80022F2
:100A300042F00102C0F80022D0F8002222F47C52D9
:100A4000C0F80022D0F800224B6A42EA0322C0F824
:100A500000220A7D02F01F0301229A40D0F81C32C6
:100A60009343C0F81C32CB69B3B9D0F80C3293432E
:100A7000C0F80C328C894B6864F31F434C6900EB5F
:100A8000C404C4F840320C890B6864F31F434C69FA
:100A900000EBC404C4F84432CB69012B16D1D0F862
:100AA0000C321343C0F80C320C884B6864F31F43BC
:100AB0004C6900EBC404C4F840320C89CB6864F381
:100AC0001F434C6900EBC404C4F844328B69002B0B
:100AD000D0F804320ED01343C0F804320B69002B57
:100AE000D0F8143208D01343C0F81432096A01292F
:100AF00004D008E09343EFE79343F5E7D0F81C12E6
:100B00001143C0F81C12D0F8001221F00101C0F806
:100B10000012002010BD000000640040704770B556
:100B200090F82040012C05D0022C03D0416A41F4FA
:100B3000802128E0046809B32469A40720D04FF479
:100B4000D874056804EB01142D5915F0040595605F
:100B500005682D591AD0ED08556005682C5904F028
:100B60000204D4604FF4DA74056804EB01142E59C2
:100B700006F00F06082E0CD308250DE0E468DCE72C
:100B8000416A41F400114162012070BD6D0D156094
:100B9000E3E72D5905F00F05156105682D59C5F3DB
:100BA0000725956105682C59240C54614FF4DC72BB
:100BB000046802EB0112A4581C700468A458240AAB
:100BC0005C700468A458240C9C700468A258120E2F
:100BD000DA704FF4DE72046802EB0112A4581C7143
:100BE0000468A458240A5C710468A458240C9C71FD
:100BF0000468A258120EDA71006829B1016941F047
:100C000020010161002070BDC16841F02001C16078
:100C1000F8E72DE9F05F0546006800244669D0F842
:100C200004908768D0F80CB0D0F810A0D0F81880E5
:100C3000F10748D0F90714D001218160B80703D526
:100C4000284600F074FA0CE0780702D54FF40064EF
:100C500007E0380702D54FF4805402E0284600F040
:100C600065FAF80516D529684FF480708860B805D4
:100C700003D5284600F05DFA0CE0780502D544F46F
:100C8000005407E0380502D544F4804402E02846C9
:100C900000F04EFAF80316D529684FF480308860CA
:100CA000B80303D5284600F046FA0CE0780302D5D5
:100CB00044F4004407E0380302D544F4803402E0F1
:100CC000284600F037FA300707D55FEACB6004D535
:100CD0002968102044F40074C86070074FF00807BA
:100CE00007D55FEA0B7004D52868C760284600F076
:100CF000A7F9B00706D52868C068800702D0284643
:100D000000F0A0F9700607D55FEACA6004D529682B
:100D1000102044F480640861B00607D55FEA0A70C9
:100D200004D528680761284600F0D2F9F00606D5F8
:100D300028680069800702D0284600F0CAF9B0038D
:100D400008D55FEAC96005D52968102048602846A3
:100D500000F0C0F9F00307D55FEA097004D52868F0
:100D60004760284600F0E8F9300446D55FEA49704C
:100D700040D5F00504D55FEAC87001D044F0010405
:100D8000B00504D55FEA887001D544F0020470050F
:100D900004D55FEA487001D544F00404300529D534
:100DA00018F0700F26D008F07000402815D006DC2F
:100DB000102809D020280AD0302816D10AE050285F
:100DC0000ED0602811D10EE044F008040DE044F08C
:100DD00010040AE044F0200407E044F0400404E07A
:100DE00044F0800401E044F480742868816921F0B3
:100DF00070018161296804204860002C05D0686A70
:100E0000204368622846FFF789FEBDE8F09F70B571
:100E1000040003D094F8200010B104E0012070BD5C
:100E2000204600F081F82068016841F0010101606E
:100E300000F050FC0546052604E000F04BFC401B8A
:100E40000A2811D820684068C007F6D020680168D9
:100E500021F00201016000F03DFC05460BE000F0CE
:100E600039FC401B0A2806D9606A40F400306062F1
:100E700084F82060D2E7206840688007EFD4207EA5
:100E80000128206801683DD021F080010160607E6A
:100E900001282068016838D021F040010160A07E5F
:100EA00001282068016833D021F020010160E07E34
:100EB0000128206801682ED041F010010160207FD8
:100EC00001282068016829D021F008010160607FB5
:100ED00001282068016824D021F004010160D4E9D0
:100EE00002010843D4E90412114308436168491E12
:100EF00008432168C86100206062012084F8200056
:100F0000002070BD41F08001C0E741F04001C5E71D
:100F100041F02001CAE721F01001CFE741F00801BC
:100F2000D4E741F00401D9E7F0B587B004461421B5
:100F30006846FFF753FB3D493D4ADFF8ECE008689F
:100F4000D4F800C03A4B03240225092610320027AA
:100F5000401CF44529D10860012807D1106840F0F1
:100F600000701060106800F000700590186840F084
:100F70000800186018688DE8B00000F00800CDE99E
:100F80000460694603942B4800F0B6FA002211462B
:100F9000142000F00DFC142000F0FCFB0022114690
:100FA000152000F005FC152039E0DFF88CE0F44551
:100FB00037D1D2F800C04CF0806CC2F800C0D2F833
:100FC00000C001280CF0806CCDF814C0086007D177
:100FD000106840F000701060106800F0007005901C
:100FE000186840F0020018601868694600F00200B6
:100FF000059060208DE8A100CDE903460F4800F080
:101000007BFA00221146402000F0D2FB402000F085
:10101000C1FB00221146412000F0CAFB412000F034
:10102000B9FB07B0F0BD000000640040C000002024
:1010300030380240000C02400068004000040240CA
:101040007047000070B586B005461C4B1C4A002155
:10105000FFF765FD1A4C1B48184E183C85421BD102
:1010600004F1240004960FC88DE80F00A4F5146065
:10107000183494E80E00183C05F04AFD2434049618
:1010800094E80F008DE80F00A4F654100C3C94E88F
:101090000E00183C05F03CFD0B4885420BD104F1D5
:1010A000240004960FC88DE80F001834074894E810
:1010B0000E0005F041FB06B070BD0000900000205E
:1010C000A82200203C29002064290020701900205B
:1010D00070477047704770B5044690F820000128AB
:1010E00004D0606A40F40020606217E0022084F8B7
:1010F00020002068016821F00101016000F0EAFA97
:1011000005460DE000F0E6FA401B0A2808D9606A9F
:1011100040F400306062052084F82000012070BD9A
:1011200020684068C007EDD1606270BD70477047AD
:10113000704770477047704770472DE9F04104468B
:10114000876D00F0C7FA054694F83500002602289E
:1011500006D08020606584F834600120BDE8F0810D
:101160002068016821F0160101602068416921F0C2
:1011700080014161206C08B9A06C20B12068016831
:1011800021F0080101602068016821F0010101607F
:101190000CE000F09FFA401B052807D9202060656D
:1011A000032084F8350084F83460D7E720680068AD
:1011B000C007EED194F85C103F208840B860012051
:1011C00084F8350084F834600020C7E790F83510C3
:1011D000022903D08021416501207047052180F854
:1011E00035100068016821F001010160002070479E
:1011F0002DE9F84304464FF00009CDF8009063480C
:101200004FF41651A56D0068B0FBF1F72E6894F805
:101210005C20082101FA02F030420FD020680268F9
:1012200052070BD5026822F00402026094F85C00B9
:101230008140A960606D40F00100606594F85C1029
:101240004FF0010808FA01F0304208D021684969DE
:10125000090604D5A860606D40F00200606594F84E
:101260005C1004208840304208D021680968890752
:1012700004D5A860606D40F00400606594F85C10CF
:1012800010208840304218D021680968090714D519
:10129000A86020680168490304D50068000308D5E8
:1012A000A16C07E00168C90503D4016821F00801B9
:1012B0000160216C09B12046884794F85C10202019
:1012C0008840304231D021680968C9062DD5A86010
:1012D00094F8350005282068016806D0490347D5F1
:1012E000006800031DD4616C1CE021F01601016050
:1012F0002068416921F080014161206C08B9A06C2F
:1013000020B12068016821F00801016094F85C10A8
:101310003F208840A86084F8358084F83490216D9F
:101320001FE0E16B09B120468847606D00282BD093
:10133000606DC00714D0052084F83500206801686E
:1013400021F0010101600098401C0090B84203D8D0
:1013500020680068C007F6D184F8358084F834909E
:10136000E16C002910D001B02046BDE8F0430847E9
:101370000168C905D5D4016821F01001016084F825
:10138000358084F83490CCE7BDE8F883D0000020A5
:101390002DE9F041044600F09DF905465CB10220BC
:1013A00084F83500002684F834602068016821F054
:1013B000010101600DE00120BDE8F08100F08AF933
:1013C000401B052805D920206065032084F83500DE
:1013D000F2E720680068C007F0D121680A68204859
:1013E0000240D4E901031843D4E903352B431843E1
:1013F00063691843A3691843E3691843236A1843D0
:101400001043626A042A03D1D4E90B231A43104320
:10141000086020684069656A20F0070128460D438E
:10142000012704280CD1A06A0543E06A40B1204698
:10143000FFF732FA20B14020606584F83570BAE7D2
:10144000206845612046FFF713FA94F85C203F219D
:1014500091408160666584F835700020ACE700003B
:101460003F8010F02DE9F0410446866D90F834007D
:10147000002501280DD0012084F8340094F835703F
:101480000020012F07D084F8340002252846BDE84B
:10149000F0810220FBE7022784F835706065204662
:1014A000FFF724FA94F85C103F208840B060206871
:1014B000016841F016010160206C20B120680168CC
:1014C00041F0080101602068016841F001010160FC
:1014D000DCE7000070B5044600F0FCF80546601C2F
:1014E00002D004480078044400F0F4F8401BA04205
:1014F000FAD370BDC40000202DE9F84FDFF89C91AD
:101500000022A9F1040B03274FF00F0C09F1040A84
:10151000ABF1040E01250B6895402B40AB426ED118
:101520000C7904F00304012C01D0022C15D186683B
:10153000540007FA04F826EA0806D1F80C8008FAE5
:1015400004F848EA0608C0F808804468AC430D79FE
:10155000C5F300159540254345600C79E443A40785
:1015600008D0C568540007FA04F6B5438E68A64053
:101570002E43C6600C7904F00304022C11D1D40868
:1015800000EB8406356A5407E40E0CFA04F825EAE9
:101590000805D1F8108008FA04F848EA0508C6F8EA
:1015A00020800568540007FA04F6B5430E7906F06A
:1015B0000306A6402E4306604C6814F4403F66D0F4
:1015C000374C256845F480452560246822F00305E2
:1015D00004F480440094334C05EB0408D8F8085810
:1015E0009407260F0CFA06F4A5432F4CA04201D114
:1015F000002424E02D4CA04202D101241FE046E04B
:101600002B4CA04201D1022419E02A4CA04201D166
:10161000032414E0284CA04201D104240FE0274CFD
:10162000A04201D105240AE0254CA04201D10624A4
:1016300005E0244CA04201D1072400E00824B44076
:101640002C43C8F80848D9F800404D464E689C43E2
:10165000F60200D51C432C60DAF8004055464E686F
:101660009C43B60200D51C432C60DBF800405D466D
:101670004E689C43B60300D51C432C60DEF8004046
:1016800075464E689C43F60300D51C432C60521CE3
:10169000102AFFF43FAFBDE8F88F0000083C01407E
:1016A0004438024000300140000002400004024083
:1016B00000080240000C02400010024000140240EA
:1016C00000180240001C02400AB181617047090401
:1016D000FBE700000148806870470000C40000205C
:1016E000024881680278114481607047C40000207C
:1016F0000B4810B5016841F400710160016841F4C4
:1017000080610160016841F480710160032000F094
:101710006FF80F2000F006F800F024F8002010BD4C
:10172000003C024070B50D4D04464FF47A712878A4
:10173000B1FBF0F00A490968B1FBF0F000F002FBE0
:1017400048B9102C07D200222146501E00F030F874
:1017500000206C6070BD012070BD0000C40000203E
:10176000D00000200A4808B5016841F480410160BA
:10177000006800F4804000900548001F016841F0B7
:1017800080510160006800F08050009008BD0000AA
:1017900044380240002809DB00F01F02012191407B
:1017A0004009800000F1E020C0F8001170470000FF
:1017B000F0B40E4B1B68C3F30223C3F10704042CDF
:1017C00000D904241D1D072D01D2002300E0DB1EDB
:1017D000012606FA04F56D1E0D409D409E40761EC2
:1017E000164045EA0601F0BC05F081BA0CED00E0B8
:1017F000064A00F0070110684FF6FF03184040EA60
:101800000120034908431060704700000CED00E020
:101810000000FA052DE9F0470D46040065D0DFF819
:101820001491D9F80000EFB200F00700A84207D2E7
:1018300089F80070D9F8000000F00700A84254D1E0
:1018400020683D4E810712D5400703D5306840F42B
:10185000E05030602078000703D5306840F46040E5
:1018600030603068A16820F0F000084330602078D4
:10187000C0072DD0304960680839012812D00228ED
:1018800013D0032811D00968890700292DDA31689F
:1018900021F0030101433160FFF71CFF804641F254
:1018A000883A0EE009688903EFE709688901ECE7E7
:1018B000FFF710FFA0EB0801514502D90320BDE856
:1018C000F0873068616800F00C00B0EB810FEFD159
:1018D000D9F80010484601F00701A94207D907705E
:1018E000006800F00700A84201D00120E7E7207857
:1018F000400705D53068E16820F4E05008433060C7
:101900002078000706D53068216920F4604040EA5D
:10191000C100306000F038F83168084AC1F30311A3
:10192000515CC8400649086006480068FFF7FAFEA7
:101930000020C4E7003C024008380240D092000872
:10194000D0000020C800002004480549006809684C
:10195000044AC1F38221515CC8407047D000002086
:1019600008380240E0920008044805490068096808
:10197000044AC1F34231515CC8407047D000002096
:1019800008380240E0920008154810B5006810F0D1
:101990000C01144813D0144B04290FD008290ED180
:1019A0000F4C241F216801F03F022168490207D52E
:1019B0002068C0F38810A0FB030106E0184610BDA4
:1019C0002168C1F38811A1FB00010023FEF752FC3E
:1019D0002168C1F30141491C4900B0FBF1F010BD81
:1019E000083802400024F400001BB7002DE9F84F2E
:1019F000040075D02078DFF838A3C007AAF10405E9
:101A000048D00AF104000168C1F38101012908D01E
:101A10000068C0F3810002280AD1DAF80000400211
:101A200006D52868800335D560680028E1D031E00C
:101A30006068B0F5803F10D0B0F5A02F286810D0B6
:101A400020F480302860286820F4802028606068B6
:101A5000A0B1FFF73FFE06460CE0286840F4803056
:101A6000F4E740F480202860F7E7FFF733FE801B9F
:101A7000642871D828688003F7D50BE0FFF72AFEA9
:101A8000064604E0FFF726FE801B6428F1D828688C
:101A90008003F7D42078DFF89C9280074FF0000B8A
:101AA0003DD5A348001D016811F00C0F08D0006857
:101AB000C0F3810002280AD1DAF80000400206D4FF
:101AC0002868800715D5E068012809D111E0E06891
:101AD000B8B10120C9F80000FFF7FCFD064605E09B
:101AE00022E1FFF7F7FD801B0228C2D82868800793
:101AF000F7D52868216920F0F80040EAC100286085
:101B00000DE0C9F800B0FFF7E5FD064604E0FFF779
:101B1000E1FD801B02281FD828688007F7D42078B1
:101B2000000722D5824F84486169703771B1012165
:101B30000160FFF7CFFD064604E0FFF7CBFD801BF9
:101B4000022809D838688007F7D50EE0C0F800B041
:101B5000FFF7C0FD064605E082E0FFF7BBFD801BF6
:101B600002287DD838688007F7D42078400765D5EB
:101B70006F484FF000083C300068C0000BD46C4840
:101B80003C30016841F08051016000684FF001086D
:101B900000F080500090694F3868C0050FD4386855
:101BA00040F480703860FFF795FD064604E0FFF7CB
:101BB00091FD801B022853D83868C005F7D55C4FCB
:101BC000A0686C3701280FD00528386810D020F0A5
:101BD00001003860386820F004003860A068B0B1B7
:101BE000FFF778FD06460EE0386840F00100F4E7A4
:101BF00040F004003860F7E7FFF76CFD811B41F20D
:101C00008830814263D838688007F5D50DE0FFF74A
:101C100061FD064606E0FFF75DFD811B41F288305D
:101C2000814254D838688007F5D4B8F1000F05D048
:101C30003F483C30016821F080510160A069B8B391
:101C40003B49091D0968C1F38101022946D00228D8
:101C5000584606D0C9F86000FFF73CFD044639E05D
:101C600035E04F46C9F86000FFF734FD064604E052
:101C7000FFF730FD801B022829D828688001F7D49F
:101C8000D4E907010843A16A2D4A490802EB014142
:101C9000626A41EA8211084394F82C1040EA01611B
:101CA000CAF8001001203866FFF714FD044605E06D
:101CB0003CE0FFF70FFD001B022808D828688001D0
:101CC000F7D533E0FFF706FD001B022802D90320F9
:101CD000BDE8F88F28688001F4D427E00128F7D008
:101CE000DAF80000E26900F4800191421CD1226A16
:101CF00000F03F01914217D147F6C071626A01407E
:101D0000B1EB821F10D1A26A4FF0FF3300F44031D3
:101D100003EB5202B1EB024F06D194F82C1000F005
:101D20007060B0EB016F01D00120D1E70020CFE758
:101D30000438024000004742800E474200700040D5
:101D40000000FFFF10B5401EB0F1807F01D30120DD
:101D500010BD4FF0E02460610F21601704F0C7FF51
:101D60000020A06107202061002010BD704770474F
:101D700070B590F83C20012A32D0012580F83C5003
:101D8000022280F83D2002685368946823F07006B0
:101D90000B6833435360134B02689A4214D0B2F17C
:101DA000804F11D0104B9A420ED0104B9A420BD05C
:101DB0000F4B9A4208D00F4B9A4205D00E4B9A42D5
:101DC00002D00E4B9A4204D1496824F08003194393
:101DD000916080F83D50002180F83C10084670BDAD
:101DE000022070BD000001400004004000080040D7
:101DF000000C004000040140004001400018004079
:101E000010B5040003D094F83D0010B107E00120A4
:101E100010BD002084F83C00204600F01FF802208E
:101E200084F83D00211D206801F0CCFC012084F8DD
:101E3000460084F83E0084F83F0084F8400084F8AF
:101E4000410084F8420084F8430084F8440084F898
:101E5000450084F83D00002010BD000008B5006872
:101E60001D4A1E4990420ED1086840F008000860E3
:101E70000868002200F00800009001213220FFF7DE
:101E800097FC322022E0164A90420ED1086840F0BA
:101E9000100008600868002200F010000090012186
:101EA0003620FFF785FC362010E00E4A904211D113
:101EB000086840F0200008600868002200F0200058
:101EC000009011463720FFF773FC3720BDE808402B
:101ED000FFF760BC08BD0000000C00404038024025
:101EE000001000400014004090F83D10012901D07E
:101EF00001207047022180F83D100168CA6842F055
:101F00000102CA6000681149884214D0B0F1804FC4
:101F100011D00F4988420ED00E4988420BD00E498D
:101F2000884208D00D49884205D00D49884202D028
:101F30000C49884204D1816801F00701062903D0C9
:101F4000016841F00101016000207047000001407C
:101F50000004004000080040000C00400004014064
:101F6000004001400018004070B5044690F83C0065
:101F70000025012817D0012684F83C60022084F84F
:101F80003D002068826822F0770222F47F4282605E
:101F90000868502838D00DDC20284FD005DC90B3DD
:101FA000102811D14AE0022070BD302846D04028C8
:101FB0000AD13BE060282FD070280DD0B0F5805FAB
:101FC00003D0B0F5005F12D0012584F83D600020F9
:101FD00084F83C00284670BDCB68D1E90121206817
:101FE00001F05CFC2068816841F0770109E0CB6872
:101FF000D1E90121206801F051FC2068816841F499
:1020000080418160E1E719E0CA684968206801F011
:1020100057FC5021206806E0CA684968206801F032
:1020200060FC6021206801F043FCCEE7CA68496883
:10203000206801F045FC40212068F4E72268014651
:102040001046F0E770472DE9F04104460068C66885
:1020500005694FF00007A90713D5B10711D5F91E7F
:10206000016101202077206880698007204602D026
:10207000FFF7E8FF04E000F07EF8204600F07CF86F
:102080002777680716D5700714D521686FF004000C
:102090000861022020772068806910F4407F204684
:1020A00002D0FFF7CFFF04E000F065F8204600F013
:1020B00063F82777280715D5300713D521686FF007
:1020C00008000861042020772068C0698007204646
:1020D00002D0FFF7B7FF04E000F04DF8204600F013
:1020E0004BF82777E80616D5F00614D521686FF06F
:1020F00010000861082020772068C06910F4407F34
:10210000204602D0FFF79EFF04E000F034F820469E
:1021100000F032F82777E80708D0F00706D02168EA
:102120006FF001000861204600F028F8280608D565
:10213000300606D521686FF0800008612046FFF761
:1021400015FE680608D5700606D521686FF04000B8
:102150000861204600F03CFEA8060AD5B00608D566
:1021600021686FF0200008612046BDE8F041FFF7CC
:10217000FEBDBDE8F0817047704700002DE9F05FBB
:1021800007462DED0E8BFC489FEDFC8A9FEDFCCBA6
:102190009FEDFDBBFE4EDFF8FC93874270D199F8AE
:1021A0000600DFEDFD8A40F2062B06F1C40A06F1B7
:1021B000B40800287AD189ED088A89ED0B8A06F5E2
:1021C000076589ED0A8AB5F908004C46404206F0D9
:1021D00094F99FEDF21B53EC112B06F0E1F905F099
:1021E000E3FE606306F0D2FC9FEDEE1B53EC112B77
:1021F00005F00CFF9FEDED1B53EC112B06F0D0F911
:1022000005F0D2FE00EE100A84ED0E0A05F09AF8F1
:1022100084ED060A94ED0E0A05F09EF984ED070A96
:10222000E87D9FEDE49B9FEDE5AB9FEDE6DB0128AC
:1022300009D0287E012814D0687E012821D0A87EEC
:10224000012834D098E0B5F90600D4ED090A00EE73
:10225000100A0021B8EEC00A20EE600A84ED080AD8
:1022600004E0B0EE480A84ED080A0121D74802F0E4
:10227000BBFD687E012804D0A87E012817D02EE07F
:10228000F4E394F9070006F038F953EC192B06F043
:1022900087F953EC1A2B05F0B9FE53EC1D2B06F011
:1022A0008BFB41EC100B9FEDCA1B08E046E1B5F932
:1022B0000A0006F022F941EC100B9FEDC71B51EC10
:1022C000100B53EC112B06F06BF905F06DFE00EED0
:1022D000100A012184ED080ABC4802F085FDE87D62
:1022E000012894F9070059D006F007F953EC192B8F
:1022F00006F056F953EC1A2B41EC100B51EC100B75
:1023000005F084FE05F050FEE063B0880121A0F5E1
:10231000806000B200EE100AAC48B8EEC00A20306F
:1023200002F062FDF0880121A0F5806000B200EEAD
:10233000100AA648B8EEC00A403002F055FDA34886
:10234000D4ED060A2030D4ED071A90ED010A2030B2
:1023500094ED0F2A60EE202A90ED011A20EE210A5A
:1023600041EE612A01EE200A62EE822A20EE020A84
:10237000C4ED0A2A84ED0B0AB5F90A009FED980A0C
:102380000F301E2804D8B5F90C000F301E2816D9BE
:10239000687E012818D0B0EE080A15E006F0ADF806
:1023A00053EC192B06F0FCF853EC1A2B05F02EFE1B
:1023B00041EC100B9FED8B1B53EC112B9EE7687EBD
:1023C000012801D0B7EE080A84ED0C0AF088A0F5C8
:1023D000806000B206F091F89FED849B53EC192BBE
:1023E00006F0DEF853EC1D2B06F0DAF805F0DCFD04
:1023F0000AEE100AB088A0F5806000B206F07DF801
:1024000053EC192B06F0CCF853EC1D2B06F0C8F852
:1024100005F0CAFD00EE100A6C4894ED0C1AD0EDE0
:10242000010A20EE811A9FED739AF0EE4A0AA0F29B
:102430000C70F0EE491A03F0ABF8554C5546E434F5
:1024400040F2052194ED000AA4F19C008AED000AF7
:1024500094ED010A8AED010A94ED020A8AED020A5E
:1024600094ED030A8AED030A04F0C0FA00EE100AA4
:10247000A4F12001F0EE681AF8EEC00A94ED040A07
:10248000B0EE491AA1F17C0004F0D0F951EC100B28
:1024900005F08AFDC8F800005946A4F19C0004F03C
:1024A000A5FA00EE100AF0EE681AB0EE491AF8EE3E
:1024B000C00A94ED050A291DA4F19C0004F0B6F9A8
:1024C00051EC100B05F070FDC8F8040040F2072134
:1024D000A4F19C0004F08AFA00EE100AA4F118019D
:1024E000F0EE681AF8EEC00A94ED060AB0EE491A4A
:1024F000A1F1840004F09AF951EC100B05F054FDA1
:10250000C8F808004FF40271A4F19C0004F06EFAC0
:1025100000EE100AA4F11401F0EE681AF8EEC00AF9
:1025200094ED070AB0EE491AA1F1880004F07EF993
:1025300051EC100B05F038FDC8F80C00307A022879
:1025400002D1707A02287CD0002099F806104C46FF
:1025500008430FD08AED038A8AED028A8AED018A48
:102560008AED008A88ED038A88ED028A88ED018A67
:1025700088ED008AA0783FE0D42900200000000008
:10258000FCA9F1D24D62503F4AD8124DFB211940AF
:10259000181900200000002000F8FF45AA825149C8
:1025A0009D80A63F0000000000805640514CDE0098
:1025B00033DF913FB81E85EB51B8BE3F00000000ED
:1025C0000000F03F9A9999999999C93F08210020F4
:1025D000000000000088B340000000000000F83F49
:1025E0006666A63F9A9999999999D93FFB5C6DC502
:1025F000FED238400000804650B3206C06F0C6FA88
:1026000053EC1C2B05F002FD05F0CEFC05462064C2
:10261000206D06F0BBFA41EC190B284606F0B6FA1D
:1026200053EC1B2B05F0BCFF53EC192B05F0B8FF46
:1026300005F0BAFC00EE100A04F08EFF9FEDFE1AC2
:1026400000E0AEE2DFEDFD0A40EE010AC4ED110A42
:1026500040F20521FA4804F0C9F900EE100AB0EE84
:10266000681AF748F8EEC00A98ED000A04F0DAF9A3
:10267000F348D8468C30594680ED000A8C3804F077
:10268000B5F900EE100AEE481FED3D1A6C30F8EE79
:10269000C00A90ED010A6C3804F0C4F9E84840F231
:1026A000072B8C30594680ED010A8C3804F09EF9D6
:1026B00000EE100AE2486C30F8EEC00A90ED020A13
:1026C0001FED4B1A6C3804F0ADF9DD484FF402757C
:1026D0008C30294680ED020A8C3804F087F900EE30
:1026E000100AD7486C30F8EEC00A90ED030A1FEDCF
:1026F000561A6C3804F096F9D148E91E8C3080EDFA
:10270000030A8C3804F072F905F0F7FE41EC190B5E
:10271000CB488C30006806F039FA41EC130B9FED82
:10272000C9ABCA4CB0EE494A04F16001B0EE4A5A56
:1027300091EC060BF0EE6A5AF0EE694AA4F530709F
:1027400003F06AFE4146BE4804F050F905F0D5FE9C
:1027500041EC190BA4F22460406806F017FA41EC32
:10276000130B04F16001B0EE4A5A91EC060BF0EE47
:102770006A5AB0EE494AF0EE694AA4F5087003F0CF
:102780004BFE5946AE4804F031F905F0B6FE41EC77
:10279000190BA4F22460806806F0F8F941EC130BE1
:1027A00004F16001B0EE4A5A91EC060BF0EE6A5A61
:1027B000B0EE494AF0EE694AA4F5C07003F02CFE71
:1027C00029469F4804F012F905F097FE41EC190BD9
:1027D000A4F22460C06806F0D9F941EC130BA4F10F
:1027E000E0006034B0EE4A5A94EC060BF0EE6A5A00
:1027F000B0EE494AF0EE694A03F00EFEE91E904839
:1028000004F002F900EE100AF8EEC00ADFED908A3B
:10281000B0EE00EA80EEA80A20EE0E0A10EE100AD2
:1028200006F0B4F9A4F5487441EC100B94ED165B76
:1028300094ED021B9FED879BB0EE494AF0EE694A8A
:102840009FED86ABB0EE4A3AF0EE6A3A9FED85DB3B
:1028500004F52070B0EE4D2AF0EE6D2A03F022FD53
:102860004146774804F0D0F800EE100AF8EEC00AAE
:1028700080EEA80A20EE0E0A10EE100A06F086F985
:1028800041EC100B94ED3E5B94ED2A1BB0EE494AEF
:10289000F0EE694AB0EE4A3AF0EE6A3AB0EE4D2AEE
:1028A000F0EE6D2A04F52A7003F0FCFC59466448EA
:1028B00004F0AAF800EE100AF8EEC00A80EEA80AAA
:1028C00020EE0E0A10EE100A06F060F941EC100B33
:1028D00094ED665B94ED521BB0EE494AF0EE694A06
:1028E000B0EE4A3AF0EE6A3AB0EE4D2AF0EE6D2ABA
:1028F00004F5347003F0D6FC2946514804F084F8FE
:1029000000EE100AB8EEC00AC0EE280A20EE8E0AC9
:1029100010EE100A06F03AF941EC100B94ED8E5BC4
:1029200094ED7A1BB0EE494AF0EE694AB0EE4A3AAD
:10293000F0EE6A3AB0EE4D2AF0EE6D2A04F53E70E4
:1029400003F0B0FC40F2012B5946A4F5806004F07E
:102950005BF800EE100A01225546F8EEC00A9AED27
:10296000000A1146A4F50470B1EE400A02F0C8FD59
:1029700040F2022A5146A4F5806004F045F800EECA
:10298000100A01221146F8EEC00A95ED010AA4F5DD
:10299000C670B1EE400A02F0B3FD40F20321A4F587
:1029A000806004F031F800EE100A01221146F8EEC2
:1029B000C00A95ED020AA4F50470B1EE400A02F0D7
:1029C0009FFD4FF401784146A4F5806004F01CF8A7
:1029D00000EE100A01221146F8EEC00A95ED030A36
:1029E000A4F50470B1EE400A02F08AFD5946A4F540
:1029F000806004F009F8404200EE100A012104F55D
:102A00004E70B8EEC00A02F0EFF95146A4F58060AE
:102A100003F0FAFF404200EE100A012104F556705F
:102A2000B8EEC00A02F0E0F95146A4F5806003F068
:102A3000EBFF00EE100A1AE000803B4500007A45EB
:102A40006019002000000000004CDD401020002034
:102A500000007042000000000070A7407B14AE47E9
:102A6000E17A843F000000000000324092E0B8EEBE
:102A7000C00A012104F55E7002F0B6F94146A4F5E2
:102A8000806003F0C1FF00EE100A012104F56670BA
:102A9000B8EEC00A02F0A8F9A4F50470012290ED86
:102AA0000C0ABDEEC00A10EE100A01B2B74802F0DF
:102AB0003DF8A4F5C670022290ED0C0ABDEEC00AE6
:102AC00010EE100A01B2B14802F030F8A4F584709B
:102AD000032290ED0C0ABDEEC00A10EE100A01B2FE
:102AE000AA4802F023F8A4F18400042290ED0C0A15
:102AF000BDEEC00A10EE100A01B2A44802F016F8AA
:102B000004F5207594ED020B95ED081B51EC100BAC
:102B100053EC112B05F050FF05F0C0FC01B29B48AF
:102B20000122083802F002F895ED121B94ED2A0BF1
:102B300053EC112B51EC100B05F03EFF05F0AEFCF1
:102B400001B292480222083801F0F0FF95ED1C1BFB
:102B500094ED520B53EC112B51EC100B05F02CFFA4
:102B600005F09CFC01B289480322083801F0DEFF21
:102B700095ED261B94ED7A0B53EC112B51EC100BB9
:102B800005F01AFF05F08AFC01B2804804220838DB
:102B900001F0CCFF7E48874231D1307A022802D042
:102BA00004E00120D1E4707A022816D0002099F8C0
:102BB0000610784D4C4608434FF001080FD04FF0F7
:102BC000FF306FF00071C5E9080105F6A80100208B
:102BD00081F8758689F8050011E00120E7E7607942
:102BE00000287CD0B0EE480AF6EE001AB0EE402A7B
:102BF000B0EE401AF0EE400A664803F001FB66486A
:102C000087426DD1D9F854004C46002869D001F0B4
:102C100021F994F85400401C00F001006065206C1C
:102C200005F0B4FF53EC1C2B05F0F0F905F0BCF9EE
:102C3000206405F0ABFF53EC1B2B05F0B1FC9FEDBE
:102C4000571B53EC112B05F0ABFC05F0ADF900EE72
:102C5000100A04F081FC9FED538AF3EE048AF0EE33
:102C6000480A40EE280AC4ED110A206C05F08EFFD8
:102C700053EC1B2B05F094FC9FED4B1B53EC112BDD
:102C800005F08EFC05F090F900EE100A04F064FCEB
:102C900000EE288A84ED118A7088A0F5806000B269
:102CA00005F02BFC9FED421B53EC112B05F078FC3B
:102CB00041EC180BA06C05F069FF53EC182B05F0E4
:102CC000A5F905F071F9A0643088A0F5806000B224
:102CD00005F013FC0F46054647EC100B02E046E0FA
:102CE00041E04FE09FED341B51EC100B53EC112BE6
:102CF00005F056FC41EC180BE06C05F047FF53EC77
:102D0000182B05F083F905F04FF947EC105B9FEDA8
:102D10002C1B064653EC112B51EC100B05F040FC1C
:102D200041EC180B304605F031FF53EC182B05F041
:102D30006DF905F039F900EE100ADFED230A84ED94
:102D4000130AB5EEC00AF1EE10FA03D230EE200AF3
:102D500084ED130A10EE100A1C49884203DD30EEA0
:102D6000600A84ED130ABDEC0E8BBDE8F09F01F004
:102D7000F1FA4FF0FF306FF04071C5E9080184F8B7
:102D800005803CE701F070F843E70000A800002050
:102D90001C2A00201C1A00208C29002033333333D6
:102DA0003333D33F00009243000000000000E03FB7
:102DB000FCA9F1D24D62403F9A9999999999A93FFE
:102DC0007B14AE47E17A743F0000B4430000B44383
:102DD000704718B5034690F84200202801D0022021
:102DE00018BD51B14AB1012018630020586318463C
:102DF00000F094FF010002D005E0012018BD186B1F
:102E0000012802D00121084618BD186802684068F0
:102E1000009018680C3050E8002F42F0100240E893
:102E20000024002CF5D1EEE700B50D4A87B09042A2
:102E30000DD112290BD1684601F08AFF162269468E
:102E40000848FDF732FBFEF745FC074908600549D5
:102E500007B01222163102485DF804EB00F08EBA7A
:102E6000AC2A0020181900209800002070470000AC
:102E7000F8B5016804460868CA684B6910F00F0F7E
:102E80004FF0000559D003F0010602F49077374364
:102E900065D0C10705D0D10503D5616C41F00101B2
:102EA0006164410705D5D90703D0616C41F0020187
:102EB0006164810705D5D90703D0616C41F0040135
:102EC0006164010707D502F02001314303D0616C32
:102ED00041F008016164616C00293AD0800604D594
:102EE000900602D5204600F0E8FD20684069616C3C
:102EF000C0F38010090700D460B3204600F0A8FD9D
:102F000020684069400621D52068143050E8001F31
:102F100021F0400140E80012002AF5D1E06BA8B191
:102F20006E490165E06BFEF751F9002811D0E06BA6
:102F3000016D01B0BDE8F040084783060FD5930648
:102F40000DD52046BDE8F84000F0B7BD2046FFF79C
:102F50008DFFF8BD2046FFF789FF6564F8BD266B3D
:102F60002023012E7DD1C6067BD5D60679D50868EB
:102F70004868009048694FF00206400641D5E16B71
:102F8000086840680004000CE8D0A28D8242E5D9B0
:102F9000E085C869B0F5807F2DD020680C3050E8FE
:102FA000001F21F4807140E80012002AF5D120684A
:102FB000143050E8001F21F0010140E80012002AFF
:102FC000F5D12068143050E8001F21F0400140E89E
:102FD0000012002AF5D184F84230256320680C30B5
:102FE00050E8001F21F0100140E80012002AF5D13E
:102FF000E06BFEF7A2F86663A08DE18D401A81B206
:103000002AE0A08DE18D401A81B2E08D0028A5D084
:103010000029A3D020680C3050E8002F22F49072D1
:1030200040E80027002FF5D12068143050E8002F29
:1030300022F0010240E80027002FF5D184F8423049
:10304000256320680C3050E8002F22F0100240E881
:103050000023002BF5D166632046FFF7E5FEF8BD9F
:10306000FFE705062BD5150629D594F84100212840
:10307000F5D1A068B0F5805F01D12069B0B1206AB8
:10308000411C2162216800784860E08C401E0004E9
:10309000000CE084E3D12068C16821F08001C160A8
:1030A0002068C16841F04001C160D8E7206A00880B
:1030B000C0F308004860206A801C2062E5E74006F3
:1030C000CDD55006CBD5CA68204622F04002CA6052
:1030D00084F8413000F0BBF9C1E70000073900086F
:1030E00070B5040004D094F84100002510B106E04A
:1030F000012070BD84F84050204600F023F82420C1
:1031000084F841002068C16821F40051C160204664
:1031100000F034FD2068016921F4904101612068CC
:10312000416921F02A0141612068C16841F40051E0
:10313000C1606564202084F8410084F84200656322
:10314000002070BD2DE9F04786B004461421684682
:10315000FDF744FA7848DFF8DCC12368764A143872
:1031600002260327072100254FF040094FF4806A0B
:1031700063455FD1136843F010031360126802F0D7
:1031800010020592026842F002020260026802F038
:1031900002020592026842F001020260006888465D
:1031A00000F0010005908020CDE9000602AB6946E1
:1031B00083E8A0016148FEF79FF93002CDE90006DF
:1031C00002AB694683E8A0015D48FEF795F95E4EC3
:1031D0005C484FF00068C6E9035A7561B561F56156
:1031E0003562756286E8010357463046FEF7D0F82F
:1031F00008B1FDF790FBA663B463534E51486036A7
:1032000078383060C6E90185C6E903577561B56154
:10321000F561356230467562FEF7BAF808B1FDF720
:103220007AFBE663002211462520B463FEF7C0FA5C
:10323000252026E0DFF814C1634527D13E4A121F3E
:10324000136843F480231360126802F4802205920D
:10325000026842F0040202600068029500F0040077
:103260000590CDE903714FF44060CDE90006694651
:103270003748FEF741F9002211462720FEF798FA59
:103280002720FEF787FA06B0BDE8F08731498B4268
:10329000F9D1116841F020011160116801F020019D
:1032A0000591016841F0400101600068029500F05D
:1032B000400005904FF48440CDE900060820CDE998
:1032C000037069462448FEF717F91F4E1D48C036A3
:1032D0001838C6E9035A7561B561F56135624FF07A
:1032E0002068756286E8010357463046FEF750F8BD
:1032F00008B1FDF710FBA663B4631248174E90386F
:103300003060C6E90185C6E903577561B561F561AD
:10331000356230467562FEF73BF808B1FDF7FBFAFF
:10332000E663002211464720B463FEF741FA4720C6
:10333000A7E70000001001404438024000040240AA
:1033400000000240B86402403C2B002000480040CE
:103350000008024000140140001802405C2C0020CC
:1033600090F84230202B01D00220704721B11AB1D1
:103370000023036300F088BC0120704790F84230BE
:10338000202B01D00220704721B11AB10023036322
:1033900000F0C4BC0120704702F010BA7047000072
:1033A00037B5044690F84100202801D002203EBDE8
:1033B000019951B34AB32162A284E284002060647F
:1033C000212384F84130A56B114BEB63A56B114BA6
:1033D0002B64A56B104BEB64A36B18652068134638
:1033E000A56B021D2846FEF73DF821686FF04000EE
:1033F00008602068143050E8001F41F0800140E868
:103400000012002AF5D100203EBD01203EBD000083
:10341000053A0008473A00081739000890F841308B
:10342000202B01D00220704779B172B101628284F1
:10343000C28400214164212180F841100068C168E4
:1034400041F08001C1600020704701207047704743
:103450007047FEE70F4810B50D4901600621416035
:1034600000214FF440328160C0E903124FF4801212
:103470004261017641768176C17601774177FDF729
:10348000C6FC002803D0BDE81040FDF744BA10BDCB
:10349000006400403C2900200F4810B50D49016030
:1034A0000621416000214FF440328160C0E90312DF
:1034B0004FF480124261017641768176C1760177C0
:1034C0004177FDF7A4FC002803D0BDE81040FDF7CC
:1034D00022BA10BD0068004064290020154808B5D4
:1034E000016841F4800101600068002200F480005E
:1034F000009011463920FEF75BF93920FEF74AF9B2
:10350000002211463A20FEF753F93A20FEF742F91D
:10351000002211464520FEF74BF94520FEF73AF907
:10352000002211464620FEF743F9BDE80840462038
:10353000FEF730B93038024070B586B014216846C5
:10354000FDF74CF822480025016841F002010160B6
:10355000016801F002010591016841F0400101603C
:10356000016801F040010591016841F0010101602D
:10357000016801F001010591016841F00801016055
:10358000016801F008010591016841F00401016042
:10359000016801F004010591016841F080010160BA
:1035A00000680C4E00F080004FF48064059000220B
:1035B00021463046FEF788F801200094CDE9010548
:1035C000694630460395FDF797FF06B070BD0000D1
:1035D00030380240001C024010B586B00024174865
:1035E0000094019402940394049413490594016097
:1035F0005321C0E9011440F2E731C0E903148021EE
:103600008161FEF7FDFB08B1FDF785F94FF48050AD
:10361000009069460948FEF7A7FC08B1FDF77BF961
:10362000049404A905480594FEF7A2FB002801D0E4
:10363000FDF771F906B010BD000C00408C29002088
:103640001CB500240F4800940D49019401605321DA
:10365000C0E9011440F2E731C16080218161FEF7C9
:10366000CFFB08B1FDF757F900946946054801946E
:10367000FEF77EFB002801D0FDF74DF91CBD0000D0
:1036800000100040D42900201CB500240F480094ED
:103690000D49019401605321C0E9011440F2E73162
:1036A000C16080218161FEF7ABFB08B1FDF733F902
:1036B0000094694605480194FEF75AFB002801D0A2
:1036C000FDF729F91CBD0000001400401C2A002051
:1036D0000C4810B50A4901604FF4E1314160002106
:1036E00081600C22C160C0E904128161C161FFF7F1
:1036F000F7FC002803D0BDE81040FDF70CB910BD61
:1037000000100140642A00200E4810B50C490160E9
:103710000D4941604FF48051816000214FF4806277
:10372000C0E903120C22C0E90521C161FFF7D8FCF2
:10373000002803D0BDE81040FDF7EDB810BD000033
:1037400000480040AC2A0020A08601000C4810B5BB
:103750000A4901604FF4E1314160002181600C228F
:10376000C160C0E904128161C161FFF7B9FC0028A2
:1037700003D0BDE81040FDF7CEB810BD00140140E5
:10378000F42A0020FEE7FEE770477047FDF7A8BF68
:103790000248016841F470010160704788ED00E063
:1037A0000148FEF750BC00008C2900200148FEF7BC
:1037B0004ABC0000D42900200148FEF744BC0000A8
:1037C0001C2A0020F0B50268294D2A4E2A4FDFF846
:1037D000ACC02B4B4FF0804EA84209D0704507D0AB
:1037E000B04205D0B84203D0604501D0984203D121
:1037F00022F070044A682243A8421BD0704519D0B9
:10380000B04217D0B84215D0604513D0984211D0BD
:103810001C4CA0420ED01C4CA0420BD01B4CA04212
:1038200008D01B4CA04205D01A4CA04202D01A4C22
:10383000A04203D122F44074CA6822434C6922F0AA
:103840008002224302608A68C2620A688262A842D9
:1038500001D0984201D109690163012141610169E7
:10386000C90703D0016921F001010161F0BD000029
:10387000000001400004004000080040000C00402F
:103880000004014000400140004401400048014064
:1038900000180040001C00400020004010B5846863
:1038A00042EA032224F47F440A432243826010BD8B
:1038B000826822F070020A4342F00701816070477B
:1038C00010B5046A036A23F001030362836923F0DD
:1038D000F00343EA021324F00A020A4383610262FE
:1038E00010BD10B5036A046A24F0100404628469F0
:1038F00023F0A00324F4704444EA023243EA0111A5
:103900008261016210BD10B5806B0021C185C18448
:10391000FFF7ACFA10BD70B5846B2068406994F86D
:103920004110C0F3C0100025212904D118B1E5844D
:10393000204600F0B4F82068406994F84210C0F3C3
:103940008010222904D118B1E585204600F080F8C6
:10395000606C40F0100060642046FFF787FA70BD8D
:1039600010B50146806B096809684FF00003C9056E
:103970002ED4C38501680C3151E8002F22F48072E7
:1039800041E80024002CF5D10168143151E8002FE2
:1039900022F0010241E80024002CF5D10168143125
:1039A00051E8002F22F0400241E80024002CF5D11C
:1039B000202180F84210016B012909D101680C31E6
:1039C00051E8002F22F0100241E80024002CF5D12C
:1039D0004363016B012902D0FFF7DEFC10BD818D2E
:1039E000FFF722FA10BD10B5806B01214163016B16
:1039F000012902D0FFF7D2FC10BD818D4908FFF7E5
:103A000013FA10BD10B50146806B09680968C90535
:103A100016D40021C1840168143151E8002F22F02E
:103A2000800241E80023002BF5D101680C3151E8F8
:103A3000002F42F0400241E80023002BF5D110BDD9
:103A4000FFF705FD10BD10B5806BFFF701FD10BD40
:103A500001680C3151E8002F22F4907241E80023F4
:103A6000002BF5D10168143151E8002F22F001023A
:103A700041E80023002BF5D1016B012909D1016830
:103A80000C3151E8002F22F0100241E80023002BF6
:103A9000F5D1202180F842100021016370470168B0
:103AA0000C3151E8002F22F0C00241E80023002B26
:103AB000F5D1202180F84110704708B590F84210E8
:103AC000222901D0022008BD81684FF48053994219
:103AD00001D1026922B1826A99421BD049B10AE040
:103AE0000268816A5268C2F308020A80816A891CEE
:103AF00008E0016971B10168496801F07F01117046
:103B0000816A491C8162C18D491E0904090CC18565
:103B100003D01BE001684968F1E70168CA6822F038
:103B20002002CA600168CA6822F48072CA60016813
:103B30004A6922F001024A61202180F842100021E6
:103B40004163026B012A03D0FFF726FC002008BD69
:103B5000016301680C3151E8002F22F0100241E8A6
:103B60000023002BF5D101680A68D20602D50A6845
:103B700049680091818DFFF757F9E7E770B5044672
:103B800000680169E26821F4405111430161A168B4
:103B90002069E26901436069104301432068C268FB
:103BA00049F20C639A430A43C26020684169A269E2
:103BB00021F440711143416131492068884202D0AB
:103BC0003049884202D1FDF7CFFE01E0FDF7BCFE8F
:103BD000E2690023192164253226B2F5004F62689C
:103BE00028D0A0FB0101930F9200FCF743FB014694
:103BF000B0FBF5F06FF01802504301EB800006EBCC
:103C00000010B0FBF5F000F0F002B1FBF5F002EBB4
:103C10000012B1FBF5F06FF01803584301EB800080
:103C200006EB0010B0FBF5F000F00F002168104427
:103C3000886070BDA0FB010192185B41FCF71AFB84
:103C40000146B0FBF5F00201B1FBF5F06FF018038F
:103C5000584301EB800006EBC000B0FBF5F000F02C
:103C6000F80002EB4002B1FBF5F0584301EB800095
:103C700006EBC000B0FBF5F000F00700D6E700004F
:103C8000001001400014014037B582B01346039A7A
:103C900082620446838500206064222184F84210F9
:103CA000E56B1B49E963E56B1A492964E56B1A4921
:103CB000E964E16B08652168E06B091DFDF7D2FB43
:103CC0002068016840680090206948B120680C3085
:103CD00050E8001F41F4807140E80012002AF5D13D
:103CE0002068143050E8001F41F0010140E8001244
:103CF000002AF5D12068143050E8001F41F040013F
:103D000040E80012002AF5D105B0002030BD0000C7
:103D100061390008E7390008173900088162828597
:103D2000C28500214164222180F84210016921B13D
:103D30000168CA6842F48072CA6001684A6942F048
:103D400001024A610068C16841F02001C1600020A1
:103D5000704700000148FFF78BB80000642A00207C
:103D60000148FFF785B80000AC2A00200148FFF7A2
:103D70007FB80000F42A0020FEE7000010B596B0DE
:103D80000C4602F035F9022001F076FF1E2002F009
:103D900029F9032001F076FF4FF4397114200CB19A
:103DA0000CA300E00DA3CDE9000101220DA109A89B
:103DB00001F0D2FD21220CA96846FCF7BBFB09AC3F
:103DC000094894E80E0002F089F916B0BDE81040E9
:103DD00001F020BE4D434C3A4F4E00004D434C3A4B
:103DE0004F4646006D636C00C422002010B500F001
:103DF00037FA0848FDF76FF902210648FCF78DFDF8
:103E00000548FDF768F9BDE8104002210248FCF7BB
:103E100084BD00003C290020642900200FB587B034
:103E200008230493002300910193029303938DF8D8
:103E300014300AAB6946FCF782FD0BB000BD0000F0
:103E40000123024A20210248FFF7E8BF3C1A002064
:103E5000642900200223024A19020248FFF7DEBF4C
:103E6000A80000203C2900200223034A40F2FF1151
:103E70000248FFF7D3BF0000A00000203C2900202B
:103E8000012131EE601A814070EE600A491E00EE99
:103E9000101AB8EEC00A20EE800AC0EE010ABDEE8C
:103EA000E00A10EE100A70472DE9F041B04C94B0D2
:103EB000002694F8750698B16421AE4801F0A2F985
:103EC00078B194F8750601280AD1022002F090F822
:103ED0000021022001F08CFC01F09CFD84F8756645
:103EE0000120A44DB83D697A08427CD0A04C94F8DA
:103EF0007506012877D094F8740648B364219D486C
:103F000001F080F900286ED094F9740600B3C0EB7C
:103F1000001000EB4000011901F2C32701F2D32188
:103F20001D226846FCF7C1FA39462D2208A8FCF785
:103F3000BCFA08AF97E80F0001F096FD94F87406FC
:103F4000401E40B284F87406002801DA84F87466D2
:103F5000874802F069F8002845D0874C94F916008C
:103F600004F0CBFA9FED851B53EC112B04F04EF8B7
:103F700004F01AF8286704F009FE9FED821B53EC49
:103F8000112B04F0F7F89FED811B53EC112B04F07B
:103F900007FB41EC100B02F0CFFE9FED7E1B51ECB6
:103FA000100B53EC112B04F0FBFA9FED7C1B53EC30
:103FB000112B04F0F5FA03F0F7FF6867B4F9060077
:103FC00004F09BFA9FED771B53EC112B04F0E8FAF9
:103FD0009FED761B53EC112B04F0E2FA03F0E4FFA3
:103FE00000EE100A00E0C0E085ED0E0A03F0AAF929
:103FF00095ED0E0A03F0B0FA022001F0F9FF05205A
:1040000001F03AFE192001F03DFE4FF4BE744FF46A
:104010000778CDE902844FF470770197049495ED09
:10402000120AF0EE000A012270EE200ABCEEC00A6D
:1040300060A105A8FCEEE00A10EE103ACDED000AF2
:1040400001F0BCFDBDF82000ADF800009DF8220095
:104050008DF8020005AE464896E80E0001F0CEFF4E
:10406000052001F009FE192001F00CFE502040F25D
:10407000EE21CDE902104FF4C8660196049095ED4B
:10408000130AF3EE0E0A022230EE601A30EE200A16
:104090004BA105A8BCEEC11ABCEEC00A8DED001AFA
:1040A00010EE103A01F08AFDBDF82000ADF80000D6
:1040B0009DF822008DF802000DF1140C2C489CE8AC
:1040C0000E0001F09BFF4149686C884201DA002034
:1040D00000E0022001F0D0FD0F2001F0D3FDCDE97A
:1040E00002840197049495ED110A40F20F13032204
:1040F000BCEEC00A36A105A88DED000A01F05EFDF8
:10410000BDF82000ADF800009DF822008DF80200F7
:104110000DF1140C16489CE80E0001F06FFF2320EF
:1041200001F0B0FD95ED110ADFED2B0A40F2B2204F
:10413000CDE9000630EE200A3346002227A1BCEE6E
:10414000C00A03A88DED020A01F0E8FCBDF81800D2
:10415000ADF800009DF81A008DF802000DF10C0C6E
:1041600003489CE80E0001F049FF14B0BDE8F0815F
:10417000C4220020B8000020882100209EEFA7C69E
:104180004B773F4000000000008066404AD8124D47
:10419000FB210940000000000080454000000000B5
:1041A00000000840AA8251499D80A63F514CDE0084
:1041B00033DF913F70697463685F496E6974000012
:1041C0006779726F5F496E69740000000000914367
:1041D00063645F496E6974000000EB4364703100F2
:1041E00070B5FFF703FE00F0A9FD01F0DDFA00F065
:1041F000B1F818489FED160A002480ED030A80F8F4
:104200003840AC30611E6FF00072C0E90812FFF751
:1042100017FE12489FED100A80ED070A80ED110A83
:1042200080ED1B0A80ED250A0A20FDF753F9FDF702
:1042300051FA06462546FDF74DFA821B64EB05014F
:104240004FF4FA7300209A1A8841F4D270BD00002E
:1042500000005C42701900200000C843D01F0020FD
:1042600010B58AB00020012104900E24CDE9081475
:10427000019002900590CDE90601009003906946F7
:104280000548FCF7C5FB1C200990694605940348C6
:10429000FCF7BEFB0AB010BD3C29002064290020B9
:1042A00030B593B030216846FCF798F914210CA87A
:1042B000FCF794F91D480025016841F08051016028
:1042C000006800F0805011901948016841F4804165
:1042D00001600068022400F48040119001200090E9
:1042E000000401908001CDE9064006200890A82036
:1042F000CDE9090404200B906846FDF777FB08B16F
:1043000072B6FEE70CA90F2081E831004FF4A050EF
:104310000F904FF48050109005210CA8FDF77AFA09
:10432000002801D072B6FEE713B030BD403802401D
:10433000007000400246B0F90000081A4FF0FF314B
:1043400005D4052803DA1044407AFF2800D1084636
:10435000704700002DE9F04FFF4F89B000247C72B8
:10436000FE4880F8EE42012001F042FE062001F0F6
:1043700083FC012001F086FC4FF4077540F24650A3
:10438000CDE900504FF40E730022F5A103A8029569
:1043900001F0C4FBBDF81800ADF800009DF81A004C
:1043A0008DF8020003AEED4896E80E0001F026FEFF
:1043B0004FF4707668000094CDE901603346002226
:1043C000E8A103A801F0AAFBBDF81800ADF80000B1
:1043D0009DF81A008DF8020003ACE04894E80E0046
:1043E00001F00CFE40F2D11040F2C441CDE90001D1
:1043F00002904FF42F730022DBA103A801F08EFB83
:10440000BDF81800ADF800009DF81A008DF8020004
:1044100094E80E00D14801F0F1FD4FF4C3704FF461
:104420008C61CDE9000102904FF448730022D0A1C5
:1044300003A801F073FBBDF81800ADF800009DF86B
:104440001A008DF8020094E80E00C44801F0D6FD71
:1044500040F23B1040F22441CDE9000102904FF4BC
:1044600057730022C3A103A801F058FBBDF8180040
:10447000ADF800009DF81A008DF8020094E80E00D7
:10448000B64801F0BBFD062001F0F6FB192001F053
:10449000F9FB4FF4BE748220CDE90006CDE9025449
:1044A00032230122B4A1049405A801F087FBBDF8D2
:1044B0002000ADF800009DF822008DF802000DF1FB
:1044C0001408A64898E80E0001F098FD0F2001F0AE
:1044D000D9FB4FF49B7BCDE90254CDE900B640F205
:1044E0000F130322A7A105A8049401F067FBBDF8F0
:1044F0002000ADF800009DF822008DF8020098E839
:104500000E00964801F07AFD192001F0BBFB502007
:1045100040F2EE2ACDE902A004904FF4C8684FF4AF
:10452000B470CDE900080023022298A105A801F08B
:1045300045FBBDF82000ADF800009DF822008DF885
:1045400002000DF11409854899E80E0001F056FDAE
:10455000232001F097FB40F2B22940F22B32CDF834
:104560000090CDE90182434600228BA103A801F00F
:10457000D5FABDF81800ADF800009DF81A008DF8C6
:1045800002000DF10C0C75489CE80E0001F036FDA0
:10459000082001F071FB192001F074FB3320CDE9F4
:1045A0000006CDE90254322300227CA1049405A820
:1045B00001F004FBBDF82000ADF800009DF82200DA
:1045C0008DF802000DF1140C64489CE80E0001F017
:1045D00015FD0F2001F056FB3D20CDE90006CDE989
:1045E00002543C23012270A1049405A801F0E6FACC
:1045F000BDF82000ADF800009DF822008DF8020003
:104600000DF1140C55489CE80E0001F0F7FC192040
:1046100001F038FB4720CDE90006CDE902544623DE
:10462000022264A1049405A801F0C8FABDF8200094
:10463000ADF800009DF822008DF802000DF1140C79
:1046400046489CE80E0001F0D9FC0F2001F01AFB4F
:104650005120CDE90006CDE902545023032258A190
:10466000049405A801F0AAFABDF82000ADF80000F6
:104670009DF822008DF802000DF1140C37489CE8DB
:104680000E0001F0BBFC192001F0FCFA5B20CDE923
:104690000006CDE902545A2304224CA1049405A833
:1046A00001F08CFABDF82000ADF800009DF8220062
:1046B0008DF802000DF1140C28489CE80E0001F062
:1046C0009DFC0F2001F0DEFA6520CDE90006CDE962
:1046D00002546423052240A1049405A801F06EFA57
:1046E000BDF82000ADF800009DF822008DF8020012
:1046F0000DF1140C19489CE80E0001F07FFC192004
:1047000001F0C0FA6F20CDE90006CDE902546E2316
:10471000062234A1049405A801F050FABDF8200047
:10472000ADF800009DF822008DF802000DF1140C88
:104730000A489CE80E0001F061FC0F2001F0A2FA8B
:104740007920CDE90006CDE902547823072228A17B
:10475000049405A852E0000000000020C4220020BC
:10476000570000004800000068696768000000000A
:104770006D6964006C6F770070697463685F496E7F
:104780006974000063645F496E6974006779726FD1
:104790005F496E697400000064703100616E676C7F
:1047A000655F313330000000616E676C655F3132E8
:1047B00030000000616E676C655F313130000000D1
:1047C000616E676C655F313030000000616E676C50
:1047D000655F393000000000616E676C655F3830DE
:1047E00000000000616E676C655F363000000000FD
:1047F000616E676C655F35300000000001F0DEF926
:10480000BDF82000ADF800009DF822008DF80200F0
:104810000DF1140CAC489CE80E0001F0EFFB1920E0
:1048200001F030FACDE90254832082230822AFF24E
:104830004001CDE90006049405A801F0BFF9BDF8D8
:104840002000ADF800009DF822008DF8020005ACB4
:104850009D4894E80E0001F0D1FB082001F00CFA0D
:104860000A2001F0BFFB022001F00CFA40F20230F6
:1048700040F2BA44CDE900408223002293A102A86D
:1048800001F006F8BDF81400ADF800009DF8160020
:104890008DF8020002AE8C4896E80E0001F0AEFBE7
:1048A0004FF4257140F2F640CDE900016E2301225C
:1048B00089A102A800F0ECFFBDF81400ADF80000DB
:1048C0009DF816008DF8020096E80E007E4801F073
:1048D00095FB40F21450CDE900055A23022281A134
:1048E00002A800F0D5FFBDF81400ADF800009DF857
:1048F00016008DF8020096E80E00734801F07EFB6A
:104900004FF4D2714FF4A060CDE900014623032299
:1049100077A102A800F0BCFFBDF81400ADF80000BC
:104920009DF816008DF8020096E80E00664801F02A
:1049300065FBCDE9004B322304226DA102A800F0F3
:10494000A7FFBDF81400ADF800009DF816008DF823
:10495000020096E80E005C4801F050FB082001F0D0
:104960008BF9052001F08EF940F25320CDE900507B
:1049700040F23A23022261A103A8029501F0CEF889
:10498000BDF81800ADF800009DF81A008DF802007F
:1049900003AC4D4894E80E0001F030FB082001F014
:1049A0006BF9052001F06EF94FF44871009140F267
:1049B0001132CDE9019240F2A123022250A103A8B5
:1049C00001F0ACF8BDF81800ADF800009DF81A0031
:1049D0008DF8020094E80E003B4801F00FFB082020
:1049E00001F04AF9012001F04DF94321CDE900A180
:1049F0004346022243A102A801F01EFABDF81400AA
:104A0000ADF800009DF816008DF8020002AC2E48AB
:104A100094E80E0001F0F2FA082001F02DF90120CF
:104A200001F030F94FF44B7240F2546140F2B12082
:104A30008DE8070040F22C63022234A103A801F0A4
:104A400081FABDF81800ADF800009DF81A008DF845
:104A5000020003AC1C4894E80E0001F0CFFA97F96D
:104A6000070003F04AFD9FED2A1B53EC112B03F0C6
:104A700097FD9FED291B53EC112B03F0C7FA9FED17
:104A8000281B53EC112B03F097FF03F08DFA00EE77
:104A9000100A012000F052F897ED0F0A012000F0F3
:104AA00095F8214C0120617FFFF768F9A17F012073
:104AB00000F00CF994F82010012000F0CFF801204C
:104AC000787209B0BDE8F08FC42200207772697453
:104AD000655F31333000000077726974655F313192
:104AE0003000000077726974655F393000000000A3
:104AF00077726974655F37300000000063643100CD
:104B00006364320078746C5F696E00006470390011
:104B1000B81E85EB51B8BE3F000000000000F03F1A
:104B20009A9999999999C93F8821002000EB4200F0
:104B30000B0A00F8023D41707047000000B52DEDF2
:104B4000028B99B0B0EE408A01F052FA022001F0D7
:104B500093F81E2001F046FA032001F093F89FED30
:104B6000160A0020159028EE000A1690179013A13F
:104B7000BDEEC00A15A810EE102AFBF7F3FB4FF4A8
:104B800052711420CDE9000115AB01220DA109A835
:104B900000F0E2FE21220CA96846FBF7CBFC0DF1E8
:104BA000240C09489CE80E0001F098FA00F032FF4E
:104BB00019B0BDEC028B00BD00409C4558544C3AE6
:104BC0002564000067797600C422002000B52DED31
:104BD000028B99B0B0EE408A01F00AFA022001F08F
:104BE0004BF81E2001F0FEF9032001F04BF89FED79
:104BF000160A0020159028EE000A1690179013A1AF
:104C0000BDEEC00A15A810EE102AFBF7ABFB40F270
:104C100016311420CDE9000115AB01220DA109A820
:104C200000F09AFE21220CA96846FBF783FC0DF1E7
:104C3000240C09489CE80E0001F050FA00F0EAFE4E
:104C400019B0BDEC028B00BD00007A4559443A25ED
:104C50006400000072706D00C422002010B596B090
:104C60000C4601F0C5F9022001F006F81E2001F003
:104C7000B9F9032001F006F84FF4207114200CB1AB
:104C80000CA300E00DA3CDE9000101220DA109A8AC
:104C900000F062FE21220CA96846FBF74BFC09AC30
:104CA000094894E80E0001F019FA16B0BDE810406A
:104CB00000F0B0BE42503A4F4E00000042503A4F12
:104CC0004646000062700000C422002010B596B075
:104CD0000C4601F08DF9022000F0CEFF1E2001F0FD
:104CE00081F9032000F0CEFF40F2B22114200CB174
:104CF0000CA300E00DA3CDE9000101220DA109A83C
:104D000000F02AFE21220CA96846FBF713FC09AC2F
:104D1000094894E80E0001F0E1F916B0BDE8104032
:104D200000F078BE434D3A4F4E000000434D3A4FDD
:104D300046460000636D0000C42200201222024992
:104D40000248FEF746B800002E190020AC2A0020C9
:104D500010B586B0044618216846FBF73FFC214990
:104D60000888C0F30A00ADF800004878C2088878C7
:104D700042EA4012C2F30A02ADF80220CA78800962
:104D800040EA8202087942EA8022C2F30A02ADF8C0
:104D900004204A79400840EAC210C0F30A00ADF886
:104DA000060090098DF80800C2F301108DF8090083
:104DB000C888ADF80A000889ADF80C004889ADF83C
:104DC0000E00087B8DF81000487B8DF81100C88913
:104DD000ADF81200162269462046FBF766FB06B0C6
:104DE00010BD00002E19002010B504462DED088BD3
:104DF000B0EE408A80ED008A31B1207F68B1012891
:104E000053D0032850D191E084ED018A9FED610ACF
:104E100080ED020ABDEC088B10BDD4ED018A94ED43
:104E200002BA94ED050A10EE100A4BEE008AC4EDAA
:104E3000018A03F0ABFED4ED04BA78EEC80A41EC67
:104E4000190B2BEEAB0A20EE200A10EE100A03F02D
:104E50009DFE41EC180B1BEE100A03F097FE41EC8F
:104E60001A0B1BEE900A03F091FE9FED4B1B53ECC7
:104E7000112B03F095FB53EC1A2B03F091FB53EC31
:104E8000182B03F099FD53EC192B03F089FB41EC2F
:104E9000180B1BEE100A03F079FE53EC182B03F0ED
:104EA000B5F803F081F8A0605AE0206903F06EFEC7
:104EB0009FED3B1B53EC112B03F072FB41EC100BED
:104EC00053EC102B9FED380B51EC100B03F052F903
:104ED00003F06AF8A06194ED020A01F0D4FED4ED6B
:104EE000020A94ED001A60EE200A94ED010A30EEF9
:104EF000410A94ED061A00EE810A00F065F900EE11
:104F0000100AD4ED040AD4ED011AB8EEC00A20EE5E
:104F1000C01AD4ED020A94ED050A40EE801A41EE63
:104F2000000AC4ED011AC4ED020A19E094ED010A69
:104F3000D4ED051A94ED041A30EE480AD4ED020AB5
:104F400000F05CF8D4ED011A94ED021AD4ED050AD4
:104F500041EE201A00EE201AC4ED011A84ED021A67
:104F600094ED030AB5EEC00AF1EE10FA3FF452AF29
:104F7000D4ED020AF4EEC00AF1EE10FA07DCB1EE4D
:104F8000400AF4EEC00AF1EE10FABFF443AF84ED2C
:104F9000020A3FE70000000000000000000000C01F
:104FA0000000000000000040000000000000F03F92
:104FB000C0ED030A80ED040A80ED051A0177704701
:104FC000B0EE401A10B531EE200A00F0FDF80146AF
:104FD00031EE600A00F0F8F8081A03F08EFA9FED3F
:104FE000051B53EC112B03F0DBFA02F0DDFF00EEA2
:104FF000100A10BD000000000000E03F70B561EE37
:10500000A00A2DED068BB0EE419A29EE211A674DCC
:1050100030EE200A05F1800421EE211A85ED1E1ADA
:10502000C5ED1F0A84ED000A01F02DFE10EE100AF6
:1050300003F0ACFD9FED5E1B53EC112B03F0B0FAB7
:1050400041EC180BA86F064603F0A0FD53EC182B9B
:1050500002F0DCFF41EC180B304603F097FD53ECF7
:10506000182B03F09DFA02F09FFF00EE100A02F0E9
:105070003BFB84ED010A94ED000A00F0A5F800EE78
:10508000100AD4ED010AD5ED1E9AB8EEC00A70EEF2
:10509000E90A20EE200A10EE100A03F077FD9FEDDA
:1050A000460B53EC102B03F07BFA41EC180BE86F26
:1050B00003F06CFD53EC182B02F0A8FF02F074FF14
:1050C000A060F0EE690A94ED000AFFF779FF10EE98
:1050D000100A03F05BFD9FED3AAB53EC1A2B03F083
:1050E00093FB41EC180BA06803F050FD53EC182B18
:1050F00003F056FA41EC180BD5ED1E0A94ED000AA8
:10510000FFF75EFFD5ED1F0A94ED001A70EE810ADD
:1051100020EE200A10EE100A03F038FD53EC182B95
:1051200002F074FF02F040FF00EE100A84ED030A63
:10513000D5ED1E0AFFF744FF10EE100A03F026FD1E
:1051400053EC1A2B03F060FB41EC180B94ED030AAF
:1051500000F03AF800EE100AB8EEC00A20EE090A94
:1051600010EE100A03F012FD53EC182B03F018FA9E
:1051700094ED030AD5ED1E0A41EC180B80EE201ABF
:1051800029EE419AFFF71CFF29EE000A10EE100AE3
:1051900003F0FCFC53EC182B03F00EFC02F004FFB0
:1051A000BDEC068B00EE100A70BD00000000002070
:1051B0000000000000002040000000000000E03F70
:1051C000000000000000F03FB5EEC00AF1EE10FA5A
:1051D00001DD01207047B5EEC00AF1EE10FA02D2EF
:1051E0004FF0FF3070470020704770B50D46044601
:1051F000FCF770FA2268801AA84201D3012070BD22
:10520000002070BD70B50C460546FCF763FAB0FB94
:10521000F4F104FB110008B1012100E00021281D78
:1052200001F0E8F8A879002800D0012070BD000046
:1052300010B504462DED048BF0EE408A0129C0ED37
:105240000B8A05D0022934D194F84D00A0B359E05F
:1052500094F84D0058B994ED0E0AF0EE000A60EE95
:10526000200A20EE000AC4ED160A84ED170A94ED18
:10527000081A38EEC10A84ED100AD4ED090AD4EDFB
:10528000161AD4ED0C2AB0EE602A01EE802AD4ED75
:105290000D1A01EEA22AD4ED121A02EE211A84EDA3
:1052A000081A94ED171A21EE000A40EE210AC4ED07
:1052B000090ABDEC048B10BDFFE794ED0E8AB0EE39
:1052C000080A18EE100A28EE000A84ED160A03F008
:1052D0005DFC41EC190B18EE100A03F057FC9FED32
:1052E000210B53EC102B03F05BF953EC192B03F05B
:1052F00057F902F059FE28EE080AE06520EE080A88
:1053000084ED180A94ED081A38EEC10A84ED100AEB
:10531000D4ED091AD4ED160AB0EE612A00EE802A07
:10532000D4ED120A02EE201A84ED081A94ED0A1A3E
:10533000D4ED172A94ED0D3AB0EE412A02EE802A00
:10534000D4ED0C2A03EE222A42EE201AC4ED091AEB
:10535000D4ED181A21EE800A00EE201A84ED0A1A04
:10536000A7E70000000000000000084010B5044658
:105370002DED048B9FED5F0A012902D0022975D122
:1053800019E094F84C0018B994ED0F0A84ED140A52
:1053900094ED010AD4ED080A94ED1B1A30EE600A70
:1053A000D4ED140A20EE200AD4ED150A00EEC10A4D
:1053B000D4ED090A71E094F84C0058B994ED0F0A45
:1053C00060EE000AC4ED140AF0EE000A20EE200A96
:1053D00084ED150A94ED1D9AB5EEC09AF1EE10FA1F
:1053E00045D0D4ED099A94ED120AD4ED1F0A206F2E
:1053F00049EE800AC4ED1E0A03F0C8FB41EC180B0D
:1054000019EE100A03F0C2FB9FED3B1B53EC112B6E
:1054100003F0FAF953EC182B03F0C2F829EE290A2D
:1054200041EC180B10EE100A03F0B0FB53EC182BF4
:1054300002F0ECFD02F0B8FD00EE100A84ED1F0A48
:10544000D4ED010A94ED081A70EEC10A94ED141A15
:1054500060EE810A94ED021A31EE400A94ED151ABD
:1054600041EE000A94ED0A0A30EEC00A17E094ED0E
:10547000010AD4ED080A94ED091A30EE600AD4ED61
:10548000140A20EE200AD4ED020A70EEC10A94ED4F
:10549000151A01EE200AD4ED0A0A30EE600A94F8DB
:1054A000801094F88100814205D9401C84F8810065
:1054B000BDEC048B10BD002084F8810094ED0D1A22
:1054C000C0EE010AC4ED0C0A94ED110AF4EEC00A14
:1054D000F1EE10FA01DD84ED0C0AD4ED0C0AB1EE08
:1054E000400AF4EEC00AF1EE10FAE1D284ED0C0AA3
:1054F000DEE7000000000000000000000000F03FB8
:1055000070B50D462DED028BB0EE608A0446114653
:10551000FFF76AFC2946B0EE480A2046FFF788FEEE
:1055200029462046FFF722FF94ED0C0ABDEC028BC2
:1055300070BD0FB420222DED060B10B504462DEDE5
:10554000068BB0EE62AAB0EE428AF0EE61AAB0EE2F
:10555000419AF0EE609AF0EE408A0FA9FAF7EAFF5E
:10556000C4ED11AA84ED128A84ED19AA04F1340164
:105570000020C1EC038A84F84D0084F84C0084EDCF
:10558000058A2046BDEC068B10BC5DF82CFB0000A4
:1055900010B504462DED088B88B000200146B0EE12
:1055A000618A00900190029003900490059006900B
:1055B00007906A4604A802EB810383ED000A00EB22
:1055C0008103491CC9B2C3ED000A0429F3D3DDED00
:1055D000000A9DED040A70EEC10A20EE000ACDED2E
:1055E000000ADDED021A00EEA00A31EE811A8DEDFF
:1055F000021A01F04DFBDFED588AC0EE280A20EEBA
:10560000880A84ED000A9DED050ADDED010A20EE11
:10561000000A00EEA00A01F03BFBC0EE280A20EED3
:10562000880A84ED010A9DED060ADDED020A20EEEE
:10563000000A00EEA00A01F02BFBC0EE280A20EEC3
:10564000880A84ED020A9DED070ADDED030A20EECB
:10565000000A00EEA00A01F01BFBC0EE280A20EEB3
:10566000880A84ED030ADDED040A9DED000A01F0CD
:1056700011FB9FED3ABA20EE0B0A10EE100A03F070
:1056800085FA9FED378B53EC182B02F073FD9FEDDD
:10569000369B53EC192B02F083FF9FED35AB53EC97
:1056A0001A2B02F067FD02F07FFC2061DDED050A98
:1056B0009DED010A01F0EEFA20EE0B0A10EE100A41
:1056C00003F064FA53EC182B02F054FD53EC192B41
:1056D00002F066FF53EC1A2B02F04CFD02F064FC62
:1056E0006061DDED060A9DED020A01F0D3FA20EEBD
:1056F0000B0A10EE100A03F049FA53EC182B02F0D3
:1057000039FD53EC192B02F04BFF53EC1A2B02F02E
:1057100031FD02F049FCA061DDED070A9DED030AB1
:1057200001F0B8FA20EE0B0A10EE100A03F02EFA80
:1057300053EC182B02F01EFD53EC192B02F030FF36
:1057400053EC1A2B02F016FD02F02EFCE06108B0BB
:10575000BDEC088B10BD0000000025440000344360
:105760001F85EB51B81E09400000000000FFBF403C
:10577000000000000080764010B54FF47A74FBF70B
:10578000A9FF08490968401AA04201D3012000E09E
:105790000020044C0C3C207008B900F005F820787B
:1057A00010BD0000E4000020012202490248FDF77C
:1057B000E5BD0000D9000020F42A00200A4910B5F8
:1057C000884210D1FBF786FF08490860A1F10C0060
:1057D000407800F029F905490122BDE810400B3955
:1057E0000148FDF7BDBD10BDF42A0020E4000020F3
:1057F00030B5A1B00D46044678216846FAF7EEFEB2
:1058000000221E924FF48070ADF878001E481F925F
:105810000078ADF87A0000F057FBADF87C00A520C9
:105820008DF800000820ADF8010040F20130ADF81D
:1058300005001548802200212C30FAF736FE1E980C
:10584000CDF80700BDF87C00ADF80B000E488DF8D0
:105850000D408DF80E50782269462C30FAF725FE5F
:10586000094805212C3000F077FCBDF801100648EE
:1058700009312C3000F092FC034980222C3103487E
:10588000FDF7CCFD21B030BDAC2D0020F42A002066
:105890002DE9FF410024DDE90A56009401940294A9
:1058A00003940C88ADF8004089788DF802102949DE
:1058B0009DF803400F7B67F3020424F03804303472
:1058C0008DF80340BDF8034062F38914ADF803403E
:1058D0000A799DF8044062F385048DF804400A8833
:1058E000BDF8074062F30904ADF807400989BDF827
:1058F000042061F38E12BDF80810ADF8042065F3A2
:105900008C01ADF80810BDF8091066F34F11ADF821
:105910000910BDF80B1041EA030262F30901ADF86A
:105920000B10BDF80C108A0842EA932262F38C0136
:10593000ADF80C10BDF80D104A0942EA535262F35B
:105940004F11ADF80D100F226946FAF7AEFDBDE814
:10595000FF810000EC0000202DE9F0438DB00C46E3
:10596000DDE9145680469946174630216846FAF715
:1059700035FE2088ADF80000A0788DF8020024489C
:105980009DF80310027B62F3020141F038018DF8AB
:105990000310BDF8031067F38911ADF80310017906
:1059A0009DF8042061F385028DF804200188BDF87C
:1059B000072061F30902ADF807200089BDF8041043
:1059C00060F38E11ADF804104846FAF74FFDBDF8AC
:1059D000051060F3CF11ADF80510BDF80800CA0935
:1059E00065F38C00ADF80800BDF80900494666F380
:1059F0004F10ADF809000DF10F00FAF756FD2D22FA
:105A000069464046FAF751FD0DB0BDE8F08300004D
:105A1000EC00002003490120C860886008604860ED
:105A200070470000EC00002070B50D4C0546A5281D
:105A300002D1A068401CA060A168022907D00129FA
:105A400004D1084861684554491C616070BD05482F
:105A5000616800F01DF90120A06000206060F0E79F
:105A6000D8000020582E00200FB4782100B5A1B036
:105A70006846FAF7B3FD00201E901F904FF488701F
:105A8000ADF8780023480078ADF87A0000F01CFAF1
:105A9000ADF87C00A5208DF800003320ADF80100A2
:105AA00040F20130ADF805001A48802200212C3068
:105AB000FAF7FBFC1E98CDF80700BDF87C00ADF8A6
:105AC0000B000F2222A90DF10D00FAF7EEFCBDF834
:105AD0008D000DF19701C20907A8FAF7E6FC0D4801
