:020000040800F2
:10000000102E00204D020008DD320008D932000811
:10001000DB320008AD050008C13800080000000010
:10002000000000000000000000000000E1320008B5
:10003000B506000800000000DF320008E3320008C7
:1000400067020008670200086702000867020008EC
:1000500067020008670200086702000867020008DC
:1000600067020008670200086702000867020008CC
:1000700067020008670200086702000867020008BC
:1000800067020008670200086702000867020008AC
:10009000B1050008BD0500086702000867020008F6
:1000A000670200086702000867020008670200088C
:1000B000670200086702000867020008670200087C
:1000C000670200086702000867020008670200086C
:1000D000670200089D38000867020008A938000878
:1000E000670200086702000867020008670200084C
:1000F000670200086702000867020008670200083C
:100100006702000867020008F93200086702000869
:10011000670200086702000805330008670200084C
:1001200067020008E1050008ED0500086702000805
:1001300067020008670200086702000867020008FB
:10014000C9050008D5050008670200086702000815
:1001500067020008F905000805060008B538000820
:1001600067020008670200086702000867020008CB
:10017000670200086702000867020008000000002C
:10018000670200086702000800F002F800F04EF86D
:100190000AA090E8000C82448344AAF10107DA45E2
:1001A00001D100F043F8AFF2090EBAE80F0013F0E6
:1001B000010F18BFFB1A43F001031847BC88000069
:1001C000DC8800000A4410F8014B14F00F0508BF4A
:1001D00010F8015B240908BF10F8014B6D1E05D013
:1001E00010F8013B6D1E01F8013BF9D1641E03D0EC
:1001F000641E01F8015BFBD19142E4D3704700001B
:100200000023002400250026103A28BF78C1FBD81F
:10021000520728BF30C148BF0B6070471FB507F0B9
:1002200046FF00F04BF91FBD10B510BD00F06CF992
:100230001146FFF7F3FF07F05DF800F08AF903B409
:10024000FFF7F2FF03BC00F08DF90000094880477A
:1002500009480047FEE7FEE7FEE7FEE7FEE7FEE7A8
:10026000FEE7FEE7FEE7FEE704480549054A064BC0
:1002700070470000E93200088901000810280020BA
:10028000102E0020102A0020102A002053EA020C11
:1002900000F069802DE9F04B4FF00006002B1FBFE6
:1002A000B3FA83F503FA05F424FA05F65E4012BFAB
:1002B0001643B2FA82F502FA05F4C5F120051EBF15
:1002C00022FA05FC44EA0C04203556EA044C4FEAB5
:1002D000144418BF641C4FF000084FF0000990420E
:1002E00071EB030C39D3002919BFB1FA81F701FA78
:1002F00007F6B0FA80F700FA07F6C7F120071EBF2D
:1003000020FA07FC46EA0C062037B6FBF4FCA7EB04
:100310000507103F07F01F0BCBF120060CFA0BFB73
:100320002CFA06F644BFB3460026202FA4BF5E4633
:100330004FF0000B5BEA060C08BF4FF0010B19EB06
:100340000B09ABFB027C48EB0608C01B06FB02CC8A
:100350000BFB03CC71EB0C01C1E70B460246414697
:100360004846BDE8F08B13B54FF000004FF0000198
:10037000AFF30080BDE81C407047032A40F2308094
:1003800010F0030C00F0158011F8013BBCF1020FD6
:10039000624498BF11F801CB00F8013B38BF11F857
:1003A000013BA2F1040298BF00F801CB38BF00F86E
:1003B000013B11F0030300F02580083AC0F00880EB
:1003C00051F8043B083A51F804CBA0E80810F5E7CF
:1003D000121D5CBF51F8043B40F8043BAFF30080B2
:1003E000D20724BF11F8013B11F801CB48BF11F827
:1003F000012B24BF00F8013B00F801CB48BF00F8F7
:10040000012B704710B5203AC0F00B80B1E81850AE
:10041000203AA0E81850B1E81850A0E81850BFF4EE
:10042000F5AF5FEA027C24BFB1E81850A0E818508D
:1004300044BF18C918C0BDE810405FEA827C24BFE1
:1004400051F8043B40F8043B08BF7047D20728BF6F
:1004500031F8023B48BF11F8012B28BF20F8023BBE
:1004600048BF00F8012B70474FF0000200B513465B
:1004700094469646203922BFA0E80C50A0E80C50C4
:10048000B1F12001BFF4F7AF090728BFA0E80C5075
:1004900048BF0CC05DF804EB890028BF40F8042B6E
:1004A00008BF704748BF20F8022B11F0804F18BFDB
:1004B00000F8012B704770477047704770B5064CC5
:1004C0007C44064D7D4403E0206820448047241D81
:1004D000AC42F9D170BD0000D4850000D485000085
:1004E00010B500F009F8006810BD10B5044600F022
:1004F00003F8046010BD000000487047AC270020DE
:1005000000487047AC2700207546FFF7F9FFAE465C
:1005100005006946534620F00700854618B020B50F
:10052000FFF7A2FEBDE820404FF000064FF00007A5
:100530004FF000084FF0000B21F00701AC46ACE88B
:10054000C009ACE8C009ACE8C009ACE8C0098D46F8
:10055000704710B50446AFF300802046BDE8104058
:10056000FFF76DBE01491820ABBEFEE72600020072
:100570007047000010B504464FF462720349FFF75C
:1005800041FF2046BDE8104005F0B8B8C88000081B
:1005900010B504464FF462720349FFF733FF20465B
:1005A000BDE8104005F0AAB850840008FEE700003E
:1005B000014800F0FEB9000074240020014800F05A
:1005C000F8B9000074240020014800F0F2B90000DE
:1005D0009C240020014800F0ECB900009C2400207D
:1005E000014800F0E7BC0000EC260020014800F0C4
:1005F000E1BC00002C260020014800F0DBBC00001C
:100600004C270020014800F0D5BC00008C260020BB
:1006100001681823CAB2103AB2FBF3F2054B6FF32C
:100620000901032A9B5CC36500D9091D8165084641
:1006300070470000D887000810B5014600208B697C
:100640008A6A4FF0C07453B1B3F5005F15D072B130
:10065000012A0CD0022A0AD0032A09D104E01AB1D7
:10066000012A06D0022A03D1C96AC90100D5012096
:1006700010BDC96AA142FAD010BD002AF7D0012AE4
:10068000F2D0022AF3D0032AF3D010BD30B50468AB
:10069000256825F480252560046863608368402B05
:1006A000036803D099600068C26030BD9A6000683A
:1006B000C16030BD704772B6FEE790F82020012A75
:1006C00007D0022A05D0416A41F48021416201200D
:1006D0007047006842690A43426100207047F0B5E4
:1006E00090F820500468A468012D05D0022D03D095
:1006F000416A41F4802157E014F0406F01D1E500D8
:100700004FD5C4F301640125A5401D608D684FF4E9
:10071000C0739DB1CE6835434E6845EAC60506688C
:1007200003EB0417F5514FF4C275076805EB041588
:100730000E697E51097D012905D009E00E88CD683A
:1007400045EA4655EBE701684E5946F480764E512E
:100750001179D579567941EA056195792D0445EAF3
:10076000062529434FF4C676056806EB0416A95101
:100770001178D57841EA0561957852782D0445EADB
:10078000022211434FF4C475026805EB0415515160
:10079000006803EB0411425842F00102425000206D
:1007A000F0BD416A41F4001141620120F0BD00003A
:1007B00010B590F82020012A07D0022A05D0416AFE
:1007C00041F480214162012010BD3B48D0F8002255
:1007D00042F00102C0F80022D0F8002222F47C523C
:1007E000C0F80022D0F800224B6A42EA0322C0F887
:1007F00000220A7D02F01F0301229A40D0F81C3229
:100800009343C0F81C32CB69B3B9D0F80C32934390
:10081000C0F80C328C894B6864F31F434C6900EBC1
:10082000C404C4F840320C890B6864F31F434C695C
:1008300000EBC404C4F84432CB69012B16D1D0F8C4
:100840000C321343C0F80C320C884B6864F31F431E
:100850004C6900EBC404C4F840320C89CB6864F3E3
:100860001F434C6900EBC404C4F844328B69002B6D
:10087000D0F804320ED01343C0F804320B69002BB9
:10088000D0F8143208D01343C0F81432096A012991
:1008900004D008E09343EFE79343F5E7D0F81C1248
:1008A0001143C0F81C12D0F8001221F00101C0F869
:1008B0000012002010BD000000640040704770B5B9
:1008C00090F82040012C05D0022C03D0416A41F45D
:1008D000802128E0046809B32469A40720D04FF4DC
:1008E000D874056804EB01142D5915F004059560C2
:1008F00005682D591AD0ED08556005682C5904F08B
:100900000204D4604FF4DA74056804EB01142E5924
:1009100006F00F06082E0CD308250DE0E468DCE78E
:10092000416A41F400114162012070BD6D0D1560F6
:10093000E3E72D5905F00F05156105682D59C5F33D
:100940000725956105682C59240C54614FF4DC721D
:10095000046802EB0112A4581C700468A458240A0D
:100960005C700468A458240C9C700468A258120E91
:10097000DA704FF4DE72046802EB0112A4581C71A5
:100980000468A458240A5C710468A458240C9C715F
:100990000468A258120EDA71006829B1016941F0A9
:1009A00020010161002070BDC16841F02001C160DB
:1009B000F8E72DE9F05F0546006800244669D0F8A5
:1009C00004908768D0F80CB0D0F810A0D0F8188048
:1009D000F10748D0F90714D001218160B80703D589
:1009E000284600F086FA0CE0780702D54FF4006440
:1009F00007E0380702D54FF4805402E0284600F0A3
:100A000077FAF80516D529684FF480708860B80524
:100A100003D5284600F06FFA0CE0780502D544F4BF
:100A2000005407E0380502D544F4804402E028462B
:100A300000F060FAF80316D529684FF4803088601A
:100A4000B80303D5284600F058FA0CE0780302D525
:100A500044F4004407E0380302D544F4803402E053
:100A6000284600F049FA300707D55FEACB6004D585
:100A70002968102044F40074C86070074FF008071C
:100A800007D55FEA0B7004D52868C760284600F0D8
:100A9000A9F9B00706D52868C068800702D02846A3
:100AA00000F0A2F9700607D55FEACA6004D529688C
:100AB000102044F480640861B00607D55FEA0A702C
:100AC00004D528680761284600F0E2F9F00606D54B
:100AD00028680069800702D0284600F0DAF9B003E0
:100AE00008D55FEAC96005D5296810204860284606
:100AF00000F0D0F9F00307D55FEA097004D5286843
:100B00004760284600F0FAF9300446D55FEA49709C
:100B100040D5F00504D55FEAC87001D044F0010467
:100B2000B00504D55FEA887001D544F00204700571
:100B300004D55FEA487001D544F00404300529D596
:100B400018F0700F26D008F07000402815D006DC91
:100B5000102809D020280AD0302816D10AE05028C1
:100B60000ED0602811D10EE044F008040DE044F0EE
:100B700010040AE044F0200407E044F0400404E0DC
:100B800044F0800401E044F480742868816921F015
:100B900070018161296804204860002C05D0686AD2
:100BA000204368622846FFF789FEBDE8F09F70B5D4
:100BB000040003D094F8200010B104E0012070BDBF
:100BC000204600F081F82068016841F001010160D1
:100BD00000F06CFC0546052604E000F067FC401BB5
:100BE0000A2811D820684068C007F6D0206801683C
:100BF00021F00201016000F059FC05460BE000F015
:100C000055FC401B0A2806D9606A40F40030606237
:100C100084F82060D2E7206840688007EFD4207E07
:100C20000128206801683DD021F080010160607ECC
:100C300001282068016838D021F040010160A07EC1
:100C400001282068016833D021F020010160E07E96
:100C50000128206801682ED041F010010160207F3A
:100C600001282068016829D021F008010160607F17
:100C700001282068016824D021F004010160D4E932
:100C800002010843D4E90412114308436168491E74
:100C900008432168C86100206062012084F82000B8
:100CA000002070BD41F08001C0E741F04001C5E780
:100CB00041F02001CAE721F01001CFE741F008011F
:100CC000D4E741F00401D9E7F0B587B00446142118
:100CD0006846FFF7C9FB3E4B3E48DFF8F0E0196875
:100CE000D4F800C03B4A032502260927103000240F
:100CF000491CF4452AD11960012907D1016841F046
:100D000000710160006800F000700590106840F00C
:100D1000080010601068CDE9005600F00800CDE929
:100D2000047069462C48CDE9024500F0C7FA00225C
:100D30001146142000F028FC142000F017FC0022BB
:100D40001146152000F020FC15203AE0DFF88CE079
:100D5000F44538D1D0F800C04CF0806CC0F800C029
:100D6000D0F800C001290CF0806CCDF814C01960D7
:100D700007D1016841F000710160006800F0007067
:100D80000590106840F002001060106802AB00F09F
:100D9000020005906020CDE9000683E8B0006946B6
:100DA0000F4800F08BFA00221146402000F0ECFBC7
:100DB000402000F0DBFB00221146412000F0E4FB64
:100DC000412000F0D3FB07B0F0BD000000640040FC
:100DD0008401002030380240000C024000680040CE
:100DE000000402407047000070B586B00646224BF2
:100DF000224A0021FFF763FD204C21481E4D403C54
:100E0000864228D104F14C0004950FC88DE80F00EC
:100E100040341C4894E80E00403C04F09BFC4C34E9
:100E2000049594E80F008DE80F000C3C154894E8F9
:100E30000E001038403C04F08DFC4C34049594E8CE
:100E40000F008DE80F000C3C0E4894E80E0020388F
:100E5000403C04F07FFC0C4886420BD104F14C006E
:100E600004950FC88DE80F004034084894E80E0040
:100E700003F0FAFA06B070BDE80000205824002004
:100E800074240020AC1300209C240020F0160020C5
:100E9000704770477047000070B5044690F8200016
:100EA000012804D0606A40F40020606218E002204B
:100EB00084F820002068016821F00101016000F041
:100EC000F5FA05460EE000BF00F0F0FA401B0A28D4
:100ED00008D9606A40F400306062052084F8200080
:100EE000012070BD20684068C007EDD1606270BD10
:100EF00070477047704770477047704770472DE9DB
:100F0000F0410446876D00F0D1FA064694F83500AA
:100F10000025022806D08020606584F83450012026
:100F2000BDE8F0812068016821F0160101602068A9
:100F3000416921F080014161206C08B9A06C20B1A9
:100F40002068016821F0080101602068016821F033
:100F5000010101600CE000F0A9FA801B052807D907
:100F600020206065032084F8350084F83450D7E7EA
:100F700020680068C007EED194F85C103F208840DC
:100F8000B860012084F8350084F834500020C7E7A9
:100F900090F83510022903D0802141650120704767
:100FA000052180F835100068016821F00101016019
:100FB000002070472DE9F84304464FF00009CDF8B2
:100FC000009063484FF41651A56D0068B0FBF1F72F
:100FD0002E6894F85C10082000FA01F131420FD01D
:100FE00021680A6852070BD50A6822F004020A60D9
:100FF00094F85C108840A860606D40F00100606566
:1010000094F85C104FF0010808FA01F0304208D063
:1010100021684969090604D5A860606D40F00200A6
:10102000606594F85C1004208840304208D0216844
:101030000968890704D5A860606D40F00400606508
:1010400094F85C1010208840304218D0216809685C
:10105000090714D5A86020680168490304D5006811
:10106000000308D5A16C07E00168C90503D4016835
:1010700021F008010160216C09B12046884794F8ED
:101080005C1020208840304231D021680968C906B0
:101090002DD5A86094F8350005282068016806D091
:1010A000490347D5006800031DD4616C1CE021F0A2
:1010B000160101602068416921F080014161206CC6
:1010C00008B9A06C20B12068016821F00801016016
:1010D00094F85C103F208840A86084F8358084F83C
:1010E0003490216D1FE0E16B09B120468847606DA7
:1010F00000282BD0606DC00714D0052084F835007F
:101100002068016821F0010101600098401C0090F6
:10111000B84203D820680068C007F6D184F835804B
:1011200084F83490E16C002910D001B02046BDE86D
:10113000F04308470168C905D5D4016821F01001C2
:10114000016084F8358084F83490CCE7BDE8F883FA
:10115000940100202DE9F041044600F0A7F906466D
:101160005CB1022084F83500002584F834502068F2
:10117000016821F0010101600DE00120BDE8F0816E
:1011800000F094F9801B052805D920206065032014
:1011900084F83500F2E720680068C007F0D12268C3
:1011A000116820480140D4E901031843D4E903360B
:1011B0003343184363691843A3691843E369184329
:1011C000236A18430843616A042903D1D4E90B1345
:1011D00019430843106020684069666A20F00701DF
:1011E00030460E43012704280CD1A06A0643E06A6A
:1011F00040B12046FFF720FA20B14020606584F816
:101200003570BAE7206846612046FFF701FA94F886
:101210005C203F2191408160656584F83570002035
:10122000ACE700003F8010F02DE9F0410446866DE8
:1012300090F83400002501280DD0012084F83400F6
:1012400094F835700020012F07D084F8340002256F
:101250002846BDE8F0810220FBE7022784F83570BC
:1012600060652046FFF712FA94F85C103F20884032
:10127000B0602068016841F016010160206C20B167
:101280002068016841F0080101602068016841F0B0
:1012900001010160DCE7000070B5044600F006F9CA
:1012A0000546601C02D004480078044400F0FEF8B3
:1012B000401BA042FAD370BD880100202DE9F84FF1
:1012C000DFF8BCA10022012503264FF00F090AF127
:1012D000040BAAF1040E00BF0B6805FA02F42340C8
:1012E000A34270D10F7907F00307012F01D0022F1D
:1012F00016D187684FEA420806FA08FC27EA0C076D
:10130000D1F80CC00CFA08FC4CEA070CC0F808C075
:101310004768A7430C79C4F3001494403C434460ED
:101320000C79E443A4070AD0C4684FEA420C06FAD9
:101330000CF7BC438F6807FA0CF72743C7600C799A
:1013400004F00304022C12D1D40800EB840CDCF866
:1013500020405707FF0E09FA07F824EA0804D1F8DD
:10136000108008FA07F848EA0408CCF820800468DE
:101370004FEA420C06FA0CF7BC430F7907F003075B
:1013800007FA0CF7274307604C6814F4403F70D00D
:101390003C4C276847F480472760246822F0030705
:1013A00004F480440094384C07EB040CDCF8084843
:1013B00097074FEA177809FA08F7BC43334FB8424A
:1013C00002D1002724E054E0314FB84201D1012777
:1013D0001EE0304FB84201D1022719E02E4FB8422B
:1013E00001D1032714E02D4FB84201D104270FE0AB
:1013F0002B4FB84201D105270AE02A4FB84201D14C
:10140000062705E0284FB84201D1072700E008274A
:1014100007FA08F72743CCF80878DAF8004057466F
:10142000D1F804C09C435FEACC2C00D51C433C603F
:10143000DBF800405F46D1F804C09C435FEA8C2C87
:1014400000D51C433C60DEF800407746D1F804C06C
:101450009C435FEA8C3C00D51C433C60084F083F2E
:101460003C68D1F804C09C435FEACC3C00D51C43E7
:101470003C60521C102AFFF42FAFBDE8F88F00002B
:10148000083C014044380240003001400000024066
:101490000004024000080240000C0240001002401C
:1014A0000014024000180240001C024001488068FD
:1014B00070470000880100200248816802781144CA
:1014C00081607047880100200B4810B5016841F425
:1014D00000710160016841F480610160016841F4BC
:1014E00080710160032000F06FF80F2000F006F813
:1014F00000F024F8002010BD003C024070B50D4DF6
:1015000004464FF47A712878B1FBF0F00A49096873
:10151000B1FBF0F000F00CFB48B9102C07D2002210
:101520002146501E00F030F800206C6070BD012094
:1015300070BD000088010020940100200A4808B511
:10154000016841F480410160006800F4804000902F
:101550000548001F016841F080510160006800F0FB
:101560008050009008BD000044380240002809DB8C
:1015700000F01F02012191404009800000F1E020AD
:10158000C0F8001170470000F0B40E4B1B680C4609
:10159000C3F30223C3F10705042D00D90425191D47
:1015A000072901D2002300E0DB1E012606FA05F11F
:1015B000491E214099409E40761E16403143F0BCA2
:1015C00004F0BDB90CED00E0064900F00702086820
:1015D0004FF6FF03184040EA0220034A1043086018
:1015E000704700000CED00E00000FA052DE9F0471F
:1015F0000E46050065D0DFF81481D8F80000F7B278
:1016000000F00700B04207D288F80070D8F8000058
:1016100000F00700B04254D128683D4C810712D534
:10162000400703D5206840F4E05020602878000788
:1016300003D5206840F4604020602068A96820F04D
:10164000F000084320602878C0072DD03049686832
:101650000839012812D0022813D0032811D00968B4
:10166000890700292DDA216821F003010143216057
:10167000FFF71CFF814641F2883A0EE009688903B2
:10168000EFE709688901ECE7FFF710FFA0EB09011C
:10169000514502D90320BDE8F0872068696800F051
:1016A0000C00B0EB810FEFD1D8F80010404601F0EC
:1016B0000701B14207D90770006800F00700B04287
:1016C00001D00120E7E72878400705D52068E968C0
:1016D00020F4E050084320602878000706D52068F1
:1016E000296920F4604040EAC100206000F038F829
:1016F0002168084AC1F30311515CC84006490860DB
:1017000006480068FFF7FAFE0020C4E7003C0240EC
:1017100008380240E0870008940100208C01002076
:101720000448054900680968044AC1F38221515CF4
:10173000C84070479401002008380240F087000834
:101740000448054900680968044AC1F34231515C04
:10175000C84070479401002008380240F087000814
:10176000154810B5006810F00C02144813D0144945
:10177000042A0FD0082A0ED10F4C241F2268236898
:1017800002F03F025B0207D52068C0F38810A0FB7F
:10179000010106E0084610BD2168C1F38811A1FBD4
:1017A00000010023FEF772FD2168C1F30141491CCD
:1017B0004900B0FBF1F010BD083802400024F400ED
:1017C000001BB7002DE9F84F04006ED02078DFF839
:1017D0004C93C007A9F104054AD009F1040001683F
:1017E000C1F38101012908D00068C0F381000228FB
:1017F0000AD1D9F80000400206D52868800337D501
:1018000060680028E1D033E06068B0F5803F10D018
:10181000B0F5A02F286810D020F480302860286808
:1018200020F4802028606068A8B1FFF73FFE0646DC
:101830000DE0286840F48030F4E740F48020286010
:10184000F7E700BFFFF732FE801B642873D82868D3
:101850008003F7D50CE0FFF729FE064605E000BF40
:10186000FFF724FE801B6428F0D828688003F7D493
:101870002078DFF8AC8280074FF0000A3ED5A748F9
:10188000001D016811F00C0F08D00068C0F3810042
:1018900002280BD1D9F80000400207D4286880073D
:1018A00016D5E068012800D112E033E1E068B8B154
:1018B0000120C8F80000FFF7F9FD064605E000BF6B
:1018C000FFF7F4FD801B0228C0D828688007F7D5F1
:1018D0002868216920F0F80040EAC10028600DE086
:1018E000C8F800A0FFF7E2FD064604E0FFF7DEFDC2
:1018F000801B02281FD828688007F7D420780007AB
:1019000022D5864F87486169703771B10121016026
:10191000FFF7CCFD064604E0FFF7C8FD801B022858
:1019200009D838688007F7D50EE0C0F800A0FFF7A7
:10193000BDFD064605E082E0FFF7B8FD801B0228EA
:101940007DD838688007F7D42078400768D5DFF85D
:10195000CCB100270BF13C0BDBF80000C0000BD42E
:10196000DBF8001041F08051CBF80010DBF80000EC
:10197000012700F0805000906B4E3068C00510D4F5
:10198000306840F480703060FFF790FD009005E013
:10199000FFF78CFD0099401A022850D83068C00526
:1019A000F6D55E4EA0686C3601280FD00528306849
:1019B00010D020F001003060306820F0040030606A
:1019C000A068B8B1FFF772FD00900FE0306840F0FA
:1019D0000100F4E740F004003060F7E7FFF766FD30
:1019E0000099411A41F28830814266D830688007F8
:1019F000F4D50EE0FFF75AFD009007E0FFF756FD23
:101A00000099411A41F28830814256D830688007E7
:101A1000F4D42FB1DBF8001021F08051CBF8001086
:101A2000A069C8B33D49091D0968C1F381010229B4
:101A30004AD00228504607D0C8F8600000E03CE0D9
:101A4000FFF734FD04463BE04746C8F86000FFF767
:101A50002DFD064605E000BFFFF728FD801B02288C
:101A60002BD828688001F7D4D4E907010843A16A7C
:101A70002E4A490802EB0141626A41EA8211084399
:101A800094F82C1040EA0161C9F800100120386672
:101A9000FFF70CFD044606E03EE000BFFFF706FD41
:101AA000001B022809D828688001F7D534E000BF60
:101AB000FFF7FCFC001B022802D90320BDE8F88FC9
:101AC00028688001F4D427E00128F7D0D9F8000075
:101AD000E26900F4800191421CD1226A00F03F01CA
:101AE000914217D147F6C071626A0140B1EB821F83
:101AF00010D1A26A4FF0FF3300F4403103EB5202E1
:101B0000B1EB024F06D194F82C1000F07060B0EBEE
:101B1000016F01D00120D1E70020CFE70438024057
:101B200000004742800E4742007000400000FFFF67
:101B300010B5401EB0F1807F01D3012010BD4FF0E1
:101B4000E02460610F21601703F0F9FE0020A0611E
:101B500007202061002010BD7047704770B590F8D5
:101B60003C20012A32D0012480F83C40022280F837
:101B70003D2003685A689D6822F070060A68324367
:101B80005A60134B02689A4214D0B2F1804F11D0C0
:101B9000104B9A420ED0104B9A420BD00F4B9A42E8
:101BA00008D00F4B9A4205D00E4B9A4202D00E4BF2
:101BB0009A4204D1496825F080031943916080F866
:101BC0003D40002180F83C10084670BD022070BDE9
:101BD000000001400004004000080040000C0040EC
:101BE00000040140004001400018004010B504000E
:101BF00003D094F83D0010B107E0012010BD002093
:101C000084F83C00204600F01FF8022084F83D00D4
:101C1000211D206801F07CFB012084F8460084F837
:101C20003E0084F83F0084F8400084F8410084F8C6
:101C3000420084F8430084F8440084F8450084F8A6
:101C40003D00002010BD000008B5154A0168154888
:101C500091420ED1016841F0080101600068002244
:101C600000F00800009011463220FFF78DFC322072
:101C700010E00D4A914211D1016841F0100101605C
:101C80000068002200F01000009011463620FFF797
:101C90007BFC3620BDE80840FFF768BC08BD0000AB
:101CA000000C0040403802400010004090F83D1009
:101CB000012901D001207047022180F83D10016800
:101CC000CA6842F00102CA6000681149884214D013
:101CD000B0F1804F11D00F4988420ED00E49884292
:101CE0000BD00E49884208D00D49884205D00D49D5
:101CF000884202D00C49884204D1816801F0070172
:101D0000062903D0016841F00101016000207047FD
:101D1000000001400004004000080040000C0040AA
:101D200000040140004001400018004070B5044626
:101D300090F83C000025012817D0012684F83C606B
:101D4000022084F83D002068826822F0770222F4A5
:101D50007F4282600868502838D00DDC20284FD0A0
:101D600005DC90B3102811D14AE0022070BD302864
:101D700046D040280AD13BE060282FD070280DD0F3
:101D8000B0F5805F03D0B0F5005F12D0012584F874
:101D90003D60002084F83C00284670BDCB68D1E946
:101DA0000121206801F020FB2068816841F0770163
:101DB00009E0CB68D1E90121206801F015FB20681A
:101DC000816841F480418160E1E719E0CA684968AF
:101DD000206801F01BFB5021206806E0CA684968B2
:101DE000206801F024FB6021206801F007FBCEE7AA
:101DF000CA684968206801F009FB40212068F4E7BF
:101E0000226801461046F0E770472DE9F04104468C
:101E10000068C66805694FF00007A90713D5B10728
:101E200011D5F91E016101202077206880698007A3
:101E3000204602D0FFF7E8FF04E000F07EF82046DD
:101E400000F07CF82777680716D5700714D521684D
:101E50006FF004000861022020772068806910F488
:101E6000407F204602D0FFF7CFFF04E000F065F886
:101E7000204600F063F82777280715D5300713D5DB
:101E800021686FF008000861042020772068C0698D
:101E90008007204602D0FFF7B7FF04E000F04DF8BE
:101EA000204600F04BF82777E80616D5F00614D543
:101EB00021686FF010000861082020772068C06951
:101EC00010F4407F204602D0FFF79EFF04E000F0B0
:101ED00034F8204600F032F82777E80708D0F007FA
:101EE00006D021686FF001000861204600F028F854
:101EF000280608D5300606D521686FF080000861F5
:101F00002046FFF729FE680608D5700606D5216829
:101F10006FF040000861204600F0BBFEA8060AD51D
:101F2000B00608D521686FF0200008612046BDE8A2
:101F3000F041FFF712BEBDE8F08170477047000026
:101F40002DE9F04FFC4982462DED0A8B8DB09FEDB7
:101F5000FB9BFC4C88427BD100272771E772A7725C
:101F6000F94B2772A7711846197A407A012901D1D5
:101F7000012803D00022012902D003E0012201E060
:101F8000032804D000252A43012902D003E00125BB
:101F9000F9E7022804D000252A43032902D003E0F0
:101FA0000125F9E7012805D000252A439946032990
:101FB00002D003E00125F8E7022828D000231A43C5
:101FC0009FEDE2BADF4B4FF0010893ED088A93EDE5
:101FD000070ADFEDDF8A03F1800571D084F80A80FB
:101FE00084F80480B9F802004646A0F5806000B28B
:101FF0009FEDD8AB6FF00E0B0F280ADD10EE100A24
:1020000005F0E4FF53EC1A2B05F05AFA0BE001231C
:10201000D5E758450ADA10EE100A05F0D7FF53EC61
:102020001A2B05F0E9FE05F019FAE061B9F8000095
:10203000A0F5806000B29FEDC9AB0F2809DD18EE56
:10204000100A05F0C3FF53EC1A2B05F0D5FE0AE089
:10205000A5E358450ADA18EE100A05F0B7FF53EC6D
:102060001A2B05F02DFA05F0F9F92062BD49E06957
:10207000884202DA9FEDBC0A04E0BC49884203DDD5
:102080009FEDBB0A84ED070A012194ED070AB948C8
:1020900002F012FB99F80810032905D199F80910EC
:1020A00001290ED002293AD0F5EEC08AE782F1EE7E
:1020B00010FAC5ED058AC5ED048A42D0012042E040
:1020C00048E0FFF7F3F9B9F80A10A1F5806109B209
:1020D000B1F5257F01DB32220AE0B1F5DC7F01DBBF
:1020E000642205E0DC2901DBC82201E04FF496728E
:1020F0006262002910DDE968411A91420CDB9E49B9
:10210000DFF878C2D1E9042312EB0C0243F1FF336C
:10211000C1E90423E860E67085ED04BA2AE0E770BF
:10212000E782B9F80A00A0F5806000B2002802DD5D
:102130004FF47A7002E01DDA4FF61840E082E67044
:1021400018E04FF00000E0704FF00001084602F088
:10215000E1F80FE04E46032901D103281ED00021EB
:10216000084602F0D7F8E770E782C5ED058AC5EDAD
:10217000048AA7707348A17A803002F0B7FF7E48C6
:10218000E17A7C3802F0B2FF6E487B4980307C39BE
:10219000C078C978084301287ED022E184F80B80FA
:1021A00084F80480B6F90C0048B100EE900AF8EE0D
:1021B000E00A9FED731A00EE818A84ED088AB6F971
:1021C0000E0048B100EE900AF8EEE00A9FED6D1A9D
:1021D00000EE810A84ED070AA078B0EE680AB0EE3E
:1021E000688AB0B9B08AC107DFED670A9FED671A48
:1021F00002D0B0EE600A03E0810701D5B0EE410ADB
:10220000410702D5B0EE608A03E0000701D5B0EEC9
:10221000418A01215E4802F04FFA5D480121B0EE8B
:10222000480A203002F048FA307DC0F3401152488D
:10223000683802F05BFF307DC0F3C0114E48503863
:1022400002F054FFB08AC0F340214B48603802F0DE
:102250004DFF4948E17B60388078084400F0010078
:10226000E073307DC0F380114348643802F03EFFD4
:10227000DFF804B1A17BABF1640B9BF802000844CA
:1022800000F00100A073B08AC0F340310BF11800D8
:1022900002F02CFFB08A00E095E0C0F380310BF132
:1022A0001C0002F023FF0BF118008078012805D0F4
:1022B0000BF11C008078012803D003E084F807802C
:1022C00000E0E7712C4850388078012809D02A486E
:1022D00060388078012807D09BF80200012808D0D8
:1022E00003E0E773A77308E0A773E07B012851D0F0
:1022F00000E0E773A07B01284FD0A770307DC0F3CA
:1023000000111D48543802F0F1FE1B485438007883
:102310002074B08AC10B18485C3802F0E7FEB08A1E
:10232000C0F380211448583802F0E0FE12485C38AF
:10233000C078012834D035E00C25002000000000D2
:1023400000C0364000000020601300200020CB4574
:10235000000000000AD7A3703D0AB73F9A999999E7
:102360009999C93F0000A0420000A0420000074325
:102370000000074330170020000100200480FFFF09
:102380006F1203BA6F1283B900002544000025C400
:10239000081F002084F80280B0E70220A070ADE79B
:1023A000C5ED048AFE48C078012801D185ED04BA44
:1023B000B07C012802D0C5ED058ADBE69FEDF90A65
:1023C00085ED050AD6E62772E7710021A771084658
:1023D00001F0A0FFE770E782C5ED058AC5ED048A2C
:1023E000A77095ED048A9FEDF0CBDFF8C4B3B5EE8E
:1023F000C08AF1EE10FA3CD018EE100A05F0E6FDA6
:102400009FEDEC1B53EC112B05F0B6FB41EC1B0BC5
:10241000B0EE480A03F065FA10EE100A05F0D6FD9A
:1024200041EC1A0B9BED080A03F05BFA0BF18800F4
:10243000B0EE408A90ED080A03F053FA38EE000A35
:1024400010EE100A05F0C2FD53EC1C2B05F094FBB6
:1024500041EC100B03F095FA53EC1A2B51EC100BD6
:1024600005F0CAFC53EC1B2B05F04AFB01D284F8A3
:10247000068095ED050AB5EEC00AF1EE10FA23D0FC
:1024800010EE100A05F0A2FD53EC1C2B05F074FBB6
:1024900041EC1A0BC94890ED080A03F022FAB0EE9D
:1024A000408A95ED050A03F01CFA38EE400A03F065
:1024B00018FA10EE100A05F089FD53EC1A2B05F0FE
:1024C0001FFB01D284F8088099F80860032E03D11D
:1024D00099F80900012803D00021032E02D005E05D
:1024E000012103E099F80900022805D000200143EA
:1024F00004D084F8078003E00120F8E7E07910B108
:1025000094ED140A01E094ED150A002085ED0F0A00
:102510006071AB4890EDCA0B51EC100B04F09EFFBC
:102520004F462063012E02D1787A012805D0002081
:10253000032E02D1797A012900D000210843032E0D
:1025400002D1797A022905D0002108439FED9DAA86
:1025500013D101E00121F8E7032E02D0012E06D0AD
:1025600008E0787A032805D1A07830B102E0787AC3
:10257000022802D0A078022850D1914840F20526C6
:102580003146143803F0CAF800288D483146A0F1CE
:10259000140005DA03F0C2F841F6FF71084401E0C7
:1025A00003F0BCF805F031FA53EC192B05F03CF8B8
:1025B00004F054FF00EE900AB0EE4A1AC4ED0D0A82
:1025C00094ED0C0A01F064FED4ED0D0A30EE600AC1
:1025D00003F087F9F0EE40AA94ED0C0A9FED7A8A99
:1025E000B0EE4A1AD4ED0D0A30EE080A01F050FEA2
:1025F000D4ED0D0A30EE600A03F073F9F4EEC0AAD0
:10260000F1EE10FA02D80020607107E094ED0C0A98
:1026100030EE080A84ED0C0A84F80580B0EE4A1A00
:10262000D4ED0D0A94ED0C0A01F032FED4ED0D0A42
:10263000664830EE600A84ED0B0A90ED010ABDEEAB
:10264000C00A10EE100A00B29FED61AB624E002886
:1026500000DA404205F0D9F99FED601B53EC112BD5
:1026600005F08AFA9FED5F1B53EC112B05F0B8FBC8
:1026700041EC100B53EC1A2B86ED000B05F040FAE1
:1026800001D396ED00AB86ED00AB607A00287DD0DB
:10269000286C05F09BFC9FED551B53EC112B04F0AF
:1026A0000FFF04F0DBFE06462864686C05F08EFC24
:1026B00041EC1A0B304605F089FC9FED4E1B53ECA4
:1026C000112B05F059FA53EC1A2B05F055FA41EC91
:1026D000100B03F095FC9FED491B51EC100B53ECD4
:1026E000112B05F049FA9FED471B53EC112B04F019
:1026F000E7FE04F0B3FEA065E0613748012194EDE8
:10270000080A243801F0D8FF404E306B05F05EFC1B
:1027100006F582631A4683F8C080C2E9260196ED69
:10272000050ADFED3B0A20EE200ABDEEC00A10EEDE
:10273000100A05F06AF99FED371B53EC112B05F0D9
:102740001BFA04F08BFE00EE100A012106F53B7027
:1027500001F0B2FFA06A05F039FC41EC1C0B06F554
:102760003B70406805F032FC41EC1B0B06F56D70C8
:10277000D4ED160A90ED010A30EE200A10EE100A90
:1027800005F024FC41EC1A0B302200E0A7E106F52D
:1027900078716846FDF736FEB0EE4C2A3EE019E24D
:1027A000A800002000803B45000000000000E03F42
:1027B000F01F00209A9999999999D93F00210020FA
:1027C000C01300200000B44300003443CC23002099
:1027D0000000000000000000C81A00207B14AE4773
:1027E000E17A743F333333333333D33FFCA9F1D22F
:1027F0004D62503F4AD8124DFB21194000000000A5
:10280000000039400000000000405A40F01600204F
:102810000000C8427B14AE47E17A843F06F56A7037
:10282000F0EE6C2AD0E90C23B0EE4B1AF0EE6B1AE6
:10283000B0EE4A0AF0EE6A0A683002F069FC40F233
:1028400005263146FE4802F077FF00EE100A01210E
:10285000FC48B8EEC00A01F02FFF3146F84802F0FC
:102860005DFF05F0D2F8DFF8E08341EC1B0BD8F8F0
:10287000040005F0ABFB53EC192B05F07DF941EC9E
:102880001A0B302208F128016846FDF7BBFD9FEDC9
:10289000EFCBA8F11806B0EE4B1AD6E90E23B0EE36
:1028A0004C2AF0EE6C2AF0EE6B1AB0EE4A0AF0EE0B
:1028B0006A0A06F1A80002F079FDE248406805F0D6
:1028C00085FB41EC1A0B302206F178016846FDF7D2
:1028D00099FD06F1A809B0EE4C2A99ED020BD6E954
:1028E0001C23F0EE6C2AB0EE4A1AF0EE6A1A06F5D6
:1028F000C07002F05BFDD348B3EE0E1AD0ED010AB2
:1029000080EE810A10EE100A05F060FB99ED162B9F
:1029100006F5C07941EC100B99ED021B06F5167017
:1029200002F010FB98ED010ADFEDCA0A06F52070EF
:1029300020EE200AD5ED020A02F076F994ED0E0A97
:1029400006F5166806F6D80088ED0D0A8BED0D0A1F
:10295000D4ED130A94ED120A02F0A3FA3C3406F601
:10296000D80094EC030A3C3C02F094FAD4ED130A2C
:1029700094ED120A404602F094FA04F13C014046FC
:1029800091EC030A02F086FAA6F56370406840698C
:1029900005F03BF841EC1A0BAF49D1E9040105F011
:1029A0004BF841EC1B0B302206F599616846FDF7A8
:1029B00029FD9FEDAACB06F59066B0EE4A1AD6E93E
:1029C0001023B0EE4C2AF0EE6C2AF0EE6A1AB0EE4C
:1029D0004B0AF0EE6B0A06F5C47002F0E7FC40F219
:1029E0000121A6F60C0002F0A7FE05F00EF841EC5E
:1029F0001A0B302206F180016846FDF703FD06F54B
:102A0000C470B0EE4C2A90ED020BD6E91E23F0EE16
:102A10006C2AB0EE4A1AF0EE6A1AD83802F0C6FCF8
:102A200040F20321A6F2FC7002F01EFFB0F9040090
:102A3000012200EE100A022106F58B60F8EEC00AB2
:102A400095ED040A02F035FA40F20221A6F2FC707C
:102A500002F00AFFB0F90400012200EE100A022180
:102A60004046F8EEC00A95ED040AB1EE400A02F0C5
:102A700020FAA6F59565142105F1340002F045F819
:102A800085F83C006178A5F559760843607000250B
:102A9000307AA8421FDDC5EB05117068C1EBC51186
:102AA00030F93110304601F0BFFCC0EB0011C1EB32
:102AB000C0111C2000EBC100716808440A2102F01B
:102AC00024F805F101050028E2D015F0FF0F02D02F
:102AD0006448C0ED0A8A387A02280BD00DE0C5EDB3
:102AE000108A95ED120A84ED160A95ED130A84ED0D
:102AF000170A02E6787A022840D0002021795A4D40
:102B000081F0010108433BD0A5F5916002F03EFC45
:102B1000A5F56C7002F03AFC4F48012200210838FC
:102B200001F09AFC95ED020B51EC100B04F010FF34
:102B300001B20122484801F08FFC9BED0C0A0322F0
:102B4000BDEEC00A10EE100A01B2434801F084FC49
:102B500098ED0C0A0222BDEEC00A10EE100A01B276
:102B60003D4801F079FCA5F5AB6090ED050ABDEE9E
:102B7000C00AB8EEC00A84ED080A2BE00120BDE7C8
:102B800030482438406805F021FA99ED021B53ECD7
:102B9000112B04F095FC41EC100B2A484C3890EDB9
:102BA000081B51EC100B53EC112B05F025F904F028
:102BB000CFFE01B228480122083801F04DFC95ED06
:102BC000020B51EC100B04F0C3FE01B201222248AB
:102BD00001F042FC25498A4556D101F079F9607B24
:102BE00060B301F093F8607B40F20521401C00F0D7
:102BF00001006073144800F6E84490ED010A1048A3
:102C000084ED000A02F08AFD04F0FFFE53EC192B5C
:102C100004F00AFD04F022FC6060A4F6A820202243
:102C200090ED010A214684ED020A90ED000A4FF072
:102C3000FF4084ED030AE0610D481BE021E0000045
:102C4000AC130020BC190020301700200000000049
:102C5000004CDD400000B6410001002000000000F3
:102C60000000D04000210020481C0020C424002087
:102C7000542500200DB0BDEC0A8BBDE8F04F00F0EC
:102C8000EDBA00F0EBFEAEE70DB0BDEC0A8BBDE88F
:102C9000F08F704718B5034690F84200202801D005
:102CA000022018BD61B15AB1012018630020586399
:102CB000184600F0D7FD0028F3D1196B012901D087
:102CC000012018BD19680A684968009119680C311B
:102CD00051E8002F42F0100241E80024002CF5D109
:102CE00018BD000000B50D4A87B090420DD11229E1
:102CF0000BD1684601F092FC182269460848FDF79E
:102D00003CFBFEF7D3FB07490860054907B01222D8
:102D1000183102485DF804EBFFF7BCBF9C2500208A
:102D200060130020F000002070470000F8B5016833
:102D300004460868CA684B6910F00F0F4FF0000591
:102D400059D003F0010602F49077374365D0C107EC
:102D500005D0D10503D5616C41F0010161644107E3
:102D600005D5D90703D0616C41F002016164810788
:102D700005D5D90703D0616C41F0040161640107F6
:102D800007D502F02001314303D0616C41F0080106
:102D90006164616C00293AD0800604D5900602D5A2
:102DA000204600F030FC20684069616CC0F3801060
:102DB000090700D460B3204600F0F0FB20684069AA
:102DC000400621D52068143050E8001F21F0400152
:102DD00040E80012002AF5D1E06BA8B16E49016508
:102DE000E06BFEF7D5F8002811D0E06B016D01B063
:102DF000BDE8F040084783060FD593060DD5204661
:102E0000BDE8F84000F0FFBB2046FFF78DFFF8BD9E
:102E10002046FFF789FF6564F8BD266B2023012E4D
:102E20007DD1C6067BD5D60679D50868486800905E
:102E300048694FF00206400641D5E16B08684068DA
:102E40000004000CE8D0A28D8242E5D9E085C86973
:102E5000B0F5807F2DD020680C3050E8001F21F4A1
:102E6000807140E80012002AF5D12068143050E843
:102E7000001F21F0010140E80012002AF5D120686E
:102E8000143050E8001F21F0400140E80012002AF1
:102E9000F5D184F84230256320680C3050E8001FDB
:102EA00021F0100140E80012002AF5D1E06BFEF796
:102EB00026F86663A08DE18D401A81B22AE0A08DCC
:102EC000E18D401A81B2E08D0028A5D00029A3D061
:102ED00022680C3252E8000F20F4907042E800079C
:102EE000002FF5D12068143050E8002F22F00102A5
:102EF00040E80027002FF5D184F842302563206890
:102F00000C3050E8002F22F0100240E80023002B84
:102F1000F5D166632046FFF7E5FEF8BDFFE705063D
:102F20002BD5150629D594F841002128F5D1A068A4
:102F3000B0F5805F01D12069B0B1206A411C2162E7
:102F4000216800784860E08C401E0004000CE0849A
:102F5000E3D12068C16821F08001C1602068C168A8
:102F600041F04001C160D8E7206A0088C0F3080042
:102F70004860206A801C2062E5E74006CDD55006F7
:102F8000CBD5CA68204622F04002CA6084F841309E
:102F900000F0A0F9C1E700005334000870B5040048
:102FA00004D094F84100002510B106E0012070BD66
:102FB00084F84050204600F023F8242084F8410093
:102FC0002068C16821F40051C160204600F07CFBFC
:102FD0002068016921F4904101612068416921F074
:102FE0002A0141612068C16841F40051C1606564F3
:102FF000202084F8410084F842006563002070BD01
:103000002DE9F04786B0044614216846FDF72CFAF6
:103010007848DFF8DCC12368764914380226032794
:10302000072200254FF0400A4FF4806963455FD1C5
:103030000B6843F010030B60096801F01001059163
:10304000016841F002010160016801F0020105918F
:10305000016841F001010160006802AB00F001006D
:1030600005908020CDE90006904683E8A0016946DE
:103070006148FEF723F93002CDE9000602AB69464C
:1030800083E8A0015D48FEF719F95E4E5C484FF0F9
:1030900000683060C6E90185C6E903597561B5610C
:1030A000F56135624F4630467562FEF753F808B158
:1030B000FDF701FBE663B463524E51486036783049
:1030C000C6E903577561B561F5613562756286E8D9
:1030D00001053046FEF73EF808B1FDF7ECFAA663AD
:1030E000002211462520B463FEF74EFA252026E083
:1030F000DFF814C1634527D13E49091F0B6843F42B
:1031000080230B60096801F480210591016841F07A
:10311000040101600068029500F0040005904FF47E
:103120004060CDE90006CDE9037269463748FEF7F5
:10313000C5F8002211462720FEF726FA2720FEF7C1
:1031400015FA06B0BDE8F087314A9342F9D10A6812
:1031500042F020020A60096801F02001059101682F
:1031600041F0400101600068029500F040000590C8
:103170004FF48440CDE900060820CDE9037069468C
:103180002448FEF79BF81F4E1D48C03618383060A3
:103190004FF02068C6E90185C6E903597561B5613C
:1031A000F56135624F4630467562FDF7D3FF08B1D1
:1031B000FDF781FAE663B463174E1148C6E9035779
:1031C0007561B561F56135626030756286E801054B
:1031D0003046FDF7BFFF08B1FDF76DFAA663002288
:1031E00011464720B463FEF7CFF94720A7E7000058
:1031F0000010014044380240000402400000024038
:10320000406402402C260020004800400008024094
:1032100000140140001802404C27002090F8423072
:10322000202B01D00220704721B11AB10023036383
:1032300000F0D0BA0120704790F84230202B01D026
:103240000220704721B11AB10023036300F00ABBCA
:103250000120704700F0AEBD7047000070B5044615
:1032600090F84100202801D0022070BD49B342B33C
:103270002162A284E28400206064212384F841302A
:10328000A56B114BEB63A56B104B2B64A56B104B1F
:10329000EB64A36B1865256813462A1DA06BFDF728
:1032A000C3FF21686FF0400008602068143050E8C8
:1032B000001F41F0800140E80012002AF5D10020F3
:1032C00070BD012070BD0000513500089335000825
:1032D0006334000870477047FEE7FEE7FEE770477B
:1032E0007047FEF7E9B800000248016841F4700138
:1032F0000160704788ED00E00148FEF786BD0000E0
:10330000C42400200148FEF780BD00000C250020E9
:10331000F0B50268294C2A4D2A4E2B4F2B4B4FF00B
:10332000804CA04209D0604507D0A84205D0B042E9
:1033300003D0B84201D0984204D122F0700E4A68FE
:1033400042EA0E02A0421BD0604519D0A84217D015
:10335000B04215D0B84213D0984211D01C4DA842AB
:103360000ED01C4DA8420BD01B4DA84208D01B4DBF
:10337000A84205D01A4DA84202D01A4DA84203D146
:1033800022F44075CA682A434D6922F080022A431C
:1033900002608A68C2620A688262A04201D09842D2
:1033A00001D109690163012141610169C90703D0A4
:1033B000016921F001010161F0BD00000000014040
:1033C0000004004000080040000C004000040140E0
:1033D0000040014000440140004801400018004006
:1033E000001C00400020004010B5846842EA03221F
:1033F00024F47F440A432243826010BD826822F095
:1034000070020A4342F007018160704710B5036AF9
:10341000046A24F001040462846924F0F00444EA9C
:10342000021423F00A020A438461026210BD10B53F
:10343000036A046A24F010040462846923F0A00380
:1034400024F4704444EA023243EA011182610162C9
:1034500010BD10B5806B0021C185C184FFF764FCED
:1034600010BD70B5846B2068406994F84110C0F3BA
:10347000C0100025212904D118B1E584204600F0B0
:10348000B4F82068406994F84210C0F380102229F3
:1034900004D118B1E585204600F080F8606C40F05A
:1034A000100060642046FFF73FFC70BD10B5014678
:1034B000806B096809684FF00002C9052ED4C285E7
:1034C00001680C3151E8003F23F4807341E8003477
:1034D000002CF5D10168143151E8003F23F00103BD
:1034E00041E80034002CF5D10168143151E8003F67
:1034F00023F0400341E80034002CF5D1202180F86E
:103500004210016B012909D101680C3151E8003FDB
:1035100023F0100341E80034002CF5D14263016B25
:10352000012902D0FFF796FE10BD818DFFF7DAFB6F
:1035300010BD10B5806B01214163016B012902D0E0
:10354000FFF78AFE10BD818D4908FFF7CBFB10BD48
:1035500010B50146806B09680968C90516D40021B9
:10356000C1840168143151E8002F22F0800241E843
:103570000023002BF5D101680C3151E8002F42F0F7
:10358000400241E80023002BF5D110BDFFF7A2FE59
:1035900010BD10B5806BFFF79EFE10BD01680C31A9
:1035A00051E8002F22F4907241E80023002BF5D15E
:1035B0000168143151E8002F22F0010241E8002394
:1035C000002BF5D1016B012909D101680C3151E8BB
:1035D000002F22F0100241E80023002BF5D120211A
:1035E00080F8421000210163704701680C3151E8F6
:1035F000002F22F0C00241E80023002BF5D120214A
:1036000080F84110704708B590F84210222901D087
:10361000022008BD82684FF480539A4201D10169AB
:1036200021B1816A9A421BD04AB10AE00268816ADC
:103630005268C2F308020A80816A891C08E00269A4
:1036400072B10268526802F07F020A70816A491CF6
:103650008162C18D491E0904090CC18503D01BE09C
:1036600002685268F1E70168CA6822F02002CA6065
:103670000168CA6822F48072CA6001684A6922F04F
:1036800001024A61202180F8421000214163026B4F
:10369000012A03D0FFF7DEFD002008BD01630168A9
:1036A0000C3151E8002F22F0100241E80023002BDA
:1036B000F5D101680A68D20602D50A684968009106
:1036C000818DFFF70FFBE7E770B5044600680169DD
:1036D000E26821F44051114301612169A068E26967
:1036E00008436169114308432168CA6849F20C63C1
:1036F0009A430243CA6020684169A26921F440717B
:103700001143416131492068884202D030498842E2
:1037100002D1FEF715F801E0FEF702F8E269002396
:10372000192164253226B2F5004F626828D0A0FB2B
:103730000101930F9200FCF7A9FD0146B0FBF5F0E3
:103740006FF01802504301EB800006EB0010B0FB55
:10375000F5F000F0F002B1FBF5F002EB0012B1FB66
:10376000F5F06FF01803584301EB800006EB0010F2
:10377000B0FBF5F000F00F0021681044886070BDC8
:10378000A0FB010192185B41FCF780FD0146B0FBF4
:10379000F5F00201B1FBF5F06FF01803584301EBAF
:1037A000800006EBC000B0FBF5F000F0F80002EB83
:1037B0004002B1FBF5F0584301EB800006EBC0007E
:1037C000B0FBF5F000F00700D6E700000010014064
:1037D0000014014038B581620446828500201346FA
:1037E0006064222284F84220E56B1B4AEA63E56BA1
:1037F0001A4A2A64E56B1A4AEA64E26B10650A46C3
:103800002168E06B091DFDF70FFD20680168406825
:103810000090206948B120680C3050E8001F41F446
:10382000807140E80012002AF5D12068143050E879
:10383000001F41F0010140E80012002AF5D1206884
:10384000143050E8001F41F0400140E80012002A07
:10385000F5D1002038BD0000AD3400083335000834
:103860006334000881628285C2850021416422217F
:1038700080F84210016921B10168CA6842F480727F
:10388000CA6001684A6942F001024A610068C16881
:1038900041F02001C1600020704700000148FFF79F
:1038A00045BA0000542500200148FFF73FBA000048
:1038B0009C2500200148FFF739BA0000E4250020CC
:1038C000FEE7000010B500F001FA0848FDF7E4FA41
:1038D00002210648FCF7F1FE0548FDF7DDFABDE8D8
:1038E000104002210248FCF7E8BE000074240020CA
:1038F0009C2400200FB587B0082304930023009177
:103900000193029303938DF814300AAB6946FCF7D8
:10391000E6FE0BB000BD00000E4810B50C4901607A
:103920000621416000214FF440328160C0E903125A
:103930004FF480124261017641768176C17601773B
:103940004177FDF734F9002801D072B6FEE710BDCB
:1039500000640040742400200E4810B50C4901603A
:103960000C21416000214FF440328160C0E9031214
:103970004FF480124261017641768176C1760177FB
:103980004177FDF714F9002801D072B6FEE710BDAB
:10399000006800409C240020154808B5016841F0EB
:1039A00002010160016801F002010091016841F02B
:1039B00040010160016801F040010091016841F09F
:1039C00001010160016801F001010091016841F00D
:1039D00004010160016801F004010091016841F0F7
:1039E00080010160006800F08000009008BD0000C8
:1039F0003038024010B586B0002417480094019476
:103A00000294039404941349059401605321C0E97E
:103A1000011440F2E731C0E9031480218161FEF70F
:103A2000E5F808B172B6FEE74FF4805000906946A1
:103A30000948FEF77BF908B172B6FEE7049404A9C1
:103A400005480594FEF78AF8002801D072B6FEE713
:103A500006B010BD000C0040C42400200223034A1D
:103A600040F2FF110248FFF745BF0000F8000020B8
:103A70007424002070B523489FED231ADFED230A3C
:103A800090ED0F0A983041680068BCEEC00A0068EB
:103A9000D9B1042923D0B8EE400A082940EE010A22
:103AA000BCEEE00A10EE101A23D00164184800F0B2
:103AB000ADFC144C02258834FDF7F8FCB0FBF5F1A1
:103AC00005FB1100B8B1012116E0B8EE400A40EE46
:103AD000010ABCEEE00A10EE101A4163E6E7B8EE08
:103AE000400A40EE010ABCEEE00A10EE101A8163B3
:103AF000DCE7C163DAE70021201DBDE8704001F07A
:103B0000F5BA00008000002011C731410000FA43DF
:103B1000E42500202DE9F0412DED068BFFF7D2FEC4
:103B200000F072FD00F08EFC0A20FDF7B5FB9FED62
:103B3000542B9FED551B9FED560B574880ED322BB4
:103B400080ED181B80ED1A0BB0EE000A80ED210A03
:103B5000DFED520AC0ED2C0AA0F5826090ED050A57
:103B60004F48BDEEC00AB8EEC00A80ED080A9FEDCE
:103B70004D8A4D48B0EE480A01F093F99FED4B1A7B
:103B8000DFED4B8AF0EE680A9FED4A9A4648B0EEA8
:103B9000490A01F07FF9DFED489AB0EE480A47483C
:103BA000F0EE690A01F07DF99FED45AAF0EE680A92
:103BB000B0EE490AB0EE4A1A404801F06BF93A48B3
:103BC000F0EE690AB0EE480A883801F06AF9364822
:103BD000B0EE4A1AF0EE680AB0EE490A883801F0F1
:103BE00059F9FDF763FC002440F201269FED358A68
:103BF0000546B71C40F202283146334801F034FE36
:103C0000B0F90400012200EE100A02212648F8EE65
:103C1000C00AB0EE480A01F04CF939462A4801F0D2
:103C200023FEB0F90400012200EE100A022123480D
:103C3000F8EEC00AB0EE480A01F03BF941462248CE
:103C400001F012FEB0F90400012200EE100A16483D
:103C50000221F8EEC00AB0EE480A883801F029F9CE
:103C6000FDF724FC431B64EB04004FF4FA720021BF
:103C7000D21A8141C0D2BDEC068BBDE8F0810000B4
:103C800000000000000008400000000000000000EC
:103C90000000000000001440001B002000009643BC
:103CA0000000002000004844002100200024F448C7
:103CB00000409C450000C84200004843F01F00201F
:103CC00000247449000000009C13002010B58AB045
:103CD0000020012104900E24CDE9081401900290E7
:103CE0000590CDE906010090039069460548FCF770
:103CF0005FFD1C200990694605940348FCF758FDB8
:103D00000AB010BD742400209C2400200223024A23
:103D100019020248FFF7EEBD0001002074240020C4
:103D200030B593B030216846FCF79EFB14210CA8F7
:103D3000FCF79AFB1D480025016841F080510160A5
:103D4000006800F0805011901948016841F48041EA
:103D500001600068022400F480401190012000906E
:103D6000000401908001CDE9064006200890A820BB
:103D7000CDE9090404200B906846FDF723FD08B146
:103D800072B6FEE70CA90F2081E831004FF4A05075
:103D90000F904FF48050109005210CA8FDF726FCE1
:103DA000002801D072B6FEE713B030BD40380240A3
:103DB0000070004070B538492DED028B88420CD15F
:103DC000364C2078BB280BD0012221463248FFF721
:103DD00033FA324CFDF76AFB6064BDEC028B70BDB8
:103DE00094ED040A2E4D84ED010AE189A181A08A97
:103DF000E08188423CD005283AD340F2052631467E
:103E0000284801F08BFC00EE100AB8EEC00A00F062
:103E10006BFE03F0FAFD9FED241B53EC112B03F016
:103E2000ABFE41EC180B31461E4801F077FC00EE6A
:103E3000100AB8EEC00A10EE100A04F0C7F89FEDA1
:103E40001C1B53EC112B03F0EFFB9FED1B1B53ECE2
:103E5000112B03F035FB53EC182B03F031FB9FEDD6
:103E6000181B53EC112B03F02BFB03F0F7FAE86758
:103E7000E86F04F0ABF841EC100B0A489FED121B01
:103E8000143000F04FFEE07E044920700C22103107
:103E90000148FFF7C3F99CE7E4250020CC2300206C
:103EA00000000020AC1300200000000000001440BF
:103EB0000000000000C036400000000000806640A6
:103EC000F4B522C20362524000000000000024400A
:103ED0002DE9F05FE54C01202DED048B00212154EC
:103EE000401C0C28FADBE24908460E7A457A012E7E
:103EF00001D1012D03D00020012E02D003E00120CA
:103F000001E0032D04D000221043012E02D003E073
:103F10000122F9E7022D04D000221043032E02D023
:103F200003E00122F9E7012D04D000221043032E03
:103F300002D003E00122F9E7022D16D00021DFF8BC
:103F400034B308439BF8059075D0C9490627C88843
:103F50008988A0F58060A1F580610BB200B259425A
:103F6000C20FC90F012E02D005E00121E7E7022DA3
:103F700006D0012D15D04FF0000C032E14D015E003
:103F800090FBF7F0002800DA404240EAC21060706F
:103F900093FBF7F0002800DA404240EAC110A0701D
:103FA00032E04FF0010C01E0012D06D04FF0000887
:103FB0004CEA080C032E03D004E04FF00108F7E7A9
:103FC000022D0FD04FF000085CEA080C0DD090FBDA
:103FD000F7F0002800DA404240EAC2106070012E7B
:103FE00007D011E04FF00108EEE7012E0CD1032DB0
:103FF00002D0012D0CD007E093FBF7F0002800DA87
:10400000404240EAC11060700020032E02D003E05D
:10401000012001E0012D04D000210843032E02D02D
:1040200003E00121F9E7022D06D0002108438201B7
:10403000012E03D004E026E00121F7E7032D09D08B
:104040005FF000019BF80330194342EA4112012E50
:1040500002D003E00121F5E7022D03D00021032E59
:1040600002D003E0012101E0022D0AD00023194310
:1040700042EA011242EAC901091D6171BBF816004A
:10408000AEE00123F3E7032E7DD1032D7BD17848E9
:104090009BF80220878A904607F00100C7F3400191
:1040A0000843C7F3C001C7F3800341EA030A72491A
:1040B0009FED729B022AD1ED018AB0EEE88A16D0FC
:1040C000E8B3B8F1000F01D0B8064BD518EE100ACE
:1040D00003F07CFF53EC192B03F0A6FA03F038FC35
:1040E000F5EEC08AF1EE10FA38D8012137E0A0B120
:1040F00018EE100A03F06AFF53EC192B03F094FA40
:1041000003F026FCF5EEC08AF1EE10FA01D8012189
:1041100000E0002140EAC1106070BAF1000F43D006
:104120005548203090ED018AB0EEC80A10EE100A12
:1041300003F04CFF53EC192B03F076FA00E011E08A
:1041400003F006FCB5EEC08AF1EE10FA01D80121A9
:1041500000E0002140EAC110A07025E0002140EA03
:10416000C1106070BAF1000F1BD0B8F1010F01D07F
:10417000B80616D518EE100A03F028FF53EC192BD9
:1041800003F052FA00E02CE003F0E2FBF5EEC08A07
:10419000F1EE10FA01D8012100E0002140EAC1103F
:1041A0006070B8F1000F41D0002082014146B8F1A3
:1041B000010F00D0002142EA4112B8F1020F37D0BE
:1041C0005FF0000142EA01129BF8100042EAC901C7
:1041D00041EA8000022101EA1711084360710020C2
:1041E000E0805F46DBF82C0003F0F0FE9FED251B1E
:1041F00053EC112B03F0C0FC03F0AAFBA4F803005E
:10420000B879F979C00140EA8110397A40EA411160
:1042100017484089A0F5806000B2002800DA4042CB
:10422000A0F51670002805DD012004E00120BCE7A0
:104230000121C7E7002041EA00102072022E01D1BF
:10424000022D11D0002079780843C10141EAC9004C
:104250006179084360710C22BDEC048BBDE8F05F0E
:1042600002490A48FEF7FABF0120ECE720010020CE
:104270006013002000000020081F00200000000044
:10428000000018400000000000003440E425002039
:1042900010B52DED088BB0EE409AF0EE418A39EE64
:1042A000608A18EE900A9FED19AB03F08FFE53EC75
:1042B0001A2B03F061FC41EC1B0B18EE100A03F003
:1042C00085FE53EC1B2B03F055FD02D239EE689AA4
:1042D00016E0B1EE680A10EE100A03F077FE53EC18
:1042E0001A2B03F049FC41EC1A0B18EE100A03F0EC
:1042F0006DFE53EC1A2B03F003FC01D239EE289A21
:10430000B0EE490ABDEC088B10BD000000000000B3
:104310000000E03F70B5344C05462DED028B334A6A
:10432000206E904201DB002028702878491E084248
:1043300002D094ED180A03E09FED2D0A84ED180ACF
:10434000DFED2C0A20EE200A01F0BEFE84ED190AF2
:1043500094ED180ADFED280A20EE200A01F0B4FEE1
:1043600084ED1A0A94ED180AF2EE0E0A30EEC00A35
:1043700000F0BAFB03F049FB9FED201B53EC112B1F
:1043800003F0FAFB03F06AF800EE100AF6EE000AFA
:1043900084ED1E0A30EE201A30EEC00A84ED1C1A9D
:1043A00084ED1D0AD4ED190A287861EE200A94EDF7
:1043B0001A1A40EE010A00EE100AB8EE400A20EE8A
:1043C000808A84ED1B8A206E03F000FE9FED0D1B9A
:1043D00053EC112B03F074F803F040F82066B0EEB4
:1043E000480ABDEC028B70BD000000200000A04117
:1043F0000000000074D9203FD10F494000000000A8
:104400000000E03FFCA9F1D24D62503F006882B04D
:104410000168C943090705D401684068009002B0EB
:1044200000F010B802B07047B0F90020891A4FF0C0
:10443000FF3205D4052903DA0844407AFF2800D169
:1044400010467047012202490248FEF7F5BE0000FF
:10445000CC230020E425002000EB42000B0A00F8EA
:10446000023D4170704700002DE9F0414FF4C472E5
:104470002DED028B04460C9D4FF42273914203D024
:104480000120994201D102E00020012600E000262F
:1044900030404FF46276B14201D0012700E000279E
:1044A00038427DD1914206D1288820846888608472
:1044B000A888A08497E09FED4F8B994221D1B5F950
:1044C000000003F0A2FA53EC182B03F055FB02F0A6
:1044D000C5FFA062B5F9020003F097FA53EC182B60
:1044E00003F04AFB02F0BAFFE062B5F9040003F002
:1044F0008CFA53EC182B03F03FFB02F0AFFF206364
:1045000071E0B1426FD1B5F9000003F07EFA53ECCF
:10451000182B03F031FB02F0A1FF2060B5F9020077
:1045200003F073FA53EC182B03F026FB02F096FF0E
:104530006060B5F9040003F068FA53EC182B03F03F
:104540001BFB02F08BFF00EE100ADFED2C1A84ED4E
:10455000020AB5EEC00A84ED030AF1EE10FA03D2A6
:1045600030EE210A84ED030AD4ED040AF4EE400A89
:10457000F1EE10FA29D010EE900A10F1814F24D0FC
:1045800030EE601A1E4911EE100A88420CD971EE05
:10459000E01AF0EE400A94ED051A71EEA00A00E070
:1045A00024E071EE200A0EE011EE100A154988424F
:1045B00010DDB0EE401A94ED052A31EEC11A71EE0D
:1045C000200A72EE600AC4ED050A84ED040A207E1A
:1045D00028B108E0D4ED050A70EE810AF3E784ED16
:1045E000070A01202076FCF761FF6063BDEC028BB7
:1045F000BDE8F0817B14AE47E17A843F0000B4430C
:10460000000034C300003443122202490248FEF77E
:1046100041BB0000781300209C25002010B586B017
:10462000044618216846FBF71FFF22490888C0F39B
:104630000A00ADF800004878C208887842EA4012C3
:10464000C2F30A02ADF80220CA78800940EA820269
:10465000087942EA8022C2F30A02ADF804204A79BE
:10466000400840EAC210C0F30A00ADF80600900905
:104670008DF80800C2F301108DF80900C888ADF864
:104680000C000889ADF80E004889ADF81000087BD1
:104690008DF81200487B8DF81300C889ADF814001E
:1046A000088AADF80A00182269462046FBF765FE25
:1046B00006B010BD7813002010B504462DED0A8B0E
:1046C000B0EE408A80ED008A31B1207F68B10128C8
:1046D00053D0032850D191E084ED018A9FED610A07
:1046E00080ED020ABDEC0A8B10BDD4ED019AD4ED29
:1046F000028A94ED050A10EE100A48EE809AC4ED85
:10470000019A03F063FC94ED049A79EEC80A41EC37
:104710001A0B29EE090A20EE200A10EE100A03F007
:1047200055FC41EC1B0B18EE900A03F04FFC41ECDA
:104730001C0B19EE100A03F049FC9FED4B1B53ECC8
:10474000112B03F019FA53EC1C2B03F015FA53EC60
:104750001B2B03F051FB53EC1A2B03F00DFA41EC29
:10476000190B18EE900A03F031FC53EC192B02F0F0
:10477000A7FE02F073FEA0605AE0206903F026FC59
:104780009FED3B1B53EC112B03F0F6F941EC100BA2
:1047900053EC102B9FED380B51EC100B02F044FF43
:1047A00002F05CFEA06194ED020A01F09AF8D4EDEB
:1047B000020A94ED001A60EE200A94ED010A30EE30
:1047C000410A94ED061A00EE810A00F08DF900EE20
:1047D000100AD4ED040AD4ED011AB8EEC00A94ED23
:1047E000051A60EEC00A94ED020A40EE011A00EECE
:1047F000810AC4ED011A84ED020A19E094ED010A60
:10480000D4ED051A94ED041A30EE480AD4ED020AEC
:1048100000F086F8D4ED011AD4ED020A94ED051AE1
:1048200040EE811A40EE010AC4ED011AC4ED020AFD
:1048300094ED030AB5EEC00AF1EE10FA3FF452AF60
:10484000D4ED020AF4EEC00AF1EE10FA07DCB1EE84
:10485000400AF4EEC00AF1EE10FABFF443AF84ED63
:10486000020A3FE70000000000000000000000C056
:104870000000000000000040000000000000F03FC9
:10488000C0ED030A80ED040A80ED051A0177704738
:1048900010B52DED028BB0EE408AF0EEC81AF4EEA2
:1048A000C11AF1EE10FA0ED8B7EE000A70EE600AE7
:1048B000B0EE410A01F070F8C8EE000AB0EE600AEE
:1048C000BDEC028B10BDB0EE480A00F00DF900EE11
:1048D000100AB8EEC08AB0EE610A01F05DF828EE69
:1048E000000AEDE7B0EE401A10B531EE200A00F0F4
:1048F000FBF8014631EE600A00F0F6F8081A03F002
:1049000084F89FED051B53EC112B03F035F902F0F1
:10491000A5FD00EE100A10BD000000000000E03F01
:1049200070B561EEA00A2DED068BB0EE418A28EE3F
:10493000211A664C30EE200A21EE211A84ED141A59
:10494000C4ED150A84ED160A00F0CBFF10EE100A34
:1049500003F03CFB9FED5E1B53EC112B03F00CF9B5
:1049600041EC190B206D054603F030FB53EC192B7D
:1049700002F0A6FD41EC190B284603F027FB53EC8F
:10498000192B03F0F9F802F069FD00EE100A01F0AE
:1049900063FC84ED170A94ED160A00F0A5F800EE0A
:1049A000100AD4ED170AD4ED148AB8EEC00A70EEDE
:1049B000E80A20EE200A10EE100A03F007FB9FED34
:1049C000460B53EC102B03F0D7F841EC190B606D3C
:1049D00003F0FCFA53EC192B02F072FD02F03EFDDD
:1049E0002066F0EE680A94ED160AFFF77BFF10EEE2
:1049F000100A03F0EBFA9FED3AAB53EC1A2B03F0DD
:104A0000EFF941EC190B206E03F0E0FA53EC192B8F
:104A100003F0B2F841EC190BD4ED140A94ED160A28
:104A2000FFF760FFD4ED150A94ED161A70EE810AB7
:104A300020EE200A10EE100A03F0C8FA53EC192BEE
:104A400002F03EFD02F00AFD00EE100A84ED190AA4
:104A5000D4ED140AFFF746FF10EE100A03F0B6FA81
:104A600053EC1A2B03F0BCF941EC190B94ED190A25
:104A700000F03AF800EE100AB8EEC00A20EE080A7C
:104A800010EE100A03F0A2FA53EC192B03F074F89D
:104A900094ED190AD4ED140A41EC190B80EE201A9A
:104AA00028EE418AFFF71EFF28EE000A10EE100ADA
:104AB00003F08CFA53EC192B03F09EF902F0CEFCB4
:104AC000BDEC068B00EE100A70BD000080000020D7
:104AD0000000000000002040000000000000E03F57
:104AE000000000000000F03FB5EEC00AF1EE10FA41
:104AF00001DD01207047B5EEC00AF1EE10FA02D2D6
:104B00004FF0FF3070470020704770B50C460546E7
:104B1000FCF7CCFC2968401AA04201D3012070BDEB
:104B2000002070BD70B504462DED048BB0EE418AB7
:104B3000F0EE618AB0F82003B0EE409A401C00B25B
:104B4000F0EE609AA4F8200302F05FFF53EC182BFC
:104B500003F010F914D251EC180B9FED2F0B53EC0E
:104B6000102B03F009F802F023FF024604F10801BC
:104B70002046FBF747FCB4F82003401EA4F82003AE
:104B8000B4F920039FED268B04EBC000002500ED57
:104B9000029B84EDCA8BB4F920630FE004EBC500DF
:104BA00094EDCA0B90ED001B51EC100B53EC112B44
:104BB00002F086FC6D1C2DB2C4E9CA01AE42EDDCE8
:104BC00094EDCA0B53EC182B51EC100B02F084FE41
:104BD0000FD0B4F9200302F018FF41EC100B94ED54
:104BE000CA1B53EC102B51EC110B02F01DFDC4E954
:104BF000CA01B4F9200302F008FF41EC100B94ED58
:104C0000CA1B53EC102B51EC110B02F00DFDBDEC47
:104C1000048B41EC100B70BD000000000000204030
:104C2000000000000000000090ED001A30EE411A74
:104C300061EE200A80EC020AB0EE600A704780ED57
:104C4000022A80ED041A80ED060AC0ED070AC0EDC5
:104C5000081A704710B504462DED048BF0EE408A1B
:104C6000012980ED0B0A05D0022934D194F85100B6
:104C7000A0B359E094F8510058B994ED0E0AF0EE43
:104C8000000A60EE200A20EE000AC4ED170A84ED47
:104C9000180AD4ED080A38EEE01A84ED101A94EDE3
:104CA000090AD4ED171AD4ED0C2AB0EE402A01EE11
:104CB000812AD4ED0D1A01EEA22AD4ED131A42EE88
:104CC000210AC4ED080AD4ED180A60EE810A00EE4C
:104CD000A10A84ED090ABDEC048B10BDFFE794ED39
:104CE0000E8AB0EE080A18EE100A28EE000A84EDCB
:104CF000170A03F06BF941EC190B18EE100A03F0D8
:104D000065F99FED291B53EC112B02F035FF53EC95
:104D1000192B02F031FF02F0A1FB28EE080A2066F1
:104D200020EE080A84ED190AD4ED081A78EEE10A9B
:104D3000C4ED100A94ED090A94ED171AB0EE402A5A
:104D400001EE202A94ED131A42EE011AC4ED081A5E
:104D500094F8780060B1D4ED1D1A31EEC02A84EDCC
:104D6000112AD4ED0A1AD4ED182A42EE821A05E06F
:104D7000D4ED0A1A94ED182A42EE201AD4ED0D2A29
:104D800094ED0C2A42EE821A01EE810A84ED090AA2
:104D900094ED190A60EE200A94ED0A0A00EE810AE9
:104DA00084ED0A0A97E700000000000000000840B8
:104DB0009FED370A012902D0022941D119E090F86C
:104DC000501019B990ED0F0A80ED150A90ED010A07
:104DD000D0ED080A90ED1C1A30EE600AD0ED150AED
:104DE00020EE200AD0ED160A00EEC10AD0ED090A25
:104DF00024E090F8501059B990ED0F0A60EE000AC7
:104E0000C0ED150AF0EE000A20EE200A80ED160A29
:104E100090ED010AD0ED080A90ED091A30EE600A13
:104E2000D0ED150A20EE200AD0ED020A70EEC10A7C
:104E300090ED161A01EE200AD0ED0A0A30EE600A53
:104E400090F8842090F885108A4203D9491C80F894
:104E500085107047002180F8851090ED0D1AC0EE86
:104E6000010AC0ED0C0A90ED120AF4EEC00AF1EE50
:104E700010FA01DD80ED0C0AD0ED0C0AB1EE400A0B
:104E8000F4EEC00AF1EE10FAE3D280ED0C0A70479E
:104E900000000000012180F851105C3080EC030A12
:104EA0007047012180F8501080ED150AC0ED160AF8
:104EB000704770B50D462DED028BB0EE608A04464A
:104EC0001146FFF7F9FB2946B0EE480A2046FFF7E6
:104ED000C1FE29462046FFF76BFF94ED0C0ABDEC9E
:104EE000028B70BD0FB420222DED060B10B50446C9
:104EF0002DED068BF0EE628AB0EE428AB0EE619A3A
:104F0000B0EE41AAF0EE609AF0EE40AA0FA9FBF7CE
:104F100079FAC4ED0DAA84ED0EAAC4ED0F9A84EDC2
:104F2000129A84ED138AC4ED1A8A002084F8510085
:104F300084F8500084ED058A2046BDEC068B10BC39
:104F40005DF82CFB70B504462DED088BB0EE409A51
:104F5000F0EE609AB0EE428AF0EE628A9FED470B67
:104F600051EC110B53EC102B02F05EFB0E46054684
:104F70009FED44AB9FED45BB51EC190B02F06EFA6F
:104F80002060E06903F022F841EC190BB0EE480A0A
:104F9000F0EE680A00F0F5FC53EC192B51EC100B05
:104FA00002F0E8FE606916D203F010F846EC105BE0
:104FB00041EC180B53EC1A2B51EC100B02F0DCFDFA
:104FC00053EC1B2B02F0D8FD9FED321B41EC100B74
:104FD00053EC112B0FE002F0F9FF46EC105B41ECB3
:104FE000180B53EC1A2B51EC100B02F0C5FD53ECCF
:104FF0001B2B41EC100B51EC100B02F0BDFD53ECE0
:10500000182B02F0B9FD41EC180B606802F0DEFFCE
:1050100053EC182B02F054FA02F020FA606000EE14
:10502000900A94ED060AF4EEC00AF1EE10FA01DDE2
:1050300084ED010AD4ED010AB1EE400AF4EEC00A93
:10504000F1EE10FA01D284ED010A94EC020A30EE7E
:10505000600AD4ED040A60EE200AC4ED020A94ED61
:10506000051A80EE810A10EE100A02F0AFFFC4E9C3
:10507000080141EC100BBDEC088B70BDB3B201010F
:10508000006AF83FF8F952EC2600283F83C0CAA115
:1050900045B6E73F333333333333D33F10B504469C
:1050A0002DED048BB0EE648AF0EE448AB0EE639A84
:1050B00013EE100A84EC060B02F088FFC4E9060127
:1050C00019EE100A02F082FFC4E9080118EE900AF6
:1050D00002F07CFFC4E90A0118EE100A02F076FF24
:1050E000C4E90C012046BDEC048B10BD10B502785C
:1050F000427001700023C37083708C1A0123012C4D
:1051000000D18370511A012900D1C37010BD000075
:105110000FB42DED060B70B504462DED0C8BB0EEE3
:10512000429AF0EE629A90F8701090F87100814205
:1051300003D9401C84F8710019E1002084F8710043
:1051400084ED000B84ED041B53EC112B51EC100B80
:1051500002F052FE41EC1A0B84ED16AB94F8D0002D
:105160009FED868B9DED1ACB9DED18DB012852D06B
:1051700053EC1A2B51EC1D0B02F0FEFCC4E90601A6
:1051800094ED160B00F0FDFB94ED1A1B51EC100B87
:1051900053EC112B02F0B4FC08D994ED1A0B53EC2C
:1051A000182B51EC100B02F097FB57D19DED240BFF
:1051B00051EC100B02F052F99DED220B0AEE900A11
:1051C00051EC100B02F04AF994ED160B0AEE100A9E
:1051D00051EC100B02F042F900EE100AB0EE6A1A20
:1051E000F0EE4A0AFFF754FB10EE100A02F0EEFE52
:1051F00053EC1C2B02F0C0FC9FED621B53EC112BF7
:1052000002F0BAFC94ED081B53EC112B02F058F994
:10521000C4E9080128E09DED200B51EC100B02F0D1
:105220001DF99DED1E0B0BEE100A51EC100B02F058
:1052300015F90BEE900A51EC1A0B02F00FF900EE83
:10524000100AB0EE4B1AF0EE6B0AFFF721FB10EEDE
:10525000100A02F0BBFE53EC1D2B8DE7B0EE480A9E
:10526000F0EE680A84ED080B94ED160B00F089FB54
:1052700094ED181B51EC100B53EC112B02F040FC79
:1052800001D284ED088B94ED260B51EC100B02F04B
:10529000E5F800EE100A012104F1A000FFF70CFA76
:1052A000D4F8A40002F092FE9DED1C1B53EC112BD0
:1052B00002F062FCC4E90A0194ED321B94ED080B84
:1052C00053EC112B51EC100B02F054FD94ED320B0A
:1052D00002D284ED080B12E051EC100B02F0B2F890
:1052E00094ED081B53EC112B02F044FD07D294ED12
:1052F000320B51EC100B02F0A5F8C4E9080153EC95
:10530000182B51EC1C0B02F0E7FA01D184ED088B4D
:1053100094ED081B94ED060B53EC112B51EC100B84
:1053200002F0CEF894ED0A1B53EC112B02F0C8F8F2
:1053300041EC100B53EC192B84ED020B02F01AFD1B
:1053400002D284ED029B12E051EC190B02F07AF8C4
:105350000E4646EC100B94ED021B054653EC112B48
:1053600051EC100B02F006FD01D2C4E9025694ED97
:10537000020BBDEC0C8B70BC5DF82CFB0000000038
:1053800000000000000000E04D62503F9FED050B63
:1053900080ED060B80ED080B80ED0A0B80ED020B13
:1053A0007047000000000000000000000FB42DED69
:1053B000060B70B504462DED0C8BB0EE428AF0EE74
:1053C000628A90F8701090F87100814203D9401CF5
:1053D00084F8710052E1002084F8710084ED000B24
:1053E00084ED041B94F894009FEDA8CB002853ECA7
:1053F000112B51EC100B43D002F0FEFC02F02EF802
:1054000000EE100A012104F17400FFF755F9A06FB6
:1054100002F0DCFDC4E9160194ED169B9DED180B1E
:1054200053EC192B51EC100B02F0A6FBB0EE490A1D
:10543000F0EE690AC4E9060100F0A3FA94ED1A1B24
:1054400051EC100B53EC112B02F05AFB09D894EDE0
:10545000160B53EC1C2B51EC100B02F08DFBC4E926
:105460000E0194ED160B00F08CFA94ED1A1B51EC22
:10547000100B53EC112B02F07DFC04D2012503E04C
:1054800002F0BAFCC6E7002594ED1A1B94ED180B48
:1054900053EC112B51EC100B02F012F841EC190BEC
:1054A00094ED160B00F06DFA53EC192B51EC100B28
:1054B00002F026FB01D8012000E0002005429FED0C
:1054C00075AB9DED1ABB23D094ED16DBB0EE4D0A03
:1054D000F0EE6D0A00F055FA94ED189B51EC100BAC
:1054E00053EC192B02F07CFC94ED1A1B53EC112B9E
:1054F00001F0E6FF53EC192B02F096F853EC1D2B4C
:1055000002F03AFB53EC1C2B02F036FBC4E90E010F
:1055100094ED1A1B94ED180B53EC112B51EC100B5E
:1055200001F0CEFF41EC190B94ED160B00F029FAB7
:1055300053EC192B51EC100B02F01CFC01D284ED42
:105540000EAB94ED0E0B53EC1B2B51EC100B02F039
:1055500013FB94ED081B53EC112B01F0B1FF41EC50
:10556000100B84ED080B94ED321B53EC112B02F061
:1055700001FC03D294ED320B84ED080B94ED320B59
:1055800051EC100B01F05EFF94ED081B53EC112B56
:1055900002F0F0FB07D294ED320B51EC100B01F04E
:1055A00051FFC4E9080194F8C0009DED1C9B78B13F
:1055B00094ED260B51EC100B01F050FF00EE100A99
:1055C000012104F1A000FFF777F8D4F8A40003E06C
:1055D00094F8940048B1E06F02F0F8FC53EC192BFA
:1055E00002F0CAFAC4E90A0111E094ED120B94ED3D
:1055F00016CB53EC102B51EC1C0B02F0FDFB53ECC3
:10560000192B02F0B9FAC4E90A0184ED12CB53EC6C
:105610001A2B51EC1B0B02F05FF901D184ED08ABA2
:1056200094ED081B94ED060B53EC112B51EC100B71
:1056300001F046FF94ED0A1B53EC112B01F040FFE3
:1056400041EC100B53EC182B84ED020B02F092FB93
:1056500001D284ED028B51EC180B01F0F3FE0E46E3
:1056600046EC100B94ED021B054653EC112B51EC4C
:10567000100B02F07FFB01D2C4E9025694ED020B3D
:10568000BDEC0C8B70BC5DF82CFB0000FCA9F1D2CA
:105690004D62503F000000000000000010B50021E6
:1056A0002DED028BB7EE000A9FED118ADFED118A16
:1056B0007430B0EE481AF0EE680AFFF7E1F8002106
:1056C000B0EE481AF0EE680AB7EE000A2C30FFF789
:1056D000D7F89FED090A002100ED070A80ED040AC2
:1056E00000F80C1C80F82010A038BDEC028B10BD17
:1056F0006F12833A000000000000C84210B5283045
:10570000FFF7CCFFD830FFF7C9FFD830FFF7C6FF4F
:10571000D830FFF7C3FFA0F52C7010BD00B50346CD
:10572000FEF782FEC0EB0011C1EBC010022101EBBD
:10573000C0005968085E00BD00B50346FEF774FE60
:10574000C0EB0011C1EBC010042101EBC00059688F
:10575000085E00BD2DE9F0470346A1F500700C9CE2
:1057600009287FD2187A00287CD01846FEF75CFE04
:10577000411C77D021885D684ABAC0EB0011C1EBAB
:10578000C011022000EBC106AA5360885D6842BACE
:10579000042000EBC10A25F80A20A0885D680622D3
:1057A00040BA02EBC10925F80900A279586808241B
:1057B00004EBC104025358680A2202EBC107C25F1E
:1057C000845FA24225D0551C23D0A4EB02081425E7
:1057D00041F6FF7C18F57A6F08DA05EBC105ACEBF2
:1057E000020250F80580224442440BE0B8F57A6F7B
:1057F0000ADD05EBC105ACEB040450F8058022443A
:10580000A8EB0202425104E005EBC1028458444473
:10581000845058680C2404EBC104825BC25358685E
:1058200030F80A20025358680E2404EBC10430F803
:10583000092002531A22586802EBC102845C3CB969
:105840001825845B05EBC10544535C680120A05416
:105850001C22586802EBC1014418FBF727FE00E048
:1058600000E02060BDE8F08700B50346FEF7DCFDF0
:10587000C0EB0011C1EBC010596801EBC00000BDC6
:10588000F0B50025FF26059C093046556D1CEDB28C
:10589000052DFAD3002503E0665D85556D1CEDB23C
:1058A0009542F9D340F8053C00235E1E20F8091DFF
:1058B0000A2712E0C3EB0315D0F804C0C5EBC315EB
:1058C00007EBC50E2CF80E6014F803C0D0F804E006
:1058D0008C445B1C2EF835C0DBB29342EAD30272D3
:1058E000F0BDB0EEC00A704703B4019841000098C3
:1058F00050EAC12018BF04204A0D18BF40F0010033
:1059000040F2FF72B2EB515F08BF40F00200012885
:1059100008BF052002B070474100080218BF0420EC
:105920000A0E18BF40F001004FF07F4232EA010139
:1059300008BF40F00200012808BF05207047090792
:10594000090E002804DB00F1E02080F80014704705
:1059500000F00F0000F1E02080F8141D70472DE9E1
:10596000F0411C4617460E00804607D0054602E06F
:105970002846B0473D442046641EF9D24046BDE863
:10598000F0812DED020B019820F0004001909DED7B
:10599000000B02B07047000010B510EE100A2DED9C
:1059A000068BB7EE001A10EE901AB0EE418A002274
:1059B000A0F5000CDFEDFE9A4FF00073BCF1FE4F36
:1059C0004FF07F4403EB410C80F0B481BCF1804F79
:1059D000C0F02082F74901449FEDF73AB1F5005F2E
:1059E00040F2D48200F58021CB0C03F00F0101EED0
:1059F000901AC3F307137F3BA0EBC350B8EEE12A24
:105A000000EE100A1A44DFEDED2AF0EE411A42EEE4
:105A1000221AF0EE613A70EE232A30EE632A12EE7B
:105A2000900A00F500606FF30B0001EE900A73EE30
:105A3000E13A33EE804AC1EE223A22EE230A10EE1A
:105A4000100A00F500606FF30B0000EE100A00EE84
:105A5000612A00EE442A62EE232A70EE221A21EE19
:105A6000A12ADFEDD73A02EE233A23EE023A20EEE6
:105A7000012A22EE811A03EE211A32EE010A10EEFB
:105A8000100A00F500606FF30B0000EE100A72EED2
:105A9000401A31EE812A9FEDCB1A60EE011A9FED7C
:105AA000CA1A20EE011A9FEDC90A02EE001A31EE61
:105AB000810A10EE100A00F500606FF30B0000EE93
:105AC000100AC34871EEC01A31EE812A784400EB07
:105AD000C10090ED003AD0ED011A100101EE100A5C
