:020000040800F2
:10000000803700206D020008AD440008A5440008B8
:10001000A944000815060008C54B000800000000B0
:10002000000000000000000000000000B3440008D1
:10003000C307000800000000B1440008B5440008F0
:10004000870200088702000887020008870200086C
:10005000870200088702000887020008870200085C
:10006000870200088702000887020008870200084C
:100070005906000887020008690600088702000880
:10008000870200088702000887020008870200082C
:1000900019060008290600088702000887020008E0
:1000A000870200088702000887020008870200080C
:1000B00087020008870200088702000887020008FC
:1000C00087020008870200088702000887020008EC
:1000D00087020008954B000887020008A54B00081E
:1000E00087020008870200088702000887020008CC
:1000F00087020008870200088702000887020008BC
:100100008702000887020008D1440008870200081F
:100110008702000887020008E144000887020008FF
:10012000870200087906000889060008870200088F
:10013000870200088702000887020008870200087B
:1001400039060008490600088702000887020008EF
:100150008702000899060008A9060008B54B0008A8
:10016000870200088702000887020008870200084B
:1001700087020008870200088702000800000000CC
:10018000870200088702000800F002F800F05EF81D
:100190000AA090E8000C82448344AAF10107DA45E2
:1001A00001D100F053F8AFF2090EBAE80F0013F0D6
:1001B000010F18BFFB1A43F001031847D494000045
:1001C000F49400000A444FF0000C10F8013B13F0C7
:1001D000070408BF10F8014B1D1108BF10F8015BA0
:1001E000641E05D010F8016B641E01F8016BF9D193
:1001F00013F0080F1EBF10F8014BAD1C0C1B09D1EA
:100200006D1E58BF01F801CBFAD505E014F8016B5B
:1002100001F8016B6D1EF9D59142D6D370470000ED
:100220000023002400250026103A28BF78C1FBD8FF
:10023000520728BF30C148BF0B6070471FB508F098
:10024000D2FD00F06FF91FBD10B510BD00F090F9A0
:100250001146FFF7F3FF07F07BFF00F0AEF903B4A0
:10026000FFF7F2FF03BC00F0B1F900000948804736
:1002700009480047FEE7FEE7FEE7FEE7FEE7FEE788
:10028000FEE7FEE7FEE7FEE704480549054A064BA0
:1002900070470000BD44000889010008803100203B
:1002A00080370020803300208033002053EA020C86
:1002B00000F069802DE9F04B4FF00006002B1FBFC6
:1002C000B3FA83F503FA05F424FA05F65E4012BF8B
:1002D0001643B2FA82F502FA05F4C5F120051EBFF5
:1002E00022FA05FC44EA0C04203556EA044C4FEA95
:1002F000144418BF641C4FF000084FF000099042EE
:1003000071EB030C39D3002919BFB1FA81F701FA57
:1003100007F6B0FA80F700FA07F6C7F120071EBF0C
:1003200020FA07FC46EA0C062037B6FBF4FCA7EBE4
:100330000507103F07F01F0BCBF120060CFA0BFB53
:100340002CFA06F644BFB3460026202FA4BF5E4613
:100350004FF0000B5BEA060C08BF4FF0010B19EBE6
:100360000B09ABFB027C48EB0608C01B06FB02CC6A
:100370000BFB03CC71EB0C01C1E70B460246414677
:100380004846BDE8F08B13B54FF000004FF0000178
:10039000AFF30080BDE81C40704710B54C1084EAF4
:1003A000530404D54042C1F1000138BF491E1B422D
:1003B00004D55242C3F1000338BF5B1EFFF776FF3E
:1003C00014F0804F04D04042C1F1000138BF491EF3
:1003D00014F0004F04D05242C3F1000338BF5B1E3B
:1003E00010BD032A40F2308010F0030C00F015809D
:1003F00011F8013BBCF1020F624498BF11F801CB28
:1004000000F8013B38BF11F8013BA2F1040298BF8C
:1004100000F801CB38BF00F8013B11F0030300F0F6
:100420002580083AC0F0088051F8043B083A51F89A
:1004300004CBA0E80810F5E7121D5CBF51F8043B9F
:1004400040F8043BAFF30080D20724BF11F8013B12
:1004500011F801CB48BF11F8012B24BF00F8013B74
:1004600000F801CB48BF00F8012B704710B5203AC7
:10047000C0F00B80B1E81850203AA0E81850B1E85D
:100480001850A0E81850BFF4F5AF5FEA027C24BF13
:10049000B1E81850A0E8185044BF18C918C0BDE80A
:1004A00010405FEA827C24BF51F8043B40F8043BD3
:1004B00008BF7047D20728BF31F8023B48BF11F888
:1004C000012B28BF20F8023B48BF00F8012B7047E2
:1004D0004FF0000200B5134694469646203922BFDD
:1004E000A0E80C50A0E80C50B1F12001BFF4F7AF28
:1004F000090728BFA0E80C5048BF0CC05DF804EB0A
:10050000890028BF40F8042B08BF704748BF20F877
:10051000022B11F0804F18BF00F8012B7047704775
:100520007047704770B5064C7C44064D7D4403E02F
:10053000206820448047241DAC42F9D170BD0000E2
:10054000849100008491000010B500F009F8006863
:1005500010BD10B5044600F003F8046010BD0000A3
:10056000004870471C310020004870471C310020B3
:100570007546FFF7F9FFAE4605006946534620F081
:100580000700854618B020B5FFF77EFEBDE8204085
:100590004FF000064FF000074FF000084FF0000B3F
:1005A00021F00701AC46ACE8C009ACE8C009ACE8F2
:1005B000C009ACE8C0098D46704710B50446AFF3DA
:1005C00000802046BDE81040FFF749BE01491820D1
:1005D000ABBEFEE7260002007047000010B50446DF
:1005E0004FF4627203492046FFF740FF204606F0B1
:1005F000DBFB10BD008E000810B504464FF462729C
:1006000003492046FFF732FF204606F0CDFB10BD20
:100610008891000800BFFEE710B5024800F0EDFA2F
:1006200010BD0000242D002010B5024800F0E5FAAE
:1006300010BD0000242D002010B5024800F0DDFAA6
:1006400010BD00004C2D002010B5024800F0D5FA76
:1006500010BD00004C2D002010B5024800F074FEC3
:1006600010BD00009C2F002010B5024800F06CFE69
:1006700010BD0000FC2F002010B5024800F064FE01
:1006800010BD00005C30002010B5024800F05CFE98
:1006900010BD0000DC2E002010B5024800F054FE12
:1006A00010BD0000BC30002010B5024800F04CFE28
:1006B00010BD00003C2F0020014608781038182398
:1006C000B0FBF3F20848805CC865032A05D90868C6
:1006D0006FF30900001D886503E008686FF30900E7
:1006E0008865886D7047000010950008014600205D
:1006F0008A6A8B69CBB932B1012A0DD0022A03D0A4
:10070000032A10D10EE000BFCB6A03F08073B3F16F
:10071000807F00D1012007E0CB6AB3F1C07F00D118
:10072000012001E000E000BF34E08B69B3F5005F19
:100730001AD132B1012A07D0022A03D0032A11D1DB
:100740000AE000BF01200EE0CB6A03F08073B3F132
:10075000807F00D1012006E0CB6AB3F1C07F00D1D9
:10076000012000E000BF15E032B1012A05D0022AC5
:1007700004D0032A0CD103E000BF00BF012008E031
:10078000CB6A03F08073B3F1807F00D1012000E0D9
:1007900000BF00BF704730B50468246824F480248B
:1007A00005682C60046863608468402C04D1046888
:1007B000A2600468E16003E00468A1600468E2608C
:1007C00030BD704772B600BFFEE710B5024692F822
:1007D0002030012B01D0022B06D11068406908435C
:1007E00014686061002010BD506A40F4802050629F
:1007F0000120F8E7F0B504460D461E4694F8207037
:1008000020688368A86800B900E000BF012F01D00C
:10081000022F7DD103F0806030B903F0006018B979
:1008200003F0805000287ED0C3F30161012088408E
:100830003060A86860B9B5F800C0E86840EA4C5C70
:10084000206800F5C07000EB0110C0F800C00FE098
:10085000D5E901C040EACC00D5F80CC040EA0C0054
:10086000D4F800C00CF5C07C0CEB011CCCF80000E7
:10087000D5F810C0206800F5C07000EB0110C0F87A
:1008800004C0287D01280ED1206800F5C07000EB5F
:100890000110406840F4807C206800F5C07000EBD7
:1008A0000110C0F804C0D079000692F806C040EAF2
:1008B0000C4092F805C040EA0C2092F804C040EACF
:1008C0000C00D4F800C00CF5C07C0CEB011CCCF87B
:1008D0000C00D078000692F802C040EA0C4092F872
:1008E00001C040EA0C2092F800C040EA0C00D4F8A5
:1008F00000C00CF5C07C0CEB011CCCF80800206893
:1009000000F5C07000EB0110006840F0010C01E040
:100910000FE008E0206800F5C07000EB0110C0F89F
:1009200000C00020F0BD606A40F400106062012049
:10093000F8E7606A40F4802060620120F2E700007E
:10094000F0B504460A46216894F82050012D01D0E4
:10095000022D7ED1424901F50071086840F0010086
:100960000860086820F47C5008600868566A40EA0D
:1009700006200860107D00F01F06012000FA06F333
:10098000C8699843C861A1F50071D069C8B9D1F8A8
:100990000C029843C1F80C02908880B2968940EA14
:1009A000064601F51070576940F83760108880B22C
:1009B000168940EA064601F51070576900EBC7003A
:1009C0004660D069012819D1D1F80C021843C1F84A
:1009D0000C02908880B2168840EA064601F5107035
:1009E000576940F83760908980B2168940EA064618
:1009F00001F51070576900EBC7004660906928B98F
:100A0000D1F804029843C1F8040204E0D1F80402CA
:100A10001843C1F80402106928B9D1F814029843A8
:100A2000C1F8140204E0D1F814021843C1F814020A
:100A3000106A012804D1D1F81C021843C1F81C0225
:100A4000D1F8000220F00100C1F800020020F0BD42
:100A5000FFE7606A40F4802060620120F7E7000051
:100A600000640040704770B5044694F82050012D92
:100A700001D0022D7DD151B92068C06800F003007B
:100A800080B9606A40F400106062012070BD206887
:100A9000006900F0030028B9606A40F40010606249
:100AA0000120F3E7206800F5D87000EB0110006822
:100AB00000F004009060906840B9206800F5D8709C
:100AC00000EB01100068400D106007E0206800F5A1
:100AD000D87000EB01100068C0085060206800F575
:100AE000D87000EB0110006800F00200D0602068B0
:100AF00000F5D87000EB0110406800F00F000828E6
:100B000002D30820106108E0206800F5D87000EBDF
:100B10000110406800F00F001061206800F5D870E7
:100B200000EB0110406800F47F40000A90612068EB
:100B300000F5D87000EB01104068000C506120688F
:100B400000F5D87000EB011080681870206800F57F
:100B5000D87000EB0110806800F47F40000A5870E4
:100B6000206800F5D87000EB0110806800F47F0069
:100B700000E03CE0000C9870206800F5D87000EBB5
:100B800001108068000ED870206800F5D87000EB66
:100B90000110C0681871206800F5D87000EB0110D2
:100BA000C06800F47F40000A5871206800F5D870D2
:100BB00000EB0110C06800F47F00000C9871206801
:100BC00000F5D87000EB0110C068000ED87131B983
:100BD0002068C06840F020002668F06005E02068CA
:100BE000006940F020002668306100204EE7606A0E
:100BF00040F480206062012048E72DE9F05F044660
:100C00000025206846692068D0F80490206887682D
:100C10002068D0F80CA02068D0F810B02068D0F878
:100C2000188006F00100002855D007F00100C0B17F
:100C300001202168886007F0020018B1204600F00A
:100C400012FB0EE007F0040010B145F4006508E067
:100C500007F0080010B145F4805502E0204600F08E
:100C600001FB07F48070C8B14FF480702168886080
:100C700007F4007018B1204600F0F7FA0EE007F410
:100C8000806010B145F4005508E007F4006010B131
:100C900045F4804502E0204600F0E6FA07F4803093
:100CA000C8B14FF480302168886007F4003018B173
:100CB000204600F0DCFA0EE007F4802010B145F485
:100CC000004508E007F4002010B145F4803502E04B
:100CD000204600F0CBFA06F0080038B10AF0100008
:100CE00020B145F4007510202168C86006F00400AA
:100CF00040B10AF0080028B108202168C8602046E9
:100D000000F01CFA06F0020038B12068C06800F05C
:100D1000030010B1204600F013FA06F0400038B18D
:100D20000BF0100020B145F48065102021680861A7
:100D300006F0200040B10BF0080028B1082021681F
:100D40000861204600F05CFA06F0100038B1206817
:100D5000006900F0030010B1204600F052FA06F4DA
:100D6000003040B109F0100028B11020216848601F
:100D7000204600F047FA06F4803040B109F0080040
:100D800028B1082021684860204600F071FA06F476
:100D9000004088B309F0040078B306F4807020B1F5
:100DA00008F0010008B145F0010506F4007020B11B
:100DB00008F0020008B145F0020506F4806020B199
:100DC00008F0040008B145F0040506F40060A0B185
:100DD00008F0700088B108F07000402817D006DCD9
:100DE00010280BD020280CD0302819D10CE0502826
:100DF00010D0602814D110E01DE019E045F008057E
:100E00000FE045F010050CE045F0200509E045F045
:100E1000400506E045F0800503E045F4807500E0FC
:100E200000BF00BF2068806920F0700021688861E1
:100E30000420216848602DB1606A28436062204622
:100E4000FFF710FEBDE8F09F70B504460CB9012015
:100E500070BD94F8200010B9204600F0AFF820686B
:100E6000006840F001002168086000F05BFD054665
:100E70000DE000F057FD401B0A2808D9606A40F4D5
:100E800000306062052084F820000120E0E720683F
:100E9000406800F001000028EBD02068006820F0D6
:100EA00002002168086000F03DFD05460DE000F0FD
:100EB00039FD401B0A2808D9606A40F4003060629E
:100EC000052084F820000120C2E72068406800F077
:100ED00002000028EBD1207E012806D1206800689E
:100EE00040F080002168086005E02068006820F07C
:100EF000800021680860607E012806D120680068B3
:100F000040F040002168086005E02068006820F09B
:100F1000400021680860A07E012806D12068006892
:100F200040F020002168086005E02068006820F09B
:100F3000200021680860E07E012806D12068006852
:100F400020F010002168086005E02068006840F08B
:100F5000100021680860207F012806D12068006801
:100F600040F008002168086005E02068006820F073
:100F7000080021680860607F012806D120680068A9
:100F800040F004002168086005E02068006820F057
:100F9000040021680860D4E902010843216908437C
:100FA000616908436168491E08432168C8610020DF
:100FB0006062012084F82000002049E710B586B067
:100FC0000446142101A8FFF783FA56492068884295
:100FD00049D155480068401C5349086008460068DC
:100FE00001280FD100BF002000905048006840F059
:100FF00000704E4908600846006800F000700090DC
:1010000000BF00BF00BF00200090484810380068B3
:1010100040F008004549103908600846006800F0B3
:101020000800009000BF00BF032001900220029042
:1010300000200390032004900920059001A93C485A
:1010400000F076FB00221146142000F0F9FC142079
:1010500000F0E2FC00221146152000F0F1FC152002
:1010600000F0DAFC5CE033492068884258D100BFC8
:10107000002000902D48006840F080602B490860F7
:101080000846006800F08060009000BF00BF26485E
:101090000068401C244908600846006801280FD1F8
:1010A00000BF002000902148006840F000701F49F8
:1010B00008600846006800F00070009000BF00BFA4
:1010C00000BF0020009019481038006840F002006E
:1010D0001649103908600846006800F002000090C8
:1010E00000BF00BF6020019002200290002003900A
:1010F000032004900920059001A90F4800F018FB77
:1011000000221146402000F09BFC402000F084FCAF
:1011100000221146412000F093FC412000F07CFCAD
:1011200006B010BD00640040380200204038024084
:10113000000C0240006800400004024070470000BC
:1011400010B586B00446264B264A00212046FFF7FC
:101150008AFC254884422DD12148224A0490D2E9B4
:101160000413D06892698DE80B0003921D480EC8E5
:101170001E4805F054FE1A4804901A48D0E904238A
:10118000C16880698DE80E00039016480EC81848A3
:1011900005F045FE1248134B0490D3E90321D3E92F
:1011A0000503CDE90203CDE900210E480EC8114820
:1011B00005F035FE104884420FD10948094B0490D0
:1011C000D3E90312D3E90503CDE90203CDE9001207
:1011D00004480EC8094804F0A9F906B010BD000083
:1011E0003801002088260020242D00200816002029
:1011F000F8150020E81500204C2D0020681900206B
:1012000070477047704770B5044694F82000012875
:1012100022D1022084F820002068006820F001001C
:101220002168086000F07EFB05460DE000F07AFBC7
:10123000401B0A2808D9606A40F40030606205202B
:1012400084F82000012070BD2068406800F0010093
:101250000028EBD16062F6E7606A40F4002060622B
:101260000120F0E77047704770477047704770473C
:10127000704770B50446A56D00F054FB064694F81F
:101280003500022808D08020606500BF002084F867
:10129000340000BF012070BD2068006820F01600F7
:1012A000216808602068406920F08000216848615A
:1012B000206C08B9A06C28B12068006820F00800F4
:1012C000216808602068006820F00100216808603B
:1012D00010E000F027FB801B05280BD9202060655B
:1012E000032084F8350000BF002084F8340000BFDC
:1012F0000320D0E72068006800F001000028E8D152
:1013000094F85C103F208840A860012084F83500E4
:1013100000BF002084F8340000BF00BFBBE70146D7
:1013200091F83500022803D08020486501207047DD
:10133000052081F835000868006820F001000A687F
:1013400010600020F3E70000F8B50446002000908C
:101350008C4800684FF41651B0FBF1F7A56D2E686C
:1013600094F85C1008208840304098B120680068EC
:1013700000F0040070B12068006820F004002168CB
:10138000086094F85C1008208840A860606D40F008
:101390000100606594F85C1001208840304068B11D
:1013A0002068406900F0800040B194F85C10012092
:1013B0008840A860606D40F00200606594F85C10A1
:1013C00004208840304068B12068006800F00200C6
:1013D00040B194F85C1004208840A860606D40F033
:1013E0000400606594F85C1010208840304078B3A9
:1013F0002068006800F0080050B394F85C101020DA
:101400008840A8602068006800F4802080B12068CF
:10141000006800F4002028B9206CC8B12046216C77
:10142000884715E0A06C98B12046A16C88470FE072
:101430002068006800F4807028B92068006820F0F7
:10144000080021680860206C10B12046216C884794
:1014500094F85C10202088403040002865D0206837
:10146000006800F0100000285FD094F85C10202085
:101470008840A86094F83500052828D120680068C5
:1014800020F01600216808602068406920F0800084
:1014900021684861206C08B9A06C28B120680068F8
:1014A00020F008002168086094F85C103F20884014
:1014B000A860012084F8350000BF002084F83400C3
:1014C00000BF206D10B12046216D8847F8BD20680F
:1014D000006800F4802080B12068006800F40020DB
:1014E00028B9606C10B12046616C88471DE0E06B44
:1014F000D8B12046E16B884717E02068006800F407
:10150000807068B92068006820F0100021680860C9
:10151000012084F8350000BF002084F8340000BFAB
:10152000E06B10B12046E16B8847606D38B3606DA9
:1015300000F00100F0B1052084F835002068006853
:1015400020F001002168086000BF0098401C009056
:10155000B84200D905E02068006800F001000028CA
:10156000F3D100BF012084F8350000BF002084F8CB
:10157000340000BFE06C10B12046E16C884700BF2A
:10158000A4E70000480200202DE9F04104460025B0
:1015900000F0C8F9074614B90120BDE8F081606A7F
:1015A00000B100BF022084F8350000BF002084F89D
:1015B000340000BF2068006820F001002168086046
:1015C0000AE000F0AFF9C01B052805D920206065AE
:1015D000032084F83500E0E72068006800F001008F
:1015E0000028EED12068056821480540D4E90101B2
:1015F0000843E16808432169084361690843A16918
:101600000843E1690843216A08430543606A0428E6
:1016100003D1D4E90B010843054320680560206825
:10162000456925F00705606A0543606A04280DD105
:10163000A06A0543E06A48B12046FFF757F828B191
:1016400040206065012084F83500A6E720684561E8
:101650002046FFF731F8064694F85C103F2088409A
:10166000B06000206065012084F83500002094E718
:101670003F8010F02DE9F04704460D4616461F4600
:101680004FF00008D4F8589000BF94F834000128B7
:1016900002D10220BDE8F087012084F8340000BFA9
:1016A00094F83500012825D1022084F83500002067
:1016B00060653B46324629462046FFF76CF894F8B1
:1016C0005C103F208840C9F808002068006840F09E
:1016D000160021680860206C28B12068006840F07E
:1016E0000800216808602068006840F00100216857
:1016F000086006E000BF002084F8340000BF4FF00F
:1017000002084046C6E7000070B5044600F00AF93A
:1017100006462546681C10B104480078054400BF01
:1017200000F000F9801BA842FAD370BD44020020EB
:10173000F8B502460B460025002400200021D6E023
:10174000012606FA01F51E6806EA0504AC4274D1CA
:101750001E7906F00306012E04D01E7906F003065A
:10176000022E13D190684F000326BE40B0434F00B5
:10177000DE68BE4030439060506801268E40B04322
:101780001E79C6F300168E40304350601E7906F075
:101790000306032E09D0D0684F000326BE40B04395
:1017A0004F009E68BE403043D0601E7906F00306AD
:1017B000022E13D1CF0802F1200656F827004E075B
:1017C000F70E0F26BE40B0434F07FF0E1E69BE4006
:1017D0003043CF0802F1200646F8270010684F007A
:1017E0000326BE40B0431E7906F003064F00BE40FC
:1017F000304310605E6806F44036002E76D000BF9D
:10180000002600963C4E366846F480463A4F3E60CD
:101810003E46366806F48046009600BF00BF374E4D
:101820008F0856F827008E07370F0F26BE40B043AB
:10183000334EB24202D1002624E057E0314EB2428C
:1018400001D101261EE0304EB24201D1022619E03C
:101850002E4EB24201D1032614E02D4EB24201D1E8
:1018600004260FE02B4EB24201D105260AE02A4E93
:10187000B24201D1062605E0284EB24201D1072628
:1018800000E008268F073F0FBE4030431B4E8F08F5
:1018900046F82700224E3068A0435E6806F48016A2
:1018A00006B120431E4E3060361D3068A0435E688E
:1018B00006F4001606B12043194E361D3060184E4E
:1018C000361F3068A0435E6806F4003606B1204338
:1018D000134E361F3060361F3068A0435E6806F432
:1018E000803606B120430E4E083E3060491C102958
:1018F000FFF426AFF8BD000044380240083801402C
:10190000000002400004024000080240000C0240B7
:10191000001002400014024000180240001C024067
:10192000083C014001480068704700003C0200206C
:101930000348006803490978084401490860704772
:101940003C0200204402002010B50D48006840F41D
:1019500000700B4908600846006840F48060086029
:101960000846006840F480700860032000F0A6F884
:101970000F2000F007F800F02BF8002010BD000049
:10198000003C024070B504460E4800784FF47A716E
:10199000B1FBF0F00C490968B1FBF0F5284600F006
:1019A0002FFC08B1012070BD102C07D20022214667
:1019B000501E00F045F80548046001E00120F2E700
:1019C0000020F0E7440200204802002040020020EE
:1019D00008B500BF002000900E48006840F4804029
:1019E0000C4908600846006800F48040009000BF81
:1019F00000BF00BF00200090081F006840F080502A
:101A0000091F08600846006800F08050009000BF81
:101A100000BF08BD443802400146084600280DDBDF
:101A200000BF00BF00F01F0301229A4043099B0042
:101A300003F1E023C3F8002100BF00BF00BF7047DF
:101A40002DE9F05F80460D461646002705F076FB2F
:101A5000074639462A46334601F00700C0F1070A17
:101A6000BAF1040F02D94FF0040A01E0C0F1070AED
:101A7000D14600F1040ABAF1070F02D24FF0000A72
:101A800001E0A0F1030AD4464FF0010A0AFA09FA6C
:101A9000AAF1010A0AEA020A0AFA0CFA4FF0010B4B
:101AA0000BFA0CFBABF1010B0BEA030B4AEA0B043C
:101AB0002146404605F04AFBBDE8F09F00BF00F01C
:101AC0000702064B19684FF6FF031940044B0B43FE
:101AD00043EA0221014B196000BF70470CED00E0A2
:101AE0000000FA0570B504460D460CB9012070BD22
:101AF0005848006800F00700A84209D255490D7007
:101B00000846006800F00700A84201D00120EEE777
:101B1000207800F0020002281DD1207800F0040097
:101B2000042805D14C48006840F4E0504A49086058
:101B3000207800F00800082805D14748006840F4E4
:101B40006040454908604448006820F0F000A16802
:101B5000084341490860207800F00100A8B360689C
:101B6000012807D13C4808380068C0F34040B8B9A4
:101B70000120BCE76068022802D06068032807D112
:101B8000354808380068C0F3406048B90120AEE726
:101B9000314808380068C0F3400008B90120A6E7C2
:101BA0002D48006820F00300616808432A49086056
:101BB000FFF7B8FE064609E0FFF7B4FE801B41F2CE
:101BC0008831884202D9032091E707E02248006863
:101BD00000F00C006168B0EB810FEDD11D4800688A
:101BE00000F00700A84209D91A490D70084600689C
:101BF00000F00700A84201D0012078E7207800F02B
:101C00000400042807D11448006820F4E050E1687B
:101C1000084311490860207800F00800082808D11E
:101C20000D48006820F46040216940EAC1000A497B
:101C3000086000F03FF808490968C1F30311074A3A
:101C4000515CC8400649086006480068FFF79AFEE4
:101C500000204CE7003C024008380240189500087C
:101C60004802002040020020014800687047000040
:101C70004802002000B5FFF7F7FF04490968C1F3E7
:101C80008221034A515CC84000BD00000838024070
:101C90002895000800B5FFF7E7FF04490968C1F37C
:101CA0004231034A515CC84000BD00000838024080
:101CB000289500082DE9F047002400250026A146BC
:101CC0002548006800F00C0020B1042805D0082841
:101CD0003AD105E0DFF8849039E0DFF8849036E00F
:101CE0001D48001F006800F03F041B48001F0068EB
:101CF00000F4800078B11A481749091F0968C1F338
:101D00008811A0FB01700146224600233846FEF7E9
:101D1000CDFA05460EE011480F49091F0968C1F3C5
:101D20008811A0FB01700146224600233846FEF7C9
:101D3000BDFA05460848001F0068C0F30140401C7A
:101D40004600B5FBF6F902E0DFF8109000BF00BFD7
:101D50004846BDE8F0870000083802400024F4003F
:101D6000001BB700F8B504460CB90120F8BD207877
:101D700000F00100002874D0F948006800F00C0061
:101D800004280DD0F648006800F00C00082813D194
:101D9000F348001F006800F48000B0F5800F0BD1FD
:101DA000EF4808380068C0F34040002859D0606808
:101DB000002856D10120D9E700BF6068B0F5803F08
:101DC00008D1E7480838006840F48030E449083911
:101DD00008601EE06068B0F5A02F0DD1E04808381B
:101DE000006840F48020DE49083908600846006831
:101DF00040F4803008600CE0D9480838006820F4CE
:101E00008030D749083908600846006820F48020EF
:101E1000086000BF606890B1FFF784FD054606E0EA
:101E2000FFF780FD401B642801D903209EE7CC48C2
:101E300008380068C0F340400028F1D011E0FFF7F7
:101E400071FD054606E0FFF76DFD401B642801D9D2
:101E500003208BE7C24808380068C0F340400028E0
:101E6000F1D1207800F0020002285FD1BC48006860
:101E700000F00C0058B1BA48006800F00C000828C7
:101E80001CD1B748001F006800F48000B0B9B44806
:101E900008380068C0F3400020B1E068012801D094
:101EA000012063E7AE480838006820F0F800216997
:101EB00040EAC100AA490839086037E0E06800B389
:101EC0000120A8490860FFF72DFD054606E0FFF751
:101ED00029FD401B022801D9032047E7A048083804
:101EE0000068C0F340000028F1D09D480838006821
:101EF00020F0F800216940EAC100994908390860DA
:101F000014E0002097490860FFF70CFD054606E045
:101F1000FFF708FD401B022801D9032026E790485F
:101F200008380068C0F340000028F1D1207800F0A4
:101F3000080008282CD16069A8B101208A490860EE
:101F4000FFF7F0FC054606E0FFF7ECFC401B02281B
:101F500001D903200AE782486C300068C0F34000D2
:101F60000028F1D014E000207F490860FFF7DAFC78
:101F7000054606E0FFF7D6FC401B022801D90320E6
:101F8000F4E677486C300068C0F340000028F1D1D7
:101F9000207800F00400042870D100277048383001
:101FA000006800F0805090B900BF002000906C489D
:101FB0003830006840F08050694938310860084680
:101FC000006800F08050009000BF00BF0127674804
:101FD000006800F48070B0B96448006840F4807014
:101FE00062490860FFF79EFC054606E0FFF79AFC91
:101FF000401B022801D90320B8E65C48006800F4C1
:1020000080700028F2D000BFA068012808D1544891
:102010006830006840F001005149683108601DE0F7
:10202000A06805280DD14E486830006840F00400D3
:102030004B49683108600846006840F001000860BC
:102040000CE047486830006820F0010044496831DE
:1020500008600846006820F00400086000BFA0681F
:10206000A8B1FFF75FFC054609E0FFF75BFC401BEA
:1020700041F28831884202D9032077E626E03848C9
:1020800068300068C0F340000028EED013E0FFF78E
:1020900049FC054608E0FFF745FC401B41F288314A
:1020A000884201D9032061E62D4868300068C0F3FA
:1020B00040000028EFD1012F07D1294838300068AF
:1020C00020F0805026493831086000BFA069002800
:1020D00045D02348006800F00C0008285DD0A069B6
:1020E000022845D100201F490866FFF71BFC054662
:1020F00006E0FFF717FC401B022801D9032035E654
:10210000174808380068C0F340600028F1D1D4E9CE
:1021100007010843616A40EA81110122A06AC2EB0B
:10212000500041EA00412C20005D41EA00600C496A
:10213000091F086001200B490866FFF7F3FB0546FD
:1021400006E0FFF7EFFB401B022801D903200DE654
:10215000034808380068C0F340600028F1D049E027
:102160000838024000004742800E4742007000409D
:10217000002021490866FFF7D5FB054606E0FFF77A
:10218000D1FB401B022801D90320EFE51B48006862
:10219000C0F340600028F2D12CE0A069012800D1F2
:1021A000E4E51648001D0668A069012820D006F461
:1021B0008001E06981421BD106F03F01206A814223
:1021C00016D147F6C0703040616AB0EB811F0FD165
:1021D00006F440310122A06AC2EB5000B1EB004F7F
:1021E00006D106F070612C20005DB1EB006F01D0CC
:1021F0000120BBE50020B9E500004742003802405D
:1022000070B504462546681EB0F1807F01D30120D9
:102210000FE0681E4FF0E02148610F214FF0FF30C2
:1022200004F094FF00204FF0E0218861072008614E
:10223000002070BD7047704730B502460B4600BFA6
:1022400092F83C00012801D1022030BD012082F823
:102250003C0000BF022082F83D001068446810680E
:10226000816824F070041868044310684460184DB5
:102270001068A8421BD01068B0F1804F17D0154DE0
:102280001068A84213D0144D1068A8420FD0134D07
:102290001068A8420BD0124D1068A84207D0114D0B
:1022A0001068A84203D0104D1068A84205D121F053
:1022B00080015868014310688160012082F83D0068
:1022C00000BF002082F83C0000BF00BFBDE7000057
:1022D000000001400004004000080040000C0040E5
:1022E00000040140004001400018004010B50446C1
:1022F0000CB9012010BD94F83D0028B9002084F8E5
:102300003C00204600F026F8022084F83D00211D04
:10231000206802F0EDF8012084F8460000BF84F840
:102320003E0001213F20015540200155412001552B
:1023300000BF00BF012084F8420043200155442023
:1023400001554520015500BF012084F83D000020C3
:10235000D0E7000038B504461C492068884218D1EF
:1023600000BF002000901A48006840F0080018499B
:1023700008600846006800F00800009000BF00BF39
:10238000002211463220FFF75BFB3220FFF744FBAF
:102390001BE010492068884217D100BF0020009040
:1023A0000B48006840F010000949086008460068C2
:1023B00000F01000009000BF00BF00221146362040
:1023C000FFF73EFB3620FFF727FB38BD000C00402F
:1023D0004038024000100040014691F83D000128BD
:1023E00001D001207047022081F83D000868C068D4
:1023F00040F001000B68D8601A4B086898421BD067
:102400000868B0F1804F17D0174B0868984213D076
:10241000164B086898420FD0154B086898420BD0AD
:10242000144B0868984207D0134B0868984203D0B1
:10243000124B086898420CD10868806800F00702C7
:10244000062A0CD00868006840F001000B6818608C
:1024500005E00868006840F001000B681860002083
:10246000C0E70000000001400004004000080040F8
:10247000000C0040000401400040014000180040F2
:102480002DE9F04104460D46002700BF94F83C00BA
:10249000012802D10220BDE8F081012084F83C002F
:1024A00000BF022084F83D002068866826F0770689
:1024B00026F47F46206886602868502833D00CDCDC
:1024C000202850D004DC00284BD0102851D149E0FE
:1024D000302849D040284CD139E060282DD07028D0
:1024E00007D0B0F5805F03D0B0F5005F41D10DE0BB
:1024F00041E0D5E902136A68206802F06DF82068AF
:10250000866846F077062068866034E0D5E90213D5
:102510006A68206802F060F82068806840F48040B3
:102520002168886027E0EA686968206802F068F836
:102530005021206802F05BF81DE0EA6869682068B5
:1025400002F071F86021206802F051F813E0EA68A7
:102550006968206802F054F84021206802F047F8CA
:1025600009E000BF00BF00BF2968206802F03FF803
:1025700001E0012700BF00BF012084F83D0000BF3B
:10258000002084F83C0000BF384684E7704770B5EF
:1025900004462068C5682068066906F00200022823
:1025A00019D105F00200022815D1401F21680861E9
:1025B000012020772068806900F0030018B12046D0
:1025C000FFF7E4FF05E0204600F097F8204600F012
:1025D00095F80020207706F00400042819D105F0B2
:1025E0000400042815D1C043216808610220207727
:1025F0002068806900F4407018B12046FFF7C6FFDC
:1026000005E0204600F079F8204600F077F8002039
:10261000207706F00800082819D105F008000828DE
:1026200015D1C04321680861042020772068C06963
:1026300000F0030018B12046FFF7A8FF05E0204690
:1026400000F05BF8204600F059F80020207706F0F3
:102650001000102819D105F01000102815D1C04322
:1026600021680861082020772068C06900F4407064
:1026700018B12046FFF78AFF05E0204600F03DF83C
:10268000204600F03BF80020207706F0010048B11A
:1026900005F0010030B16FF00100216808612046AB
:1026A00000F02EF806F08000802809D105F08000A7
:1026B000802805D1C043216808612046FFF7BAFD94
:1026C00006F04000402809D105F04000402805D11F
:1026D000C04321680861204601F0D0FA06F02000CE
:1026E000202809D105F02000202805D1C043216809
:1026F00008612046FFF79FFD70BD704770470000DE
:1027000001B52DED028B92B0FE491498884241F03C
:102710003A820020FC490870FC490870FC490870A6
:10272000FC490870FC490870FC48007A012804D173
:10273000FA48407A012800D100E00020F749097AE0
:10274000012905D1F549497A032901D1012100E088
:1027500000210843F149097A012905D1EF49497A55
:10276000022901D1012100E000210843EB49097A47
:10277000032904D1E949497A012900D100E0002167
:102780000843E649097A032905D1E449497A02292F
:1027900001D1012100E00021084301287ED1DC495C
:1027A0000870D9490870DD484088A0F5806000B203
:1027B0000F281ADDDA48006806F074FA9FEDD90B8D
:1027C00053EC102BCDE90E019DED0E0B51EC100BCF
:1027D00005F022FDCDE910019DED100B51EC100B21
:1027E00005F0E8FCCE49086021E0CC484088A0F51F
:1027F000806000B210F10F0F19DAC948006806F0C6
:1028000051FA9FEDC80B53EC102BCDE90E019DED55
:102810000E0B51EC100B06F05BF9CDE910019DEDAC
:10282000100B51EC100B05F0C5FCBD490860BB480E
:102830000088A0F5806000B20F281ADDBB48006850
:1028400006F030FA9FEDBA0B53EC102BCDE90E01D8
:102850009DED0E0B51EC100B06F03AF9CDE910018D
:102860009DED100B51EC100B05F0A4FCAF49086076
:1028700023E0AA480088A0F5806000B210F10F0F95
:102880001BDAAA48006806F00DFA9FEDA90B53EC7D
:10289000102BCDE90E019DED0E0B00E08DE051EC0B
:1028A000100B05F0B9FCCDE910019DED100B51ECBA
:1028B000100B05F07FFC9D4908609848007A0328BA
:1028C00004D19648407A012800D100E00020012878
:1028D00028D1FFF727F8119090484089A0F5806033
:1028E00000B2002818DD944911980968401A9349EC
:1028F0000968884210DB9248D0E9002047F6FC7353
:10290000D21A60F100008E49C1E900208A4911986D
:10291000086001208B4908709FED8B0A8B4880ED81
:10292000000A17E27D48007A032805D17B48407AE7
:10293000022801D1012000E00020012821D100203F
:10294000804908708249088074484089A0F58060F9
:1029500000B2002806DD4FF47A7008800120794922
:102960000870F7E16D484089A0F5806000B200284A
:10297000D7DA4FF61840764908800120714908706F
:10298000E8E100207249088000EE100AB8EEC00AA3
:10299000704880ED000A6D4880ED000AB5EEC00A6F
:1029A000F1EE10FA01D0012000E000206549087026
:1029B0000021084602F0A0FCCCE15848007A032828
:1029C00005D15648407A032801D1012000E00020BB
:1029D000012872D14D4908704B4908704F48B0F931
:1029E0000C0000EE100AB8EEC00AB5EEC00AF1EE17
:1029F00010FA0FD04948B0F90C0000EE100AF8EEBA
:102A0000C00A4A4890ED000A9FED531A00EE810A71
:102A100080ED000A4148B0F90E0000EE100AB8EE51
:102A2000C00AB5EEC00AF1EE10FA0FD03B48B0F97B
:102A30000E0000EE100AF8EEC00A394890ED000AC8
:102A40009FED461A00EE810A80ED000A9FED440AD0
:102A50008DED110A9FED420A8DED100A4148007874
:102A600050BB2E48007D00F0010020B19FED3E0AD2
:102A70008DED110A17E02948007DC0F3400020B118
:102A80009FED3A0A8DED110A0DE02448007D00F01B
:102A9000010020B12148007DC0F3400018B99FED2E
:102AA000300A8DED110A1D48007DC0F3800028B169
:102AB0009FED2D0A8DED100A18E032E11748007DD8
:102AC000C0F3C00020B19FED290A8DED100A0DE082
:102AD0001248007DC0F3800020B11048007DC0F393
:102AE000C00018B99FED1E0A8DED100A01219DED61
:102AF000110A1F4802F01CFF01219DED100A1D481C
:102B00003AE00000BC2D00203500002035020020F6
:102B1000340200203900002037000020F82C00206B
:102B2000440000207B14AE47E17A943F4C00002023
:102B30009A9999999999C93F540000205000002012
:102B400058000020300000200020CB45A4000020C9
:102B50002E000020A80000206F1203BA6F1283B964
:102B6000000000002C00002000002544000025C4C7
:102B7000382100205821002002F0DAFEFA48007DBA
:102B8000C0F3401001460F90F84803F03FFCF648B0
:102B9000007DC0F3C01001460F90F54803F036FCED
:102BA000F148808AC0F3402001460F90F14803F0BD
:102BB0002DFCF0488078F04909780844EE49087007
:102BC000084600780F9000EBD07041100F98A0EBF2
:102BD0004100E9490870E448007DC0F380100146D7
:102BE0000F90E64803F012FCE4488078E449097845
:102BF0000844E3490870084600780F9000EBD07055
:102C000041100F98A0EB4100DD490870D648808A3A
:102C1000C0F3403001460F90DA4803F0F7FBD2488A
:102C2000808AC0F3803001460F90D74803F0EEFB56
:102C3000D4488078012802D1D449087006E0D248EF
:102C40008078012802D10020D0490870C8488078D7
:102C5000012805D10020C8490870C94908700EE054
:102C6000C4488078012803D10020C549087006E0D7
:102C7000C2488078012802D10020BF490870BE48B0
:102C80000078012802D1C24908700AE0BC480078E7
:102C9000012803D10220BE49087002E00020BC498F
:102CA0000870B148007DC0F3001001460F90B9488C
:102CB00003F0ACFBB7480078B7490870AA48808A8F
:102CC000C00B01460F90B54803F0A0FBA648808AD0
:102CD000C0F3802001460F90B14803F097FBAF4846
:102CE000C078012804D11FED620AAE4880ED000AC9
:102CF000AB48C078012804D11FED6D0AA94880EDCA
:102D0000000A9948807C012805D19FEDA70AA748B1
:102D100080ED000A04E01FED6E0AA44880ED000A71
:102D200018E00021084602F0E7FA0020A0490870E8
:102D3000A049088000EE100AB8EEC00A9B4880ED5A
:102D4000000A984880ED000ABCEEC00A10EE100A96
:102D50008F49087098480178984803F057FB9848C5
:102D60000178984803F052FB9448C0789549C97897
:102D7000084301281FD10020934908708349087037
:102D8000924908700021084602F0B6FA00208849EE
:102D900008708849088000EE100AB8EEC00A83481F
:102DA00080ED000A7F4880ED000ABCEEC00A10EEFC
:102DB000100A774908707B4890ED000AB5EEC00A0A
:102DC000F1EE10FA65D0006805F06CFF9FED800B06
:102DD00053EC102BCDE90C019DED0C0B51EC100BBD
:102DE00005F036FDCDE910016E4890ED000A04F0C3
:102DF0008CF98DED090A099805F054FFCDE90C0115
:102E0000754890ED080A8DED040A9DED040A04F062
:102E10007CF9B0EE408A714890ED080A8DED040A05
:102E20009DED040A04F071F938EE000A8DED050AF3
:102E3000059805F037FF9FED6A0B53EC102BCDE999
:102E400006019DED060B51EC100B05F001FDCDE9DF
:102E500008019DED080B04F09FF98DED0A0B9DED27
:102E60000C0B53EC102B9DED0A0B51EC100B05F0E5
:102E70002FFECDE90E019DED100B53EC102B9DEDB7
:102E80000E0B51EC100B05F0A7FC02D201204F49AC
:102E90000870464890ED000AB5EEC00AF1EE10FA4F
:102EA0003DD0006805F0FEFE9FED4D0B53EC102B5E
:102EB000CDE90C019DED0C0B51EC100B05F0C8FC9D
:102EC000CDE91001484890ED080A8DED0B0A9DED03
:102ED0000B0A04F01AF9B0EE408A344890ED000A6B
:102EE00004F013F938EE400A8DED0C0A9DED0C0A42
:102EF00004F00BF98DED0D0A0D9805F0D3FECDE928
:102F00000E019DED100B53EC102B9DED0E0B51ECB3
:102F1000100B05F061FC02D201202B490870124809
:102F2000007A032804D11048407A012800D100E03B
:102F300000200D49097A032905D10B49497A022954
:102F400001D1012100E000210843012801D10F49EE
:102F500008700E48007801284CD1244890ED000AF2
:102F6000234880ED000A4BE0F82C0020F8000020F8
:102F7000130100200101002005010020FC000020B9
:102F8000000100201C01002020010020380000204A
:102F90002C0000200E01002012010020060100205C
:102FA0000A010020A400002000803B45A80000206A
:102FB000300000202E000020340200203A000020C3
:102FC000350200203E00002039000020370000209C
:102FD0009A9999999999D93F20220020A8220020F6
:102FE000000000000000E03F3023002030010020FE
:102FF0002C010020FE4890ED000AFE4880ED000AFA
:103000000020FD490870FD4890EDCA0B8DED100BB6
:103010009DED100B51EC100B05F0CCF8F849086051
:10302000F848007A012804D1F648407A012800D1F6
:1030300000E00020F349097A032904D1F149497AD3
:10304000012900D100E000210843EE49097A032953
:1030500005D1EC49497A022901D1012100E0002182
:103060000843012820D0E748007A032805D1E54825
:10307000407A032801D1012000E00020012802D17C
:10308000E148007880B1DF48007A012805D1DD48A9
:10309000407A022801D1012000E00020012803D05D
:1030A000D948007802287AD140F20521D74803F0A8
:1030B00094FE002808DA40F20521D44803F08DFE82
:1030C00041F6FF71084404E040F20521CF4803F0C7
:1030D00084FE0D9005F017FB9FEDCD0B53EC102BEC
:1030E000CDE90E019DED0E0B51EC100B05F048F9EA
:1030F000CDE910019DED100B51EC100B05F05AF8C5
:10310000C5490860BE4890ED000ADFEDC40A30EE04
:10311000200A8DED100A9FEDC21A0846D0ED000A74
:103120009DED100A02F092F8BB48D0ED000A30EE97
:10313000600A8DED110A9DED110A03F0E6FFB0EE75
:10314000408AAF4890ED000ADFEDB60A30EE200A63
:103150008DED100A9FEDB21AAF48D0ED000A9DED3B
:10316000100A02F073F8AC48D0ED000A30EE600AA5
:103170008DED110A9DED110A03F0C7FFB4EEC08A70
:10318000F1EE10FA0CD89E4890ED000ADFEDA30A8C
:1031900030EE200A80ED000A0020974908700BE00D
:1031A000974890ED000ADFED9F0A30EE200A80ED8F
:1031B000000A0121904801709FED991A9648D0EDC0
:1031C000000A8F4890ED000A02F040F89248D0EDD6
:1031D000000A30EE600A944880ED000A934890EDB2
:1031E000010ABDEEC00A10EE100A00B211900028CC
:1031F00001DB119801E0119840420B9005F083FA31
:103200009FED8B0B53EC102BCDE90C019DED0C0BBE
:1032100051EC100B05F01CFB9FED870B53EC102BB2
:10322000CDE90E019DED0E0B51EC100B05F044FCA9
:10323000834A03C2824890ED000B8DED100B9FED89
:10324000810B53EC102B9DED100B51EC100B05F086
:10325000C3FA02D29FED7B0B02E0794890ED000BA0
:10326000774880ED000B7948007880B99FED6B0AB4
:10327000774880ED000A774890ED000A764880EDA7
:10328000000A764890ED000A754880ED000A6F4804
:10329000007801287CD16E48006805F003FD9FEDA1
:1032A000710B53EC102BCDE90E019DED0E0B51EC83
:1032B000100B04F0B1FFCDE910019DED100B51ECA6
:1032C000100B04F077FF624908606848006805F059
:1032D000E9FCCDE90A015E48006805F0E3FC9FEDDA
:1032E000640B53EC102BCDE906019DED060B51EC60
:1032F000100B05F0ADFACDE908019DED0A0B53EC7A
:10330000102B9DED080B51EC100B05F0A1FA9FED71
:103310005A0B53EC102BCDE90C019DED0C0B51EC2D
:10332000100B05F095FACDE90E019DED0E0B51EC59
:10333000100B04F03FFF11909DED110A04F068FAA4
:103340004F48D0ED000A20EE208A4848006805F07A
:10335000A9FCCDE90A013E48006805F0A3FC9FEDF9
:10336000440B53EC102BCDE906019DED060B51ECFF
:10337000100B05F06DFACDE908019DED0A0B53EC39
:10338000102B9DED080B51EC100B05F061FA00E0DD
:1033900067E19FED3C0B53EC102BCDE90C019DED4B
:1033A0000C0B51EC100B05F053FACDE90E019DED1D
:1033B0000E0B51EC100B04F0FDFE11909DED110A67
:1033C00004F026FA28EE008A2848006805F06AFC16
:1033D000CDE90A011E48006805F064FC9FED240B4E
:1033E00053EC102BCDE906019DED060B4EE00000DD
:1033F000340100202C010020360000203816002067
:103400009C000020F82C00202C0000200816002032
:103410000000000000C03640A000002000000000B6
:103420000000B4430000344398000020FC25002035
:103430007B14AE47E17A743F333333333333D33FB6
:10344000D01C00200000000000000000D801002077
:10345000C4010020CC010020B0010020D0010020D8
:10346000B4010020FCA9F1D24D62503FC8010020F8
:103470004AD8124DFB2119409A9999999999E93F97
:10348000BC0100209A9999999999C93F51EC100B68
:1034900005F0DEF9CDE908019DED0A0B53EC102B88
:1034A0009DED080B51EC100B05F0D2F99FEDFE0BD2
:1034B00053EC102BCDE90C019DED0C0B51EC100BD6
:1034C00005F0C6F9CDE90E019DED0E0B51EC100B88
:1034D00004F070FE11909DED110A04F099F928EEA8
:1034E000000AF34880ED000AF248006805F0DAFBB4
:1034F000CDE90A01F048006805F0D4FB1FED240B6C
:1035000053EC102BCDE906019DED060B51EC100B91
:1035100005F09EF9CDE908019DED0A0B53EC102B47
:103520009DED080B51EC100B05F092F91FED2E0BE1
:1035300053EC102BCDE90C019DED0C0B51EC100B55
:1035400005F086F9CDE90E019DED0E0B51EC100B47
:1035500004F030FE11909DED110A04F059F9D7489E
:10356000D0ED000A20EE208AD248006805F09AFBD0
:10357000CDE90A01D048006805F094FB1FED440B2B
:1035800053EC102BCDE906019DED060B51EC100B11
:1035900005F05EF9CDE908019DED0A0B53EC102B07
:1035A0009DED080B51EC100B05F052F91FED4B0B84
:1035B00053EC102BCDE90C019DED0C0B51EC100BD5
:1035C00005F046F9CDE90E019DED0E0B51EC100B07
:1035D00004F0F0FD11909DED110A04F019F928EEA8
:1035E000008AB448006805F05DFBCDE90A01B248E5
:1035F000006805F057FB1FED620B53EC102BCDE973
:1036000006019DED060B51EC100B05F021F9CDE9FB
:1036100008019DED0A0B53EC102B9DED080B51ECAE
:10362000100B05F015F99FEDA00B53EC102BCDE915
:103630000C019DED0C0B51EC100B05F009F9CDE9D7
:103640000E019DED0E0B51EC100B04F0B3FD11902B
:103650009DED110A04F0DCF828EE000A984880ED90
:10366000000A0121974890ED000A974802F060F99E
:103670009648006B0F9005F015FBCDE91001012174
:10368000934880F8C010924A9832DDE9100103C2D5
:1036900000BF8E4890ED050ADFED8E0A20EE200A6D
:1036A000BDEEC00A8DED0B0A0B9805F02CF89FEDCE
:1036B0008A0B53EC102BCDE90C019DED0C0B51EC5A
:1036C000100B05F0C5F8CDE90E019DED0E0B51EC88
:1036D000100B04F06FFD012111909DED110A80483F
:1036E00002F026F97F48006805F0DCFACDE9100108
:1036F0007B4840680B9005F0D5FACDE90E01724881
:1037000090ED010A6A48D0ED000A30EE200A8DEDF6
:103710000B0A0B9805F0C6FA3022CDE90C0172496C
:103720006846FCF7A3FE9DED102B9DED0E1B9DED55
:103730000C0B6D4808380CC8654802F07BFE40F25F
:1037400005216A4803F05AFB00EE100AB8EEC00AE1
:103750008DED110A01219DED110A654802F0E8F88E
:1037600040F20521614803F038FB0D9004F0CBFFD7
:10377000CDE910015F48006805F094FA3022CDE9E8
:103780000E015D496846FCF771FE9FED5C2B9DEDD7
:10379000101B9DED0E0B584808380CC8594803F013
:1037A0005DF8534840680F9005F07CFA3022CDE96F
:1037B000100155496846FCF759FE524890ED020B3E
:1037C0008DED0E0B9FED4D2B9DED101B9DED0E0B0A
:1037D0004D4808380CC84D4803F040F84C4890ED6F
:1037E000000A4C4880ED0D0A4B4880ED0D0A4B480D
:1037F000D0ED000A4A4890ED000A474802F074FDF7
:10380000484890ED001A4848D0ED000A474890ED2E
:10381000000A414802F05EFD4048D0ED000A4048F1
:1038200090ED000A3B4802F05FFD3E4890ED001A23
:103830003D48D0ED000A3D4890ED000A354802F0C1
:1038400049FD3B48406840690D9004F05CFFCDE9BC
:103850001001384903C904F06DFF3022CDE90E0193
:1038600035496846FCF702FE9FED342B9DED101B99
:103870009DED0E0B304808380CC8324802F0EEFFC0
:1038800040F201212A4803F0B9FA0F9004F03BFFFF
:103890003022CDE910012C496846FCF7E7FD2948A4
:1038A00090ED020B52E00000000000000000E03F3D
:1038B000B0010020C8010020C4010020C001002088
:1038C000B40100204C000020B01C0020681900202A
:1038D000081D00200000C8427B14AE47E17A843FF7
:1038E000E81B002070000020D81C002008160020D3
:1038F000C81B002048000020B01900200000000074
:10390000004CDD40181A0020E8190020F01A0020B1
:10391000B8000020A822002020220020D000002093
:10392000CC000020C4000020C0000020BC0000200B
:10393000E815002058000020E81D002000000000CD
:103940000000D040281F0020201E00208DED0E0B0F
:103950001FED062B9DED101B9DED0E0BB0480CC806
:10396000B04802F07BFF40F20321AF4803F07CFB3C
:10397000B0F9040000EE100AB8EEC00A8DED110A8D
:1039800001220221DDED110AA84890ED000AA848A5
:1039900002F0B2FC40F20221A34803F065FBB0F94B
:1039A000040000EE100AB8EEC00A8DED110A0122E3
:1039B0000221DDED110A9D4890ED000AB1EE400AAA
:1039C0009C4802F099FC9C481190142111983430C5
:1039D00002F0B5FA0146119880F83C10119890F861
:1039E0003C0096490978084394490870944811901E
:1039F0000020109022E0119841681098C0EB00124E
:103A0000C2EBC01031F9300001460E90119801F060
:103A100066FDC0EB0011C1EBC0111198406800EBCE
:103A2000C1001C300A210F9002F089FA18B11098D9
:103A3000401CC0B208E01098401C10901198017A08
:103A400010988142D7DC002020B19FED7E0A7E488D
:103A500080ED0A0A7D48007A022803D17B48407A2B
:103A6000022801D0012000E0002080F00100784908
:103A7000097881F001010843F0B3764802F0D8FEDE
:103A8000754802F0D5FE01220021744801F043FD83
:103A9000644890ED020B8DED0E0B9DED0E0B51EC7D
:103AA000100B04F001FE00B20122014611906C4897
:103AB00001F031FD5E4890ED0C0ABDEEC00A10EE3B
:103AC000100A00B2032201461190654801F023FD5F
:103AD000584890ED0C0ABDEEC00A10EE100A00B274
:103AE0000222014611905E4801F015FD524890ED0A
:103AF000050ABDEEC00A00E005E0B8EEC00A59486C
:103B000080ED000A3FE0544890ED020B8DED0E0B66
:103B10009DED0E0B51EC100B04F0C6FD00B201221E
:103B2000014611904D4801F0F6FC3E4890ED020B25
:103B30008DED0E0B9DED0E0B51EC100B04F0B4FD52
:103B400000B2012201461190454801F0E4FC3848DA
:103B500090ED0C0ABDEEC00A10EE100A00B203226E
:103B6000014611903E4801F0D6FC324890ED0C0A17
:103B7000BDEEC00A10EE100A00B2022201461190FA
:103B8000374801F0C8FC38491498884243D1374877
:103B9000007810B901F066F901E001F09BFA3348B2
:103BA0000078401C3149087008460078119000EBFD
:103BB000D07041101198A0EB41002C49087040F2E0
:103BC00001211F4803F01AF900EE100AB8EEC00AEE
:103BD000274880ED000A47F6FC720023254903C9F7
:103BE000FCF7DBFBCDE9100105F08AF820494860BD
:103BF00016488088A0F5806000B200EE100AB8EE8A
:103C0000C00A084680ED020A4FF0FF40C86120223A
:103C1000194800F0FFFB12B0BDEC028B08BD00009C
:103C2000181E0020501E0020F8150020A4000020BF
:103C300020220020A8220020681900202000002057
:103C4000E81500200000000030230020F82C0020A0
:103C500035000020181A0020F01A00200100002072
:103C6000090000204C000020742D0020AC00002032
:103C70004826002058000020042E00207047F8B588
:103C800004460E46174694F8420020282ED106B16D
:103C90000FB90120F8BD01202063002060633A467F
:103CA0003146204600F026FF0546EDB9206B01287D
:103CB00019D100BF002000902068006800902068A3
:103CC0004068009000BF00BF00BF00BF21680C31FA
:103CD00051E8001F41F0100021680C3141E800025A
:103CE000002AF3D100E001252846D3E70220D1E7DE
:103CF000F0B587B004460D4627462E460B4887424E
:103D00000CD1122E0AD101A801F094FD182201A9AC
:103D10000748FCF766FB074802F00BF91222064938
:103D20000248FFF7ACFF00BF07B0F0BD4C2E0020EB
:103D3000F82C0020F8010020102D00207047000012
:103D40002DE9F84F0446206805682068C668206899
:103D500047694FF00009CA4605F00F09B9F1000F95
:103D60000AD105F0200038B106F0200020B120462D
:103D700000F02BFDBDE8F88FB9F1000F7CD007F003
:103D8000010018B906F49070002875D005F0010004
:103D900030B106F4807018B1606C40F001006064CE
:103DA00005F0040030B107F0010018B1606C40F07C
:103DB0000200606405F0020030B107F0010018B1A4
:103DC000606C40F00400606405F0080048B106F043
:103DD000200010B907F0010018B1606C40F0080035
:103DE0006064606C002846D005F0200028B106F021
:103DF000200010B1204600F0E8FC20684069C0F3C4
:103E0000801A606C00F0080010B9BAF1000F2DD0D4
:103E1000204600F081FC2068406900F04000402806
:103E200020D100BF00BF2168143151E8001F21F0EC
:103E300040002168143141E80002002AF3D100BF9C
:103E4000E06B50B17748E16B0865E06BFDF767FA0E
:103E500088B1E06B016D88470DE02046FFF76EFFEB
:103E600009E009E02046FFF769FF04E02046FFF77C
:103E700065FF002060647DE7206B012878D105F0A4
:103E80001000002874D006F010000028FAD000BFFF
:103E90000020009020680068009020684068009032
:103EA00000BF00BF2068406900F04000402860D19A
:103EB000E06B006840681FFA80F8B8F1000F56D038
:103EC000A08D404553DDA4F82E80E06BC069B0F5AD
:103ED000807F43D000BF00BF21680C3151E8001F34
:103EE00021F4807021680C3141E80002002AF3D1EE
:103EF00000BF00BF00BF2168143151E8001F21F04E
:103F000001002168143141E80002002AF3D100BF0A
:103F100000BF00BF2168143151E8001F21F04000AC
:103F20002168143141E80002002AF3D100BF2020AB
:103F300084F842000020206300BF00BF21680C31DC
:103F400051E8001F21F0100021680C3141E8000207
:103F5000002AF3D100BFE06BFDF78BF9022060630C
:103F6000A08DE28D801A81B22046FFF7C1FE01E7E5
:103F700042E0A08DE18D401A1FFA80F8E08DD0B3A9
:103F8000B8F1000F37D000BF00BF21680C3151E8F5
:103F9000001F21F4907021680C3141E80002002AD2
:103FA000F3D100BF00BF00BF2168143151E8001FEA
:103FB00021F001002168143141E80002002AF3D108
:103FC00000BF202084F842000020206300BF00BF13
:103FD00021680C3151E8001F21F0100021680C31DC
:103FE00041E80002002AF3D100BF0220606341468D
:103FF0002046FFF77DFEBDE605F0800030B106F0FB
:10400000800018B1204600F095FDB3E605F04000B1
:1040100030B106F0400018B1204600F0B3FBA9E62D
:1040200000BFA7E64F46000810B504460CB90120B2
:1040300010BDA06900B100E000BF94F8410028B9AC
:10404000002084F84000204600F02AF8242084F85C
:1040500041002068C06820F400502168C8602046F4
:1040600000F032FC2068006920F49040216808616B
:104070002068406920F02A00216848612068C068F3
:1040800040F400502168C86000206064202084F85B
:10409000410084F842000020606300BFC8E70000D0
:1040A00010B586B00446142101A8FCF711FAC849DE
:1040B000206888427ED100BF00200090C54800687B
:1040C00040F01000C34908600846006800F0100086
:1040D000009000BF00BF00BF00200090BD48143812
:1040E000006840F00200BB491439086008460068C7
:1040F00000F00200009000BF00BF00BF0020009051
:104100000846006840F0010008600846006800F0BA
:104110000100009000BF00BF8020019002200290AB
:1041200000200390032004900720059001A9AA48CD
:10413000FDF7FEFA4FF4007001900220029000207B
:104140000390032004900720059001A9A348FDF7E0
:10415000EFFAA348A34908604FF0006048600021CF
:10416000A0488160C1604FF480610161002141611C
:104170008161C16101624162FDF706FA08B1FCF795
:1041800021FB00BF9748E063846300BF9448783008
:10419000954908604FF00060486040219248816076
:1041A0000021C1604FF480610161002141618161A2
:1041B000C16100E014E001624162FDF7E5F908B178
:1041C000FCF700FB00BF8848A063846300BF0022A7
:1041D00011462520FDF734FC2520FDF71DFCF5E0F8
:1041E00082492068884278D100BF00200090794839
:1041F000001F006840F480207649091F08600846C7
:10420000006800F48020009000BF00BF00BF0020C5
:10421000009070481438006840F004006D4914396B
:1042200008600846006800F00400009000BF00BF6E
:104230004FF4406001900220029000200390032080
:1042400004900720059001A96948FDF771FA6948B3
:10425000694908604FF0006048600021664881604D
:10426000C1604FF480610161002141618161C161E0
:1042700001624162FDF788F908B1FCF7A3FA00BFBB
:104280005D48E063846300BF5A4830305B49086092
:104290004FF0006048604021584881600021C160B3
:1042A0004FF480610161002141618161C16101625E
:1042B0004162FDF769F908B1FCF784FA00BF4F4885
:1042C000A063846300BF002211462720FDF7B8FBDE
:1042D0002720FDF7A1FB79E0FFE7494920688842E4
:1042E00074D100BF002000903A48006840F02000E0
:1042F000384908600846006800F02000009000BFC0
:1043000000BF00BF0020009032481438006840F021
:1043100040003049143908600846006800F0400049
:10432000009000BF00BF4FF4844001900220029033
:1043300000200390032004900820059001A9314833
:10434000FDF7F6F9264818382F49086080054860BF
:1043500000212D488160C1604FF48061016100211E
:1043600041618161C16101624162FDF70DF908B1EE
:10437000FCF728FA00BF2448E063846300BF1848B4
:104380006030224908604FF02060486040211F489B
:1043900081600021C1604FF48061016100214161B1
:1043A0008161C16101624162FDF7EEF808B1FCF77D
:1043B00009FA00BF1548A063846300BF00221146BC
:1043C0004720FDF73DFB4720FDF726FB06B010BD5B
:1043D0000010014044380240000402400000024046
:1043E00040640240DC2E00203C2F002000480040AA
:1043F00000080240286002409C2F0020FC2F002073
:1044000000140140001802405C300020BC30002045
:1044100070470000F7B50446154694F8410020287F
:1044200036D1019800B10DB90120FEBD019820627E
:10443000A584E58400206064212084F841001548AB
:10444000A16BC8631448A16B08641448A16BC864CD
:104450000020A16B086501AE23681A1D31682B4648
:10446000A06BFDF707F96FF040002168086000BFFE
:1044700000BF2168143151E8001F41F0800021681D
:10448000143141E80002002AF3D100BF0020CCE73C
:104490000220CAE7B34600080B470008634600083D
:1044A0007047704700BFFEE700BFFEE700BFFEE7B2
:1044B0007047704710B5FDF73BFA10BD0348006820
:1044C00040F47000014908607047000088ED00E08A
:1044D00010B50248FEF75BF810BD0000742D0020F7
:1044E00010B50248FEF753F810BD0000BC2D0020A7
:1044F00010B502682D4B98420ED0B0F1804F0BD012
:104500002B4B984208D02B4B984205D02A4B98420F
:1045100002D02A4B984203D122F070024B681A4312
:10452000224B984220D0B0F1804F1DD0204B9842B2
:104530001AD0204B984217D01F4B984214D01F4BD3
:10454000984211D01E4B98420ED01E4B98420BD071
:104550001D4B984208D01D4B984205D01C4B9842E9
:1045600002D01C4B984203D122F44072CB681A430C
:1045700022F080034C6943EA040202608B68C36244
:104580000B688362094B984202D00C4B984201D1D0
:104590000B69036301234361036903F001031BB14A
:1045A000036923F00103036110BD00000000014016
:1045B0000004004000080040000C004000040140DE
:1045C0000040014000440140004801400018004004
:1045D000001C00400020004030B50C46816821F4EA
:1045E0007F4142EA032525432943816030BD0A46C5
:1045F000816821F0700142F0070319438160704720
:1046000030B50B461446026A056A25F001050562BD
:10461000816921F0F00141EA041122F00A021A43F3
:104620008161026230BD30B50B461446026A056AEC
:1046300025F010050562816921F4704141EA0431D9
:1046400022F0A00242EA03128161026230BD70B51D
:104650000546AC6B0020E085E0842046FFF76EFB4A
:1046600070BD70B506460025B46B20684069C0F384
:10467000C01594F84100212805D125B10020E0841F
:10468000204600F08FF820684069C0F3801594F848
:104690004200222805D125B10020E085204600F007
:1046A0003BF8606C40F0100060642046FFF746FB6A
:1046B00070BD70B50546AC6B2868006800F480706A
:1046C000F8B90020E08400BF00BF2168143151E830
:1046D000001F21F080002168143141E80002002A07
:1046E000F3D100BF00BF00BF21680C3151E8001FAB
:1046F00041F0400021680C3141E80002002AF3D16A
:1047000002E02046FFF7CCFE70BD70B50446A56BF5
:104710002846FFF7C6FE70BD00BF00BF02680C321E
:1047200052E8002F22F4907102680C3242E8001324
:10473000002BF3D100BF00BF00BF0268143252E863
:10474000002F22F001010268143242E80013002B0E
:10475000F3D100BF016B01290ED100BF00BF026879
:104760000C3252E8002F22F0100102680C3242E8AD
:104770000013002BF3D100BF202180F8421000214C
:104780000163704710B504462068C06820F04000FF
:104790002168C860202084F841002046FFF780FE91
:1047A000002010BD00BF00BF02680C3252E8002F8D
:1047B00022F0C00102680C3242E80013002BF3D152
:1047C00000BF202180F841107047F8B5044694F8E6
:1047D0004200222875D1A068B0F5805F0CD1206915
:1047E00050B90025A66A20684068C0F308003080F0
:1047F000A06A801CA06215E0A56A0026A068B0F53A
:10480000805F03D0A06828B9206918B92068406883
:10481000287004E02068406800F07F002870A06ADB
:10482000401CA062E08D401E80B2E085002846D189
:104830002068C06820F020002168C8602068C06837
:1048400020F480702168C8602068406920F0010071
:1048500021684861202084F8420000206063206BBA
:10486000012826D10020206300BF00BF21680C3141
:1048700051E8001F21F0100021680C3141E80002CE
:10488000002AF3D100BF2068006800F01000102853
:104890000AD100BF002000902068006800902068C6
:1048A0004068009000BF00BFA18D2046FFF720FAAE
:1048B00002E02046FFF7ACFD0020F8BD01E000203B
:1048C000FBE70220F9E700002DE9F84F04462068D5
:1048D000006920F44050E1680843216808612169BB
:1048E000A068084361690843E169084300902068B3
:1048F000C06849F20C618843009908432168C86088
:104900002068406920F44070A1690843216848612B
:1049100076492068884203D075492068884203D1CF
:10492000FDF7B8F9814602E0FDF7A4F98146E06998
:10493000B0F5004F6CD102206168A0FB0150034626
:104940001920A9FB007001462A463846FBF7AEFC49
:104950006421B0FBF1F04FEA001A02206168A0FB6D
:1049600001510B461920A9FB00712A463846FBF776
:104970009DFC834602206168A0FB0150034619207C
:10498000A9FB00712A463846FBF790FC6421B0FB76
:10499000F1F000EBC00101EB0010ABEB8000322125
:1049A00001EBC0006421B0FBF1F000F0F8000AEB6D
:1049B000400A02206168A0FB015003461920A9FBB0
:1049C000007001462A463846FBF770FC83460220F9
:1049D0006168A0FB015003461920A9FB00712A461B
:1049E0003846FBF763FC6421B0FBF1F000EBC0013B
:1049F00001EB0010ABEB8000322101EBC000642121
:104A0000B0FBF1F000F007005044216888606AE0D4
:104A100004206168A0FB015003461920A9FB007027
:104A200001462A463846FBF741FC8246042061686D
:104A3000A0FB015003461920A9FB007001462A463D
:104A40003846FBF733FC6421B0FBF1F000EBC0010A
:104A500001EB0010AAEB8000322101EB0010642171
:104A6000B0FBF1F000F0F00A04206168A0FB0170D7
:104A700003461920A9FB00513A462846FBF716FCCD
:104A80006421B0FBF1F00AEB001A04206168A0FB7E
:104A900001510B461920A9FB00712A463846FBF745
:104AA00005FC834604206168A0FB015003461920E1
:104AB000A9FB007001462A463846FBF7F7FB642144
:104AC000B0FBF1F000EBC00101EB0010ABEB80009C
:104AD000322101EB00106421B0FBF1F000F00F0077
:104AE000504421688860BDE8F88F00000010014044
:104AF0000014014010B5034699629A85DA850020BA
:104B00005864222083F84200186928B11868C068E8
:104B100040F480701C68E0601868406940F0010053
:104B20001C6860611868C06840F020001C68E06084
:104B3000002010BD014691F84100212828D1886845
:104B4000B0F5805F0BD1086948B90A6A1088C0F3D4
:104B500008000B685860086A801C086205E00B6A50
:104B6000581C086218780B685860C88C401E80B2C8
:104B7000C88458B90868C06820F080000B68D86005
:104B80000868C06840F040000B68D860002070479B
:104B90000220FCE710B50248FFF7D2F810BD000074
:104BA000042E002010B50248FFF7CAF810BD00001F
:104BB0004C2E002010B50248FFF7C2F810BD0000CF
:104BC000942E002000BFFEE708B500BF0020009033
:104BD0001648006840F480001449086008460068E0
:104BE00000F48000009000BF002211463920FCF73D
:104BF00027FF3920FCF710FF002211463A20FCF76E
:104C00001FFF3A20FCF708FF002211464520FCF761
:104C100017FF4520FCF700FF002211464620FCF755
:104C20000FFF4620FCF7F8FE08BD000030380240B8
:104C300010B500F02DFA0748FCF7E5FA0221054807
:104C4000FBF7C3FD0448FCF7DEFA02210248FBF73C
:104C5000BCFD10BD242D00204C2D00207FB586B05A
:104C600005460C461646082004900020019002904C
:104C7000039000948DF8140009AB3246694628462B
:104C8000FBF7B8FD0AB070BD10B50E480E490860BC
:104C90000620486000210C488160C1604FF440311B
:104CA00001614FF4801141610021017641768176E6
:104CB000C17601774177FCF7C7F808B1FBF782FDB1
:104CC00010BD000000640040242D002010B50E48E7
:104CD0000E4908600C20486000210C488160C160CA
:104CE0004FF4403101614FF48011416100210176A0
:104CF00041768176C17601774177FCF7A5F808B156
:104D0000FBF760FD10BD0000006800404C2D002046
:104D100008B500BF002000902248006840F0020063
:104D2000204908600846006800F00200009000BFBB
:104D300000BF002000900846006840F04000086076
:104D40000846006800F04000009000BF00BF00204F
:104D500000900846006840F00100086008460068BE
:104D600000F00100009000BF00BF00200090084646
:104D7000006840F0040008600846006800F0040085
:104D8000009000BF00BF002000900846006840F07F
:104D9000800008600846006800F08000009000BFB6
:104DA00008BD00003038024000B587B000200390F5
:104DB00004900590069001900290154815490860EE
:104DC0005320486000211348816040F2E731C16000
:104DD0000021016180218161FDF788FA08B1FBF7AC
:104DE000F1FC4FF48050039003A90A48FDF748FBFB
:104DF00008B1FBF7E7FC00200190029001A90548EB
:104E0000FDF71AFA08B1FBF7DDFC07B000BD0000A2
:104E1000000C0040742D00201CB500200090019073
:104E20000E480F4908605320486000210C488160FB
:104E300040F2E731C16080218161FDF757FA08B186
:104E4000FBF7C0FC00200090019069460448FDF784
:104E5000F3F908B1FBF7B6FC1CBD000000100040E0
:104E6000BC2D002010B50223034A40F2FF11034875
:104E7000FFF7F4FE10BD000001000020242D0020EB
:104E800070B50D4800F02AFB0C4C0225FCF74AFDDA
:104E9000B0FBF5F105FB110008B1012000E0002096
:104EA00006463146201D01F0B1FA00BFA07900B1DD
:104EB00000E000BF70BD0000942E00202400002000
:104EC00070B52DED028B9FED5B0A5B4880ED070A04
:104ED000FFF7AEFE00F0A2FC00F01CFB0A20FCF77E
:104EE00013FC9FED560B9FED571B9FED582B594818
:104EF00080ED320B80ED181B80ED1A2B00BFB0EE59
:104F0000000A80ED210A9FED540A80ED2C0A5348D7
:104F100090ED050ABDEEC00AB8EEC00A504880ED1B
:104F2000000ADFED4D0A9FED4F0A4F4801F0DCF912
:104F30009FED4E1ADFED4E0A9FED4E0A4A4801F0F2
:104F4000C9F9DFED4D0A9FED470A4C4801F0CCF955
:104F50009FED4B1ADFED460A9FED460A474801F0E8
:104F6000B9F9DFED450A9FED3F0A464801F0BCF96B
:104F70009FED431ADFED3E0A9FED3E0A414801F0E6
:104F8000A9F9FCF7CFFC002504464EE040F20121D0
:104F90003D4802F069F8B0F9040000EE100AB8EEDE
:104FA000C00AB0EE408A01220221F0EE480A9FEDCD
:104FB000370A2D4801F0A0F940F20321324802F0EF
:104FC00053F8B0F9040000EE100AB8EEC00AB0EED3
:104FD000408A01220221F0EE480A9FED2C0A274860
:104FE00001F08AF940F20221274802F03DF8B0F9B9
:104FF000040000EE100AB8EEC00AB0EE408A0122AA
:105000000221F0EE480A9FED210A1E4801F074F9D2
:10501000FCF788FC0021021B61EB05014FF4FA73D9
:1050200000209A1A884100D200E0AFE700BFBDEC33
:10503000028B70BD0000C84310210020000000005A
:105040000000084000000000000000000000000018
:1050500000001440081D002000009643681900203D
:105060004C00002000004844302300200024F44875
:1050700000409C450000C842000048432022002018
:1050800000247449A8220020F81500200000000028
:1050900000B58BB00120099000200690059001908A
:1050A0000290039004900790012008900E200A902F
:1050B00001A90648FBF744FC0E2006901C200A902C
:1050C00001A90348FBF73CFC0BB000BD242D0020D8
:1050D0004C2D002010B50223024A19020248FFF7A6
:1050E000BDFD10BD09000020242D002000B593B0A7
:1050F000302107A8FBF7ECF9142102A8FBF7E8F927
:1051000000BF002001902348006840F080502149F2
:1051100008600846006800F08050019000BF00BFA2
:10512000002001901C48006840F480401A49086043
:105130000846006800F48040019000BF01200790FD
:105140000004089002200D9041050E9106210F9158
:10515000A8211091022111910421129107A8FCF7B6
:1051600001FE08B1FBF72EFB0F20029002200390F6
:10517000002004904FF4A05005904FF4805006900A
:10518000052102A8FCF7AEFC08B1FBF71BFB13B02E
:1051900000BD0000403802400070004010B50B48D0
:1051A0000B4908604FF4E1304860002108488160F5
:1051B000C16001610C21416100218161C161FEF783
:1051C00033FF08B1FBF7FEFA10BD000000100140EC
:1051D000042E002010B50C480C4908600C484860AB
:1051E0004FF48051094881600021C1604FF4806113
:1051F00001610C21416100218161C161FEF714FF51
:1052000008B1FBF7DFFA10BD004800404C2E00202B
:10521000A086010010B50B480B4908604FF4E1303F
:105220004860002108488160C16001610C21416132
:1052300000218161C161FEF7F7FE08B1FBF7C2FAF8
:1052400010BD000000140140942E002010B52DED7B
:105250000A8BB0EE408AB0EE609AF0EE418A18EE0A
:10526000900A03F01FFD41EC1C0B9FED210B53EC4A
:10527000102B03F0EDFA41EC1A0B38EE490A10EE50
:10528000101A084603F00EFD41EC1B0B53EC1A2BD1
:1052900003F0DCFB04D238EE680AB0EE408A21E06D
:1052A000B1EE680A10EE100A03F0FCFC41EC1C0B96
:1052B0009FED0F0B53EC102B03F0CAFA41EC1A0BC5
:1052C00038EE490A10EE101A084603F0EBFC41ECE8
:1052D0001B0B53EC1A2B03F07FFA03D238EE280A8B
:1052E000B0EE408AB0EE480ABDEC0A8B10BD00005B
:1052F000000000000000E03F70B52DED0A8B044671
:105300000D46644890ED000AF3EE040AB4EEE00A9C
:10531000F1EE10FA01DB00202070207808B1012D99
:1053200004D19FED5D0A5B4880ED000A5948006892
:1053300003F0B8FC41EC1A0B9FED580B53EC102B0B
:1053400003F086FA41EC190B02F034FF08EE100A64
:10535000B0EE480A02F05CFA524880ED000A4D486F
:10536000006803F09FFC41EC1A0B9FED4F0B53ECD0
:10537000102B03F06DFA41EC190B02F01BFF08EE45
:10538000100AB0EE480A02F043FA494880ED000ADC
:105390004048006803F086FC41EC1C0B9FED450B78
:1053A00053EC102B03F088FB41EC1B0B02F002FFC7
:1053B00008EE100AB0EE480A00F0AAFD064603F017
:1053C000A2F941EC1A0B9FED3D0B53EC102B03F0AF
:1053D0003FFA41EC190B02F0EDFE3A49086008462D
:1053E000006803F05FFC41EC190B9FED340B53ECAC
:1053F000102B02F011FF41EC180B02F0DBFE3249DA
:1054000008603048006803F04DFC41EC1A0B9FED3A
:105410002B0B53EC102B03F05BFB41EC190B02F050
:10542000BDFE41EC180B02F0C5FE28490860264875
:1054300090ED000A1B48D0ED000A20EE200A084635
:10544000D0ED000A1A4890ED001A00EE810A20788B
:1054500000EE900AF8EE600A20EE200A1C4880ED6B
:10546000000A0C48006803F01DFC41EC190B9FED8D
:10547000190B53EC102B02F0CFFE41EC180B02F08D
:1054800099FE04490860124890ED000ABDEC0A8BB1
:1054900070BD000018020020000000000000008025
:1054A0002E1BE43F1C02002000000020FA210940CE
:1054B000200200200000000000002E40000000003C
:1054C0000000E03F30020020280200202C020020D3
:1054D00024020020FCA9F1D24D62503F70470246E1
:1054E0000B46B2F90000191A002902DA4FF0FF301A
:1054F0007047052902DB4FF0FF30F9E702F10900A0
:10550000405CFF2802D14FF0FF30F1E702F10900C3
:10551000405CEDE7704730B5C1F30724531E00F837
:105520001340012505EB4303C15430BD0FB470B5E2
:105530002DED048B0446109D0998B0F5C47F01D071
:10554000012000E000200999B1F5227F01D001215E
:1055500000E0002108400999B1F5627F01D00121E6
:1055600000E00021084020B1BDEC048B70BC5DF868
:1055700014FB0998B0F5C47F11D12878697840EA06
:10558000012000B22084A878E97840EA012000B226
:1055900060842879697940EA012000B2A0840998E2
:1055A000B0F5227F50D128786A7840EA022000B214
:1055B00000EE100AB8EEC00A10EE101A084603F00A
:1055C00071FB41EC190B9FED8E0B53EC102B03F08C
:1055D0003FF941EC180B02F0EDFDA062A878EA78E3
:1055E00040EA022000B200EE100AB8EEC00A10EE47
:1055F000101A084603F056FB41EC190B9FED800B87
:1056000053EC102B03F024F941EC180B02F0D2FDFF
:10561000E06228796A7940EA022000B200EE100ABE
:10562000B8EEC00A10EE101A084603F03BFB41EC3E
:10563000190B9FED730B53EC102B03F009F941ECA0
:10564000180B02F0B7FD20630998B0F5627F7CD19A
:1056500028786A7840EA022000B200EE100AB8EE1C
:10566000C00A10EE101A084603F01CFB41EC190B9F
:105670009FED630B53EC102B03F0EAF841EC180B91
:1056800002F098FD2060A878EA7840EA022000B293
:1056900000EE100AB8EEC00A10EE101A084603F029
:1056A00001FB41EC190B9FED560B53EC102B03F053
:1056B000CFF841EC180B02F07DFD606028796A7923
:1056C00040EA022000B200EE100AB8EEC00A10EE66
:1056D000101A084603F0E6FA41EC190B9FED480B4F
:1056E00053EC102B03F0B4F841EC180B02F062FD00
:1056F000A06094ED020A84ED030A94ED030AB5EE6E
:10570000C00AF1EE10FA07D294ED030ADFED3E0A6B
:1057100030EE200A84ED030A94ED040AD4ED030A66
:10572000B4EE600AF1EE10FA57D094ED040AFFEEE1
:10573000000AB4EE600AF1EE10FA4ED094ED040ABD
:10574000B0EE408A94ED030A00E052E0F0EE408AA9
:1057500038EEC80A10EE101A084603F0A3FA41EC1E
:10576000190B9FED2A0B53EC102B03F035F80CD2DC
:1057700094ED050ADFED240A70EEC80A70EEA80A5F
:1057800030EE200A84ED050A26E038EEC80A10EE55
:10579000101A084603F086FA41EC190B9FED1D0B19
:1057A00053EC102B03F052F90ED294ED050ADFED05
:1057B000160A70EEE80A70EE880AF1EE600A30EE22
:1057C000200A84ED050A07E094ED050A78EEC80A80
:1057D00030EE200A84ED050A00BF94ED030A84ED43
:1057E000040A207E28B994ED030A84ED070A0120FB
:1057F000207604F1340000F09CFB00BFB4E600000A
:105800007B14AE47E17A843F0000B44300000000FF
:10581000008066C0000000000080664010B51222C3
:1058200002490348FEF72BFA10BD0000102D00209E
:105830004C2E002010B586B0044618216846FAF7B1
:1058400047FE3A4800783949497840EA0120C0F3D8
:105850000A00ADF8000035484078C0103349897817
:1058600040EA4110C0F30A00ADF802002F488078EA
:1058700080112E49C97840EA81002C49097940EA13
:105880008120C0F30A00ADF80400284800794010D8
:105890002649497940EAC110C0F30A00ADF8060074
:1058A00022484079001180088DF808001F4840798F
:1058B000C0F301108DF809001C4880791B49C97993
:1058C00040EA012000B2ADF80C001848007A1749F0
:1058D000497A40EA012001B2ADF80E101348807AEF
:1058E0001249C97A40EA012001B2ADF810100F4800
:1058F000017B8DF81210417B8DF81310807B0B49D2
:10590000C97B40EA0120ADF814000848007C074933
:10591000497C40EA012000B2ADF80A00182269462D
:105920002046FAF75EFD06B010BD0000102D0020E5
:1059300030B52DED108B87B00446B0EE408A0D4691
:1059400084ED008A5DB994ED000A84ED010A9FEDB3
:10595000950A84ED020A07B0BDEC108B30BD207FA4
:1059600020B1012873D0032870D1C5E094ED010A5D
:10597000D4ED020A94ED051A00EE810A84ED010AC5
:1059800094ED050A10EE101A084603F08BF941EC6D
:105990001C0B94ED040A20EE000AD4ED010A94EDEC
:1059A000001A70EEC10A20EE200A10EE101A084606
:1059B00003F078F941EC1E0B94ED020A10EE101A78
:1059C000084603F06FF9CDE9040194ED040A10EEE6
:1059D000101A084603F066F99FED730B53EC102B79
:1059E000CDE900019DED000B51EC100B02F030FFF2
:1059F000CDE902019DED040B53EC102B9DED020B44
:105A000051EC100B02F024FF41EC1F0B53EC1E2B4A
:105A100003F05EF841EC1D0B53EC1C2B02F018FF59
:105A200041EC1A0B94ED020A10EE101A084603F02E
:105A300039F941EC1B0B53EC1A2B02F0EDFB41EC56
:105A4000190B02F0B7FBA06082E000E07FE094ED6C
:105A5000040A10EE101A084603F024F941EC1B0B5F
:105A60009FED530B53EC102B02F0F2FE41EC1A0B9E
:105A700053EC1A2B9FED500B51EC100B02F080FCF5
:105A800041EC190B02F096FBA061D4ED020AB0EED6
:105A9000600A01F03AFBD4ED020A60EE200A94EDB0
:105AA000010A94ED001A30EE410A94ED061A00EE58
:105AB000810AB0EE409A00F02BFA00EE100AB8EE20
:105AC000C00AD4ED040AF1EE600A20EE200AF0EEDE
:105AD000408A94ED010AD4ED020A94ED051A00EE15
